:020000040000fa
:080000006c0704000000000081
:020000040000fa
:10000800000c0000040c0000080c00000c0c0000a0
:10001800100c0000140c0000180c00001c0c000050
:10002800200c0000240c0000280c00002c0c000000
:10003800300c0000340c0000380c00003c0c0000b0
:10004800400c0000440c0000480c00004c0c000060
:10005800500c0000540c0000580c00005c0c000010
:10006800600c0000640c0000680c00006c0c0000c0
:10007800700c0000740c0000780c00007c0c000070
:10008800800c0000840c0000880c00008c0c000020
:10009800900c0000940c0000980c00009c0c0000d0
:1000a800a00c0000a40c0000a80c0000ac0c000080
:1000b800b00c0000b40c0000b80c0000bc0c000030
:1000c800c00c0000c40c0000c80c0000cc0c0000e0
:1000d800d00c0000d40c0000d80c0000dc0c000090
:1000e800e00c0000e40c0000e80c0000ec0c000040
:1000f800f00c0000f40c0000f80c0000fc0c0000f0
:10010800000d0000040d0000080d00000c0d00009b
:10011800100d0000140d0000180d00001c0d00004b
:10012800200d0000240d0000280d00002c0d0000fb
:10013800300d0000340d0000380d00003c0d0000ab
:10014800400d0000440d0000480d00004c0d00005b
:10015800500d0000540d0000580d00005c0d00000b
:10016800600d0000640d0000680d00006c0d0000bb
:10017800700d0000740d0000780d00007c0d00006b
:10018800800d0000840d0000880d00008c0d00001b
:10019800900d0000940d0000980d00009c0d0000cb
:1001a800a00d0000a40d0000a80d0000ac0d00007b
:1001b800b00d0000b40d0000b80d0000bc0d00002b
:1001c800c00d0000c40d0000c80d0000cc0d0000db
:1001d800d00d0000d40d0000d80d0000dc0d00008b
:1001e800e00d0000e40d0000e80d0000ec0d00003b
:0801f800f00d0000f40d000001
:020000040000fa
:10020800000e0000040e0000080e00000c0e000096
:10021800100e0000140e0000180e00001c0e000046
:10022800200e0000240e0000280e00002c0e0000f6
:10023800300e0000340e0000380e00003c0e0000a6
:10024800400e0000440e0000480e00004c0e000056
:10025800500e0000540e0000580e00005c0e000006
:10026800600e0000640e0000680e00006c0e0000b6
:10027800700e0000740e0000780e00007c0e000066
:10028800800e0000840e0000880e00008c0e000016
:10029800900e0000940e0000980e00009c0e0000c6
:1002a800a00e0000a40e0000a80e0000ac0e000076
:1002b800b00e0000b40e0000b80e0000bc0e000026
:1002c800c00e0000c40e0000c80e0000cc0e0000d6
:1002d800d00e0000d40e0000d80e0000dc0e000086
:1002e800e00e0000e40e0000e80e0000ec0e000036
:1002f800f00e0000f40e0000f80e0000fc0e0000e6
:10030800000f0000040f0000080f00000c0f000091
:10031800100f0000140f0000180f00001c0f000041
:10032800200f0000240f0000280f00002c0f0000f1
:10033800300f0000340f0000380f00003c0f0000a1
:10034800400f0000440f0000480f00004c0f000051
:10035800500f0000540f0000580f00005c0f000001
:10036800600f0000640f0000680f00006c0f0000b1
:10037800700f0000740f0000780f00007c0f000061
:10038800800f0000840f0000880f00008c0f000011
:10039800900f0000940f0000980f00009c0f0000c1
:1003a800a00f0000a40f0000a80f0000ac0f000071
:1003b800b00f0000b40f0000b80f0000bc0f000021
:1003c800c00f0000c40f0000c80f0000cc0f0000d1
:1003d800d00f0000d40f0000d80f0000dc0f000081
:1003e800e00f0000e40f0000e80f0000ec0f000031
:0803f800f00f0000f40f0000fb
:020000040000fa
:10040000800078000040eb0082c0b3000102780059
:100410000408b200a31680000370a10083017200db
:10042000a316880081804000d522a90000000000aa
:10043000000000000000000000000000004040003c
:10044000d302ab00010032000040e800d522a80032
:10045000000000000000000000000000000000009c
:100460000241e900e9ff3a00d4e2a80000000600da
:10047000c462a90060002000e1ff0700c462a80078
:1004800000000600c462a90060062000dcff07002f
:10049000c462a8000000000000000000000000008e
:1004a000c462a90090092000d5ff0700c462a8001b
:1004b0000000000000000000000000000000060036
:1004c0002ca3ef00d0e2a900d102a800d122a900fc
:1004d000c062a900c022a900c422a800e9ff070049
:1004e000f0e7230001002000000000006100500040
:1004f000e0805800fcff3a000000060022042400bf
:10050000023b88004009de00030020002403200095
:10051000024a78000001eb000208bb0050052000f1
:10052000303b8800a00a2000303b880061e7a8002b
:1005300000000000000000000000000000000000bb
:10054000000006000001eb00315878000201e800cd
:10055000e20f5100fcff3a00000006000600fa001e
:10056000889fbe008a9fbe008c1f78000004780020
:10057000010678004018de000100200032e0b700dc
:100580006027ef008044eb00100037008a0545002b
:10059000828545001b00ba0080bf9f006350b900f0
:1005a00000054400f08057000a00780092bf9f00c9
:1005b000a3bf9f00e3ff07009b85ba002b4598006f
:1005c0008944e800afb997001fb997000985fb007f
:1005d0008c0f5500edff35004f0678004f05be002b
:1005e0004f04be000080fa00000006001000fa0070
:1005f00051002000024025001300200070805700a9
:10060000d6ff07008ff097001000200052cab300f9
:1006100082cf500035003a001ff19700814f510002
:1006200032003a002ff19700a1c5b300814f51006d
:100630002e003a0031c2b300bff1970081cf5100c4
:100640002a003a00cff09700e1cf500027003a008f
:10065000dff0970082cf500024003a0072c6b3004a
:10066000eff1970082cf510020003a0052c4b3004e
:10067000fff1970082cf51001c003a000ff997005c
:10068000814f510019003a00b1cab3001ff9970019
:10069000814f510015003a0091c8b3002ff997001f
:1006a000814f510011003a00a1c5b3003ff99700f6
:1006b000814f51000d003a00cff89700f1cf400074
:1006c0000a003a00d1ccb3005ff99700814f510086
:1006d00006003a0050cab300eff8970000c0680067
:1006e0000080fb000000ea004f00de000080fa00fe
:1006f00000000600c600fa00889fbe008a9fbe0068
:1007000011002400013b8800401ade000500200093
:1007100021032000844878000004780088047800d1
:100720006055b8008900780020f32f000f004000ca
:10073000a2bf9f00b3bf9f0082ff07000a004500d1
:100740002fb99700bfb99700020040009f1897008b
:100750000108bb00a94090008180fb00911f9f0011
:100760000188bb0061054500e0854d00e38444003d
:1007700006042000860f5500e08f5d00e9ff3a0077
:1007800050052000303b8800a00a2000303b880044
:1007900061e7a80000000000000000000000000069
:1007a000000000000104200040f32f000f00400073
:1007b0006aff070030f32f000f004000ed80570064
:1007c00050417800b84f5100010032000000fe0097
:1007d000810f5000faff3a004f05be004f04be00e3
:1007e0000080fa0000000600c000fa0051cab30001
:1007f00081c79e0091c79e00a0c5b300a0c79e0000
:1008000032c2b300b2c79e0012c0b300c2c79e007e
:10081000d0c79e0072c6b300e2c79e0052c4b300a8
:10082000f2c79e0080cf9e00b2cab30092cf9e0056
:1008300092c8b300a2cf9e00b0cf9e00f0ceb3000e
:10084000c0cf9e00d0ccb300d0cf9e00e1cf9e00a1
:10085000004025001100200028ff0700024025006d
:100860001300200000f42f000f004000a1ff07003c
:100870000080fa00000006000001eb00b081fb00e0
:10088000c819dd008380680083c0b3000182400086
:100890000100e00003003d001102210081006a0018
:1008a00001003700840078008341e900f7ff3a0037
:1008b0000201e80003602000830f5100efff3a00bf
:1008c0000100780000000600c462a900500020006a
:1008d000cbfe0700f00f2000c9fe0700c462a8008d
:1008e000000006000a00fa00889fbe006f845700cf
:1008f000e58457000801780000e9eb00890f5100fa
:10090000fdff3a00e10f4000e08f48003500320063
:10091000f2ff2700f3032000820f5000838f58005e
:1009200018003600f2ff2d00f3032000820f500064
:10093000838f580002003600f0c7b3000f00370065
:10094000f2ff2b00f3032000820f5000838f58002a
:1009500002003600f0cdb30008003700f2ff290096
:10096000f3032000820f5000838f580002003600ee
:1009700070cfb30001003700d0cfb300a0f79f00c5
:1009800018003700f2ff2700820f5000e08f580058
:1009900014003e00f2ff2500820f5000e08f580047
:1009a00002003600f0c7b3000d003700f2ff23004d
:1009b000820f5000e08f580002003600f0cdb300e7
:1009c00007003700f2ff2100820f5000e08f58002f
:1009d0000200360070cfb30001003700d0cfb30063
:1009e000b0f79f00a2fe0700c462a9002004200007
:1009f00083fe07005880fb0081fe0700890f54002a
:100a0000fcff3a00c462a800afff07000008a30083
:100a1000fdff3a004f04be000080fa00000006000f
:100a2000889fbe008a1f7800010578008000eb00d7
:100a30000002b0000180b000480cdd00c804de00f8
:100a4000890474004804dd000800be00a5ff07000b
:100a500087fe0700c462a900b000200068fe0700fe
:100a60000980fb0066fe07004849dd004840de00c3
:100a700000007100c848de000080fb0060fe070037
:100a80000880fb005efe0700f00f20005cfe070000
:100a90000004eb00f00f200059fe0700005d780015
:100aa0000804e80000102000800f5400f9ff3a000d
:100ab000c462a8000080eb008080eb0089ff070083
:100ac0004f0578004f04be0000000600cf3fb00085
:100ad000cf3fb000af10b000889fbe008a9fbe001d
:100ae0008e1f7800609f2f000084470088007800e8
:100af000c01e2000caff07009840780010c0b30055
:100b000052cab30082cf500070003a0018419000e2
:100b1000814f51006d003a0028419000a1c5b300fb
:100b2000814f510069003a00b841900031c2b300d2
:100b300081cf510065003a00c840900080cf50003e
:100b400062003a00d840900082cf50005f003a0027
:100b5000e841900072c6b30082cf51005b003a00ba
:100b6000f841900052c4b30082cf510057003a00c0
:100b700008499000814f510054003a0018499000f4
:100b8000b1cab300814f510050003a00629f2f005c
:100b900082804700a149900092c8b30082cf5100e3
:100ba0004a003a00b1499000a2c5b30082cf51007b
:100bb00046003a0041499000f14f410043003a009d
:100bc000d1499000d2ccb30082cf51003f003a000f
:100bd0006149900051cab300814f51003b003a0077
:100be000616f2f008f804000f01e20008cff0700f7
:100bf000607f2f0080804700001f200088ff0700d3
:100c0000628f2f0082804700101f200084ff0700a2
:100c10006e6f2f000f0747000005eb002801200032
:100c200021003700609f2f000f0040008b00400024
:100c3000728054007aff07008904e8000b10b000ae
:100c400065004400890f5000f6ff3d008000eb0076
:100c5000609f2f000f00400007ff07009e4090009c
:100c6000c808dd001e81fb0081007100810f50006b
:100c700003003200e01f2000800f540012003a00f1
:100c80008a007800629f2f0002804700fafe07006a
:100c900000057800660444000e87e800402020002c
:100ca000800f540003003200880478008005eb00b8
:100cb000e3ff37000040eb000a00e00003003200d1
:100cc00020c0b3000100370030c0b3004f077800e8
:100cd0004f05be004f04be00ef1fb100ef1fb10073
:100ce000ef1fb100ef1fb100af10b1000000060010
:100cf000cf3fb000cf3fb0002f11b000889fbe00a3
:100d00008a9fbe008c9fbe008e1f7800a16e2f00b0
:100d10008f804000f01e200041ff0700a07e2f00c2
:100d200080804700001f20003dff0700a08e2f009d
:100d300080804700101f200039ff070008c02000f6
:100d4000090020000800be00ecfd07000040200064
:100d5000010020000804400089844800008025002c
:100d600011002000800f5400818f5c00f5ff3a00d5
:100d70000000000000000000ae6e2f000f074700cb
:100d8000280120000900200080012000010020002f
:100d9000d0b79f00e1b79f006a0020000b00200041
:100da0000b0037000800560089805e00c800dd0097
:100db000a09e2f000f0040008100400072005600ee
:100dc00017ff070061064600e0864e00010037006d
:100dd0000806be005fb09700efb09700800f560086
:100de000818f5e00efff39008000eb00a09e2f0096
:100df0000f004000a0fe07009e409000c808dd00e4
:100e00001e81fb0081007100810f50000400320040
:100e1000e11f2000810f5400e08f5c00ecff3a00de
:100e2000495add00c752de00850272004952dd00da
:100e30000006eb00a19e2f008f80400001004600bd
:100e40000401be00f4b79f0085bf9f0029fe070084
:100e50007fb297008fba97000408b0000580b000f9
:100e60000c0cb00000602000800f5600f1ff3a002b
:100e70005fb09700efb0970066004000e080480048
:100e8000d0b79f00e1b79f000e87e80066044400da
:100e9000e0844c00a10a2000810f5500e08f5d0026
:100ea0000300320062054500e0854d00c8ff3700b1
:100eb0004f0778004f06be004f05be004f04be002e
:100ec000ef1fb100ef1fb100ef1fb100ef1fb10026
:100ed0002f11b1000000060040a7a900cf17230082
:100ee00000772400000188000000000000e02f00cf
:100ef0004607b600b00ab300303a880000fe2f0063
:100f00004407b6006000b300203a8800f0f32f00d9
:100f10004427b60010002000403a880042a7ab00ea
:100f2000feff32008420ef008620ef008820ef00d3
:100f30008a20ef008c20ef00acfd07000000e000ed
:100f400003003a0000120200000000000a0037000f
:100f5000000e20004220b70059fd0700dbfe07000d
:100f60000004e000020032001ffe0700010037000d
:0c0f70005fff07000000fe00000005000d
:020000040000fa
:0417fc0045428700db
:020000040000fa
:1018000060140400000000006214040000000000e6
:1018100066140400000000006a14040000000000c8
:101820006e140400000000007214040000000000a8
:1018300060140400000000006014040000000000b8
:1018400060140400000000006014040000000000a8
:101850006014040000000000d41504000000000023
:10186000d01204000000000060140400000000001a
:101870006014040000000000601404000000000078
:101880006014040000000000601404000000000068
:1018900060140400000000000c15040000000000ab
:1018a000e8140400000000006014040000000000c0
:1018b0006014040000000000601404000000000038
:1018c0006014040000000000601404000000000028
:1018d0006014040000000000601404000000000018
:1018e0006014040000000000601404000000000008
:1018f00060140400000000006014040000000000f8
:1019000060140400000000006014040000000000e7
:1019100060140400000000006014040000000000d7
:1019200060140400000000005414040000000000d3
:101930009a14040000000000761404000000000067
:1019400060140400000000006014040000000000a7
:101950006014040000000000601404000000000097
:101960006014040000000000601404000000000087
:101970006014040000000000601404000000000077
:101980006014040000000000601404000000000067
:101990006014040000000000601404000000000057
:1019a0006014040000000000601404000000000047
:1019b0006014040000000000601404000000000037
:1019c0006014040000000000601404000000000027
:1019d0006014040000000000601404000000000017
:1019e0006014040000000000601404000000000007
:1019f00060140400000000006014040000000000f7
:101a000060140400000000006014040000000000e6
:101a100060140400000000006014040000000000d6
:101a200060140400000000006014040000000000c6
:101a300060140400000000006014040000000000b6
:101a400060140400000000006014040000000000a6
:101a50006014040000000000601404000000000096
:101a60006014040000000000601404000000000086
:101a70006014040000000000601404000000000076
:101a80006014040000000000601404000000000066
:101a90006014040000000000601404000000000056
:101aa0006014040000000000601404000000000046
:101ab0006014040000000000601404000000000036
:101ac0006014040000000000601404000000000026
:101ad0006014040000000000601404000000000016
:101ae0006014040000000000601404000000000006
:101af00060140400000000006014040000000000f6
:101b000060140400000000006014040000000000e5
:101b100060140400000000006014040000000000d5
:101b200060140400000000006014040000000000c5
:101b300060140400000000006014040000000000b5
:101b400060140400000000006014040000000000a5
:101b50006014040000000000601404000000000095
:101b60006014040000000000601404000000000085
:101b70006014040000000000601404000000000075
:101b80006014040000000000601404000000000065
:101b90006014040000000000601404000000000055
:101ba0006014040000000000601404000000000045
:101bb0006014040000000000601404000000000035
:101bc0006014040000000000601404000000000025
:101bd0006014040000000000601404000000000015
:101be0006014040000000000601404000000000005
:020000040000fa
:101c000060140400000000006014040000000000e4
:101c100060140400000000006014040000000000d4
:101c200060140400000000006014040000000000c4
:101c300060140400000000006014040000000000b4
:101c400060140400000000006014040000000000a4
:101c50006014040000000000601404000000000094
:101c60006014040000000000601404000000000084
:101c70006014040000000000601404000000000074
:101c80006014040000000000601404000000000064
:101c90006014040000000000601404000000000054
:101ca0006014040000000000601404000000000044
:101cb0006014040000000000601404000000000034
:101cc0006014040000000000601404000000000024
:101cd0006014040000000000601404000000000014
:101ce0006014040000000000601404000000000004
:101cf00060140400000000006014040000000000f4
:101d000060140400000000006014040000000000e3
:101d100060140400000000006014040000000000d3
:101d200060140400000000006014040000000000c3
:101d300060140400000000006014040000000000b3
:101d400060140400000000006014040000000000a3
:101d50006014040000000000601404000000000093
:101d60006014040000000000601404000000000083
:101d70006014040000000000601404000000000073
:101d80006014040000000000601404000000000063
:101d90006014040000000000601404000000000053
:101da0006014040000000000601404000000000043
:101db0006014040000000000601404000000000033
:101dc0006014040000000000601404000000000023
:101dd0006014040000000000601404000000000013
:101de0006014040000000000601404000000000003
:101df00060140400000000006014040000000000f3
:101e000060140400000000006014040000000000e2
:101e100060140400000000006014040000000000d2
:101e200060140400000000006014040000000000c2
:101e300060140400000000006014040000000000b2
:101e400060140400000000006014040000000000a2
:101e50006014040000000000601404000000000092
:101e60006014040000000000601404000000000082
:101e70006014040000000000601404000000000072
:101e80006014040000000000601404000000000062
:101e90006014040000000000601404000000000052
:101ea0006014040000000000601404000000000042
:101eb0006014040000000000601404000000000032
:101ec0006014040000000000601404000000000022
:101ed0006014040000000000601404000000000012
:101ee0006014040000000000601404000000000002
:101ef00060140400000000006014040000000000f2
:101f000060140400000000006014040000000000e1
:101f100060140400000000006014040000000000d1
:101f200060140400000000006014040000000000c1
:101f300060140400000000006014040000000000b1
:101f400060140400000000006014040000000000a1
:101f50006014040000000000601404000000000091
:101f60006014040000000000601404000000000081
:101f70006014040000000000601404000000000071
:101f80006014040000000000601404000000000061
:101f90006014040000000000601404000000000051
:101fa0006014040000000000601404000000000041
:101fb0006014040000000000601404000000000031
:101fc0006014040000000000601404000000000021
:101fd0006014040000000000601404000000000011
:101fe0006014040000000000601404000000000001
:020000040000fa
:102000000040eb00a1752200804878008100e800c4
:10201000804878000000eb00d05c89006011b800b7
:10202000e25c8900f35c8900205d89000000060005
:102030000000eb00205d890061ba22008048780032
:102040003022ef00b1002000c11188009c40a9009f
:10205000f28f2f00910580000101610001502000e6
:102060008280700091058800f2ff280091058000b1
:102070000101610001002500828070009105880047
:102080003082a90033c2a900f1f32f0022232000df
:102090001289600033e2a90033a2a90097e0a800ea
:1020a00087e0a90031e2a8003342a80087c0a90058
:1020b00097c0a900a1752200804878008100e8003f
:1020c000804878000000060000ba22001040780026
:1020d00000000600115d890011002000415d8900ab
:1020e000505d890002ba2200014978001080fb008f
:1020f000a01188000000060061ba2200114078009b
:10210000114178008048eb003222a900674060004e
:1021100000000600215d81000108780060ba2200fd
:10212000904078000048eb000000eb00205d890043
:10213000a0752200000006000200fa00889fbe0081
:102140009011800062006000080032006680570035
:10215000f0ff0700e8ff0700a9ff0700b4ff070032
:1021600087c0a90097c0a8004c003700a1752200c5
:102170001104e00006003a008100e8001104e000cc
:1021800003003a00205d8900d05c890043003700dd
:1021900069ba22009980fb0010c0b3000148a30077
:1021a0003f003a009980fb000040eb000138a3009b
:1021b0003b003200285d8100b811020000000000e1
:1021c000d25c8100880f510014003a00e25c81006b
:1021d000f35c810061014100e0814900820f500001
:1021e000838f58000d003600e25c8100f35c8100b3
:1021f000e00f5100e08f5900080032001981fb0008
:102200000248a30005003a0066805700c1ff07009e
:10221000b9ff07007aff070020003700d25c810079
:10222000880f510009003a0062ba22001281fb00b7
:102230000248a30005003a00e25c8100f35c8100e3
:10224000e00f5100e08f590002003a00e05c890085
:10225000f15c8900e25c8100f35c81006101410076
:10226000e0814900820f5000838f58000a00360039
:1022700060ba22001080fb000048a30006003a006c
:10228000e25c8100f35c81000040eb00e00f510054
:10229000e08f590002003a00d85c89000040eb0052
:1022a0004f04be000080fa00000006000200fa00a1
:1022b0005fff07000f80e90096ff07008eff070011
:1022c0000000eb00d05c89006011b800e25c89007e
:1022d000f35c890001ba220080487800105d890013
:1022e00047ff070087c0a90097c0a80082ff07002a
:0822f0000080fa000000060066
:020000040000fa
:1022f80011172300804878000421ef008460a900aa
:10230800f2ff28002105800001016100010026007c
:1023180082807000210588009460a800e14f500079
:1023280003003a000421a80002a1ef0005003700cd
:102338000421a900000320000421b7009098200080
:102348001008880005a1a8006000b800908b8900db
:10235800a18b8900001723000048eb000021ef0043
:1023680005e1a80000000600001723000048eb0064
:10237800908b8100a18b8100121723001204e000ca
:10238800030032000208800000004100e08048009d
:10239800021723001204e000f3ff3a0000000600d1
:1023a8000001be00011723008048eb00928b8900d2
:1023b800a38b89000021ef001104e000f9ff3a0027
:0423c800000006000b
:020000040000fa
:082400000412040000000000ba
:020000040000fa
:10240800cf1723000e7724000e018800000000007b
:10241800000020000000e00002003200000120005f
:102428002002880014000700f60107000000e00001
:1024380003003a00a0262000110020000200370007
:102448000000200001002000810f70000100320010
:1024580014000700000020000000e0000200320025
:102468000000020000000000cef2020000000000a0
:102478000040da000000fe004440a900a0e020006f
:102488000000e0000300320000002000a0018800e6
:102498004440a800000006008a1f78008b1f7800bf
:1024a8000000060091018800800478000000eb001d
:1024b8001a003700e284440032a0b4009905ba003b
:1024c800e284440032a0b4009906ba00e2844400d1
:1024d80032a0b4000006eb00476fde00fd07b20033
:1024e800636ce10003003a00ebff07000000eb001b
:1024f8000a003700606ce10004003a00005deb0060
:102508008b05e900fdff3e00040037006168e1002b
:10251800010032000086eb000b00070019c7ba0063
:102528001905ba000e04e00003003a000a00e000b2
:10253800e0ff3a0000000600fe07b2009e01880096
:102548008a047800f5ff3700395dba008b05e90089
:102558000c003200295dba008b05e9000800320042
:102568000c00e00003003a00e284440032a0b4000a
:10257800f5ff370019ddba008b05e900faff3a00cc
:102588008904e800e184440032a0b4000000060099
:10259800441e0400000000003600f800809fbe00c2
:1025a800829fbe00849fbe00869fbe0011c0b300fc
:1025b800907b24000148780000d122001004e0003c
:1025c8004900320000102300617b24001104e00060
:1025d800250032001004e00002003200603c820056
:1025e80006003700023c82000080eb0001fa200060
:1025f800810f510001003e00003c8200003d8a002e
:1026080020102300104078000004e00003003a0086
:10261800c442a900617b240080487800457b2400df
:10262800954078000181fb006701410002014100eb
:10263800f4815200043d820084317900814ae80027
:102648009580fb0032002000110009008280d8002c
:10265800814a7800f28052006c804000c0f5020088
:1026680000000000200037001004e00003003200e2
:10267800613c8200213d8a0002003700043c820050
:10268800243d8a00201023001004e00001003a00d5
:10269800c442a800557b2400954078000181fb00c6
:1026a8006401410002014100f5815200203d820091
:1026b80080317900814ae8009580fb0032002000d3
:1026c800110009008280d800814a7800ef8052000a
:1026d8000180e800c0f502000000000011c0b3004e
:1026e800607b240001487800001023001004e000fb
:1026f8006400320000d122001004e00026003a00f5
:10270800a37b2400913c8200d13d8a00e8824100ed
:10271800954078000181fb000201e80002014100b8
:10272800d43d820084317900814ae8009580fb001d
:1027380032002000110009008280d800814a780008
:10274800713c8200313e8a007483410096407800d3
:102758000182fb006702420004024200353e82000b
:1027680085317a00014be8009680fb0011000900d2
:102778008280d800014b7800ea80410068805000d0
:10278800c0f5020000000000017d240068805000b0
:10279800c0f5020000000000213c8200913e8a0042
:1027a800a57d2400154178008281fb00ed81410060
:1027b80006fe2f000503430083814100943e8200fa
:1027c80004b37900824ae8009581fb0032002000ba
:1027d800110009008281d80081017800834a7800bd
:1027e800443c8200f43e8a00ec8242009541780025
:1027f8000382fb007302420004024200f03e8200a2
:1028080000337a00834ae8009581fb001100090033
:102818008281d80081017800834a7800343c8200a4
:10282800543f8a00ec824200954178000382fb0005
:102838007902420004024200503f820000337a00cd
:10284800834ae8009580fb00110009008280d800c7
:10285800814a7800f680520068805000c0f5020076
:1028680000000000817e240068805000c0f502004e
:1028780000000000417f240068805000c0f502007d
:10288800000000008480a9004f03be004f02be0074
:102898004f01be004f00be003600f90000400600a0
:1028a800801f7800c00223001008e80087a0a90054
:1028b8004f00780000400600ffff37008020a90085
:1028c800ffff37008060a900ffff37008040a900a4
:1028d800ffff37008080a900ffff370080a0a90014
:1028e800ffff3700809fbe00415d8100105d8100c1
:1028f800808f50000300350000ba22000048eb002a
:1029080007003700405d8100515d8100e14078009b
:102918008180fb00a11188000000e800405d89006b
:1029280087e0a9004f00be0000400600809fbe005f
:10293800829fbe0060ba22001034a000225d810090
:10294800f1432000810f510007003e00215d810006
:10295800b3118000a275220003f178003242ab0067
:1029680003003a00030037001004a00012003700eb
:102978001014a0003222ab000200320060ba22001c
:102988001024a000205d81000000e800205d89007f
:10299800205d8100e40f500007003600215d8100b2
:1029a800a07522001080e800808f500002003a00d5
:1029b80060ba22001044a00087c0a9004f01be00e1
:1029c8004f00be0000400600809fbe00a14480006a
:1029d80090448000808f500003003500208b210038
:1029e8000048eb000700370041448000a044800005
:1029f800e14078008100fb00211188000000e80018
:102a0800a04488008580a9004f00be000040060051
:102a1800809fbe00829fbe00e00f230021c0b3004c
:102a280090cf100022003a00a08b21001034a000a3
:102a380072448000f1bf2000810f510007003e0062
:102a480071448000331180008289200003f17800ee
:102a58002242ab0003003a00030037001004a00034
:102a68004b0037001014a0002222ab0002003200f5
:102a7800a08b21001024a000704480000000e80012
:102a88007044880070448000e40f50004000360015
:102a980071448000808920001080e800808f5000f9
:102aa8003b003a00a08b21001044a00038003700fa
:102ab8006144800050448000808f500004003a0038
:102ac8008089200050448800504480006044880079
:102ad800604480003111800001487800709921001d
:102ae8001004e0001c0032006144800011417800ad
:102af800a1cc8000d3002b00e3c07800814f5100a7
:102b080011003a00a1cc80008100e800a1cc880027
:102b1800614480008100e80061448800a1cc800005
:102b2800e78f500017003a0081892000514488003f
:102b380051448000614488000048eb0011c0b30094
:102b4800609921000a0037000000eb00a0cc880043
:102b5800808920000a003700614480007049210004
:102b6800808f500004003a0011c0b300308b210060
:102b78000148780003003700604480000000e80046
:102b88006044880011c0b300008920000148780023
:102b98008560a9004f01be004f00be00004006003e
:102ba800809fbe00829fbe0011c0b30000172300a3
:102bb80001487800101723001004e00007003200d5
:102bc800928b8100a38b8100f0ff2f000100200071
:102bd800020040008380480004003700908b810089
:102be800a18b810061004000e0804800908b890043
:102bf800a18b89008460a9004f01be004f00be0070
:102c0800004006000000050003f0a200889fbe00f7
:102c18008a9fbe008c1f78008e0107009501330043
:102c28006450e1004f0032006420e100520032009d
:102c380003826c0007003b000905d0000306d000a2
:102c4800820f54000c065d000200390002003200b9
:102c580089017800030678008582550004003d004c
:102c68000003fd008103fd008502ea008b85420018
:102c7800840f720002003b0060001000e080180022
:102c88006011b8000005eb007a28e1000a0039005d
:102c980006007800c75ddd00f707b2008780750081
:102ca8002d003700828171000a01780061056000fb
:102cb8008180d1000080d3008502e900f9ff3b0044
:102cc800060440008784480002003b0060041400aa
:102cd800e0841c000988a300070032008a81710083
:102ce80082817100610164008904d1000884d300e5
:102cf8008b05e800170037000978a30013003a0095
:102d08000b00e000130034008b05e90008044400c0
:102d180089844c000a4474000978a3000d003a0025
:102d28000b00e000070034008b05e90008044400ac
:102d380089844c0001003a000b0020000978a300a8
:102d4800f7ff32000001eb000200370082817100ba
:102d58000a017800040107000cf0a70001f0a000a8
:102d68004d0137006420e10002003a00838f6c00b7
:102d78004d0133000801be000200be0046013700c5
:102d8800889fbe008a9fbe008c1f78003101070013
:102d98003801330003866c006450e1002e003200d5
:102da8006420e100330032006150e1002f0032005e
:102db8006120e1003100320085855500eb07b00045
:102dc800090020000804200005003700080444001a
:102dd80089844c000a0031000603430087834b00b6
:102de8000001530081815b00f8ff33000203be003d
:102df8000800a0000804440089844c00f6ff39004c
:102e0800c639dd0083017300010032001300200081
:102e18008904d1000884d3000998a3000500320072
:102e28000800a7000300a0008904d1000884d3008b
:102e38008b05e8008904d1000884d3000001eb0069
:102e48000281d200c800070001f0a1000cf0a70021
:102e580001f0a000100137006420e10012013200e7
:102e68000801be000200be00f7ff37006120e10044
:102e78000d0132006000b800f3ff370000002000a9
:102e880001f82700f0ff3700839f68000100e00089
:102e980002003d0060001000e08018000300e00020
:102ea80002003d0060011100e0811900bd0107002a
:102eb8004f00e00002003b0060001000e0801800b6
:102ec80000000600889fbe008a9fbe008c9fbe003f
:102ed8000004be00ca0007000800be006420e1002c
:102ee80048003e005500320072212700132b2400b1
:102ef8005800070047003c000800be00c2ec28004c
:102f0800e32c2c0051000700470035000800be00e4
:102f180001f0a10002002000033823004b00070045
:102f2800430035000800be00b2a32a0083fb23003b
:102f3800680107000200200003f0230001f0a70049
:102f480003f0a00031ff0700440007000005be00a1
:102f58007e00070001f0a2000006be000200280063
:102f680013f323005b0107000801be0027ff0700d9
:102f7800809fbe000c00be0032082800e3952b009d
:102f8800540107004f01be0020ff07000006be00e5
:102f98000001be004f010700809fbe00424125008e
:102fa80083b823004b0107000200200003e8230038
:102fb80016ff07000c01be00460107000006be0010
:102fc8004f00be00f2f92b00c3d4230041010700d3
:102fd8000200200003f023000cff07000c01be00d4
:102fe80009ff07000001be000c00be0064ff0700d7
:102ff8000200200003f0230004ff070061014500e0
:10300800ac0007004f06be004f05be004f04be00cf
:103018000000060001f8270000002000220220001e
:1030280002408800f7ff37006000b800fbff370058
:1030380001f8230000002000f2ff370009f8a30080
:10304800f0ff32006000b800eeff370014002000e7
:103058007c023700f4ff2f007a0237000001be001f
:10306800670007000470a70003f0a1006509b1001c
:10307800160032000d0035006828e1000600350012
:10308800f0ff2f00f1ff27000300e00013003b00d2
:103098000100280000000500000040008180480071
:1030a8008502e900fcff3a0008003700f88f42006b
:1030b80002003c008000eb00000005008100d10008
:1030c8000080d3008502e800fcff3a000300e0001e
:1030d80002003b0060001000e080180000000600bd
:1030e8000001be00460007000470a70003f0a1001d
:1030f80003f8a30013003a006509b100100032007c
:10310800090035006928e1000200350001002800a7
:103118000000050000004000818048008502e900a9
:10312800fcff3a0000000600f88f42000500350059
:103138008100d1000080d3008502e800fcff3a003e
:10314800000006008000eb00000005004f89de004b
:1031580082017800560237006011b8006402370017
:1031680004002000370237008100200061805500ec
:103178000b003d000b00200061fe2f000100e10064
:103188001d00340082817100610164008904d1004e
:103198000884d3000000e800faff3a00710020001c
:1031a8006100640003007000020060000900320042
:1031b80061044400e0844c000988a5000500320041
:1031c8008b05e8006808e10002003a008904d10094
:1031d8000884d300f20f20000258e10005003d00ea
:1031e800c75ddd00f907b200898075000800780026
:1031f800000006000bf827008b007800000005008f
:10320800c70ade00f107b200f50fb200080032006d
:10321800e1cf4200020032000170a0002400050046
:10322800810f700001003200040805004400050009
:10323800810f700002003a00140005008502e900c1
:103248000000400081c04800fcff3b000170a00066
:10325800240005000004be00e9ff07000003be00cb
:103268000405be000200be00e5ff0700844f75009c
:10327800000006000200be006450e10005003600b0
:103288006420e100020036000968a30001003a004a
:103298000800be000160a0004f0678004f05be0080
:1032a8004f04be0000000600f0ff2f00f1ff2700ca
:1032b800f9ff37000003be00d1ff07006220e100dc
:1032c800020032000600be00000006008502410030
:1032d800e30f20000328e10005003c00a3fe2f00b7
:1032e8000328e10007003d00050020000100370029
:1032f800f50f200020022000004088006000b80080
:1033080008003700130020008381520005003d00ab
:103318008100d1000080d3008301e800fcff3a005f
:1033280005002000c72add00f107b2008580700083
:1033380007f0a70001f0a00000000600889fbe006b
:103348008a9fbe008c9fbe00b101070085047800eb
:103358000005be006420e10049003e006220e10053
:1033680003003200090035000bf8a30044003200c6
:103378000bf8a3000800320010022000004088006b
:10338800f0ff2f00f1ff27003d00370001f82f0064
:10339800000020003a0037003d0007001afe070031
:1033a8000006be000a00be00324f200053f323007f
:1033b80028ff0700060034000c00be003400070098
:1033c80011fe07000006be000a00be00020037001a
:1033d8008904e9000c00be002d0007003d0007002d
:1033e8002b00070009fe07000001be000c00be000c
:1033f80063fe07000005be000001be00350007009f
:103408000006be00a2f32300430d2c00fffd0700b9
:10341800809fbe000c00be00d2e32700d3f02b0033
:103428002c0007004f01be0055fe07000006be0035
:103438000a01be00270007000a01be00f3fd0700cd
:103448000006be006148b90040ff07000005be0045
:1034580032082800e3952b001e0007000c01be006f
:10346800eafd07000006be000a00be0002002800b0
:1034780013f32300170007000c01be00e3fd07004b
:103488004f06be004f05be004f04be0000000600f8
:1034980003f0230002000500811f78000100e0000e
:1034a80002003d0060001000e08018000300e0000a
:1034b80002003d0060011100e08119004900070089
:1034c8004f00e00002003b0060001000e0801800a0
:1034d80000000600889fbe008a9fbe008c1f7800ef
:1034e8005cff070063ff330003866c006450e10053
:1034f800240032006420e100270032006150e1001e
:10350800220032006120e100210032008b85420058
:10351800eb07b1000134b800003ab80008044200d3
:1035280089844a00013ab8000030b8008880400019
:1035380009014a000400330000004000818048006f
:10354800020149008b05e900c909dd00830170000b
:103558000100320013002000c814de004814dd000a
:103568004709de001200b200c808de0008847000b7
:10357800fdfe070001f0a1000cf0a70001f0a0007b
:1035880045ff37006120e10047ff32000801be0017
:103598000200be00f7ff37006150e100fcff3a006f
:1035a80041ff37006022b800060220000000d0006a
:1035b8008180d2000482d2008582d2000000a0005f
:1035c8000202520083825a000300310002024200c4
:1035d80083824a000000a1000603e900f3ff3a00d5
:1035e80000000600efff07000400be000000060010
:1035f800020ab900001bb9000200b80081004200ad
:103608008100430000000600889fbe008a9fbe001c
:1036180030044200b0844a0030054b0090854b00ce
:103628006000b1000898be000a90be000440e100a6
:1036380005c8e10006d0e10007d8e100020031002a
:10364800680040001008e8004f05be004f04be00a7
:1036580000000600889fbe008a9fbe003004be009e
:103668002005be000418540005985c0006185d008b
:1036780007985d00110020000440e10005c8e10042
:1036880006d0e10007d8e100010039008000eb0016
:10369800108810004f05be004f04be000000060051
:1036a8001200fa00889fbe008a9fbe008c9fbe0051
:1036b800e0b79f00f1b79f0082bf9f0093bf9f00b4
:1036c8000605be000404be000000eb00d0b79f0052
:1036d800c0b79f00b0b79f00a0b79f0090b79f00ea
:1036e8000006eb005fb19700cfb097008201410060
:1036f8003fb097000200e00004003d0037000700db
:103708007e805700c0ff0700030037003300070022
:103718007e805700cfff0700dfb697000d00e0005e
:103728000c0035006fb29700ffb297000fbb9700ef
:103738009fbb970010002000010020006011b80016
:103748000002720081827200020373008383730097
:103758001b0007000c06e80001042000810f56003a
:10376800e0ff3a000d00e00004003d000802be0042
:103778000a03be007e805700a3ff07005fa89700da
:103788000000e00005003a001fb29700afb29700b2
:103798003fb39700cfb39700090007006fb09700b9
:1037a800ffb097000fb997009fb997004f06be006a
:1037b8004f05be004f04be000080fa00000006005e
:1037c8000100070000000600a4b79f00b5b79f00de
:1037d800c6b79f00d7b79f00000006004f09de005c
:1037e80082817100b3b79f004f01de0081804000e5
:1037f80082807000a1b79f008fb097004f09de004c
:10380800000040000200700090b79f007fa897005a
:103818004f01de00818040008280700081b79f00e8
:103828000d0007004f3ade00000040000400700061
:10383800f0af9f00080007000402420085824a009a
:1038480006034b0087834b00dfff07000802be001a
:103858000a03be00000006002fb29700bfb297000f
:103868004fb39700dfb3970000000600881f780069
:1038780018002000881f780089ff07008f87e9005b
:103888004f04780000000600801feb0084ff07004b
:103898008f87e90000000600889fbe008a9fbe004f
:1038a800e00f5000e08f5800e00f5900e08f5900fa
:1038b8000c003d006044b8006055b800000054009a
:1038c80081805c0002015d0083815d00180020009a
:1038d8001500070008003d00180007000004eb0071
:1038e800050037000004eb000f00070002003d0050
:1038f8001200070018002000dcff07000800e000a5
:10390800060032006022b8006033b80000005200a0
:1039180081805a0002015b0083815b004f05be0075
:103928004f04be0000000600e00f5200e08f5a006e
:10393800e00f5b00e08f5b00000006006044b80009
:103948006055b8000402540085825c0006035d00df
:1039580087835d0000000600889fbe008a9fbe0026
:103968008c1f7800e00f5000e08f5800e00f5900de
:10397800e08f59000d003d006044b8006055b80064
:103988000000540081805c0002015d0083815d00bd
:103998001c0020000820e10009a8e1000ab0e100ad
:1039a8000bb8e1000d003d00080037000006eb00f1
:1039b800e00f5200e08f5a00e00f5b00e08f5b00e1
:1039c80006003d006044b8006055b8000402540089
:1039d80085825c0006035d0087835d00aaff0700ff
:1039e8000c00e000060032006022b8006033b80026
:1039f8000000520081805a0002015b0083815b0055
:103a08004f0678004f05be004f04be0000000600b8
:103a18000003be00fafd07006220e1000200320048
:103a28000600be0005000500e507b100f107b20079
:103a380004f023008480700007f0a70001f0a000c4
:103a480024000500889fbe008a9fbe00841f78005e
:103a580000fe07004f00780011003300f0ff2f0030
:103a6800838f6c0006003b00040565000a00a70070
:103a78000800370009f0a6001000200008003700f1
:103a8800820f5400838f5c0003003900100020006f
:103a980001003e000000200009f0a7000000ea0035
:103aa8004f05be004f04be000000e0000000060005
:103ab800881f7800030478000300e00007003d0039
:103ac80060001000e080180060011900e081190012
:103ad80002003b0001f02d0003003700040007003e
:103ae80008f0a70001f0a0004f04780000000600cd
:103af800889fbe008a9fbe00008270000402710089
:103b080004827100260032000004be000200be00dc
:103b18006011b8006b092000950220000182cf00d7
:103b28000a0039000541b1000082cf0007003900c2
:103b38000541b1000982cf00040039000541b100f8
:103b48000882cf00010039000541b100054252004a
:103b5800120032000a003b0082817100610164009a
:103b68008100d1000080d3008984d3000884d30069
:103b78008b05e8000442e800f7ff3a000700370029
:103b88000804440089844c000000480081804800f3
:103b98008b05e9000442e900f9ff3a0072fd0700cd
:103ba8004f05be004f04be000000060009003700a4
:103bb80030427800b1417800834f5200040032004f
:103bc80010002000060031000080eb000000060015
:103bd8000201e9000200e000f5ff3a000000eb00f6
:103be800000006008001780002003700b159780013
:103bf8000201e9000200e000fcff3a0000000600b4
:103c080000017800b1417800035978000304e0000e
:103c1800fcff3a00000006008000780001017800ef
:103c28003104e000fdff3a000000510000000600ea
:103c38000c003700b0417800b1cf510006003200c7
:103c4800100020009542780094cf52000b003100fc
:103c58000080eb00000006000304e00006003200cc
:103c68000201e90001027800800278000200e00009
:103c7800f0ff3a00000005000000eb00000006001d
:103c8800881f78000204780008017800d5ff070033
:103c9800080040004f047800000006000000fa0009
:103ca800881f780000047800ea8157003fb9970020
:103cb8008800780040e42100070007000000e000c9
:103cc800020035008040eb00017478004f04780052
:103cd8000080fa00000006006200fa00889fbe001b
:103ce8008a1f7800000578008104780002047800b3
:103cf8008300780080f92f000f004000d4030700ec
:103d08009a979f00a9979f000000eb00b09f9f0023
:103d18001885fb008a04fb000a05ea004f55de00ff
:103d280050022000808f54000d003200e10f550032
:103d38000b003a000a017800880078002f9097005d
:103d48009f91970003000100a0979f000000e000ea
:103d58008e0032003f9897000000e800b09f9f0057
:103d68000a04440050022000808f540004003200ee
:103d78000900e000e6ff3a003f989700840037000a
:103d88000000eb00909f9f00809f9f00f0979f008e
:103d9800e0979f00d0979f00c0979f0007003700cb
:103da800a11323000100500000004000e11223008d
:103db80061007800df98970001007000d09f9f0095
:103dc8008804780009047800384578008a00fb00e8
:103dd800a0132300a70107000000e000f0ff3a004d
:103de800a1c2b300814f55000e003a00cf8897005a
:103df8000180e900c08f9f0010007800c09f9f00dd
:103e08000000e00005003d000000ea00c09f9f00a0
:103e18005f9897000020a000d09f9f000904e80049
:103e28000f003700c09f9f000000eb00050037001f
:103e3800f2ff2700820f5000020032006a01b90029
:103e4800028040000904780088047800b900fb006b
:103e58000103b100e98f5000f5ff3600c09f9f00b5
:103e6800e0c2b300984f1000020032000080eb005f
:103e780019003700a0c2b300d84f100007003a005d
:103e8800cf8897000180e900c08f9f00100078005c
:103e9800a09f9f000804e800100037000000eb0016
:103ea800a09f9f008800780005003700f3ff2700d7
:103eb800830f5000020032006a02b900040041007a
:103ec80001047800880078003101fb000203b1008a
:103ed800e90f5100f5ff3600a09f9f009844780035
:103ee8008900fb0060122300620107000000e00067
:103ef800020032000804e800010037008044eb00ab
:103f0800c97f9f0080c6b30080cf540004003a00e8
:103f180098cf14000a003a006640500006003700a7
:103f2800c0c6b30080cf540005003a0098cf1400f3
:103f380003003a0065404000c07f9f000804e80085
:103f48001801fb00e3fb2f008f81410081f92f004e
:103f58008f804000a0f92f000f00400010000700dc
:103f68000000e00009003a00e1fb2f008f804000cc
:103f7800a0f92f000f004000790207000000e000c0
:103f8800020035000804e80061ff37000080eb00fc
:103f98004f0578004f04be000080fa0000000600bc
:103fa800889fbe008a1f780000047800e0c6b3002e
:103fb800804f5100c100320015003c006b4050009a
:103fc800804f5100240032000a003c00704050002d
:103fd800804f5100fa00320065404000804f510088
:103fe8006800320050c2b300804f51000b013a0004
:103ff8000701370040c6b300804f51001b00320054
:1040080065404000804f510004013a001700370016
:1040180030c7b300804f5100e900320007003c0070
:1040280064405000804f5100560032000040e800c4
:10403800804f5100f9003a00d300370050c7b30051
:10404800804f51004f00320063404000804f5100c4
:10405800f2003a004b0037001181e900820878002d
:104068007800900012417800ea003700286090003c
:10407800c4c6b300844f500007003a00110278000c
:1040880064005200800878001002be004fabde00ca
:10409800860378001100370014c7b300844f50001e
:1040a80003003200a4c6b300844f500006003a0053
:1040b8001102780068005200800878003002be00c3
:1040c8002003be00050037001180e9008008780051
:1040d80010027800cfa2de00612bb900049cbe005c
:1040e8000694be002860900081c6b300814f50003e
:1040f8000d00320021c6b300814f500004003a0081
:104108000402fb00cfa2de00612bb90008003700d3
:1041180041c7b300814f500003003200e6c04000a1
:10412800814f500004003a00cfa2de00612bb90095
:10413800049cbe000694be003802be002803be00e0
:1041480078009000d1c2b300e00f5200e08f5a000f
:10415800e00f5b00e08f5b000800350088109000de
:104168000118a30002003200b1c2b30003003700f7
:104178000108a3004c00320001c2b300817178002d
:104188004700370028609000c4c6b300844f500031
:1041980006003a0011027800640052008008780096
:1041a8001002be006033b8001100370014c7b30016
:1041b800844f500003003200a4c6b300844f50005f
:1041c80006003a0011027800680052008008780062
:1041d8003002be002003be00050037001180e90050
:1041e80080087800100278008002eb006033b80085
:1041f800049cbe000694be002860900081c6b300ef
:10420800814f50000d00320021c6b300814f50008d
:1042180004003a000482fb008002eb006033b8001f
:104228000800370041c7b300814f50000300320037
:10423800e6c04000814f500004003a008002eb00c5
:104248006033b800049cbe000694be0008109000bd
:104258000038a300140032003802be002803be0054
:10426800e00f5200e08f5a00e00f5b00e08f5b0028
:104278000d00320080c7b300804f510003003200a8
:1042880080c5b300804f510007003a0078009000c5
:1042980001c3b300817178000000e80082717800e2
:1042a8000000e800700498007800900080814100c8
:1042b80063049800824078003e003700286190002f
:1042c800c3c6b3001180e900834f510022003200b9
:1042d8000a003c00e4c15100834f51002500320020
:1042e80083c1e800834f510013003200e8c1510038
:1042f800834f51001e003a000a00370043c7b3003d
:10430800834f51001b003200e6c14100834f51002a
:1043180018003200e9c15100834f510014003a00df
:10432800050037008008780010007800485c90008d
:1043380008487800410037008008780010007800ad
:10434800680a9000cfa2de00612bb9000498be0075
:104358000690be0039003700800878001000780009
:1043680068099000cf91de000288be003300370054
:104378001180e9008008780010007800680c90002f
:10438800080878002d0037001180e90080087800bf
:1043980010027800cfa2de00612bb900049cbe0099
:1043a8000694be0078009000808141006304980064
:1043b80081c7b300080078003a0007001f003700e3
:1043c8001180e90080087800100578006a049800d8
:1043d800d80c90000900e00004003d000a007800b5
:1043e8000dfe0700800478000700370009017800f7
:1043f8008000eb000a007800140007000000e000cd
:10440800010032008a045000190c98000b00370094
:1044180078009000827178000600370078009000dc
:10442800808141000204e00001003a0052c2b3005a
:10443800824978000000e800700498000000eb0052
:104448004f0578004f04be00000006000300370047
:10445800b0cf1000050032000201e90080017800a9
:104468000200e000faff3a000000050003007800af
:1044780000000600020037000304e00006003200d6
:104488000001780002007800b041780081cf510027
:10449800f9ff3a00010037000001eb000200780044
:1044a80000000600fc874700889fbe008a9fbe0068
:1044b8008c9fbe008e1f78000006780080c5b30070
:1044c80080cf50000a0032007740400080cf500073
:1044d8000a0032006940400080cf50000b003200d3
:1044e8005011230080bf9f00ae0020000a00370053
:1044f8004210230082bf9f0006003700531123009b
:1045080083bf9f008e002000030037005411230052
:1045180084bf9f000e0120003c02be002c03be0099
:104528000605be000404be0040c6b30080cf50009c
:10453800030032006540400080cf50000b003a0075
:10454800e00f5200e08f5a00e00f5b00e08f5b0045
:1045580006003d006000b8006011b8000404500077
:10456800858458000605590087855900e80f5700cb
:104578000400320040002000f00f570038003a00d5
:104588000100370030002000e00f5400e08f5c008d
:10459800e00f5d00e08f5d0004003a00dc08900049
:1045a8008d0120000100e000060032008e00e900c5
:1045b800888060008fba9700e5c07800f1ef9f000f
:1045c8007d012000800078008100e90005003300ab
:1045d8008b05d1000a85d3008984d3000884d300d1
:1045e800f9ff3700089ebe000a96be001200370089
:1045f8008d06e9008e00e900848060000fb99700fd
:10460800e2c1780082fd2f000f01410003f17e0016
:10461800800078008100e900050033008783d1001d
:104628000683d3008582d3000482d300f9ff3700c4
:10463800049ebe000696be003c02be002c03be00cf
:10464800e00f5200e08f5a00e00f5b00e08f5b0044
:104658008b0034000d00e000e5ff3c0088003700c7
:104668002c60900081c6b300814f50000b003200cf
:1046780006003c000004e00008003200e6c05000dc
:10468800814f50004e003a0004003700c1c6b30005
:10469800814f50004a003a00210037000800e0002e
:1046a80004003a005c0890008d0120000000e00042
:1046b80006003200110009000e84d8000fb99700d7
:1046c800e2c07800f1ef9f007d0120001100090091
:1046d8000e84d8000a003700110009000e04d80023
:1046e8008d06e9000e81b900020454008fb89700c6
:1046f80061417c0081fd2f008f80400082f07e00a8
:10470800000478000800e000020032000d00e0001c
:10471800f1ff3c00cfc4de00614db9002500370031
:10472800e00f5400e08f5c0004003a005c08900041
:104738008d0120000000e000070032006171b9001f
:104748000800be00a7fb07008fb99700e341780077
:10475800f3ef9f007d0120006171b9000800be00e1
:1047680090fb07000b0037006171b9000800be001c
:10477800c5f907008d06e90000f1b90002045400ec
:104788000fba9700e4427c0084fd2f000f0242001c
:1047980005f27e000004be00e00f5000e08f5800d4
:1047a800020032000d00e000efff3c004fcdde00bc
:1047b8008a057800089ebe000a96be0030003700c1
:1047c800e00f5400e08f5c00e00f5d00e08f5d00bb
:1047d80004003a005c0890008d0120000000e00011
:1047e800090032006172b900612bb9000800be00ef
:1047f8000a01be0024fc07000fba97006442780043
:10480800f4ef9f007d0120006172b900612bb900af
:104818000800be000a01be0014fc07000d003700a6
:104828006172b900612bb9000800be000a01be0020
:1048380019fc07008d06e90000f2b90004045400d1
:104848008fba970065427c0085fd2f008f82420059
:1048580084f27e00009ebe000296be003c04be00ac
:104868002c05be00e00f5400e08f5c00e00f5d00f7
:10487800e08f5d00020034000d00e000e8ff3c001e
:10488800e80f570010003a000c1090000038a30001
:104898000d003200f78f560006003e0085fd2f0000
:1048a8008f824200e5c07e0000c3b30080cf500075
:1048b800050032008d06e90002c3b30081fd2f0018
:1048c8008f80400082f07e0078811600120e9800da
:1048d8006c00900083fd2f008f8141008d80410086
:1048e800c0fc07001c089000dc089000810f5000f5
:1048f80006003d0000805000000e98000c1090004b
:104908000040a100001698000f0037000100e000e9
:104918000d003d008c109000f4806000f08f500076
:1049280009003a007c099000fc00900081005100c9
:104938000c09900082805000008050004240a9007d
:1049480001003400000e98004f0778004f06be00a3
:104958004f05be004f04be00cf01b10000000600a5
:104968000400fa00889fbe008a9fbe008c1f780052
:104978000004780001067800f80d90007800900097
:10498800808555000808900080855500180890001b
:1049980080855500280890008085550038089000cb
:1049a8008085550048089000808555000002220047
:1049b80090bf9f0000032300a0bf9f000810900035
:1049c8000028a30015003a000b00e0001300340093
:1049d8000b0578008a047800e20f550001003600c4
:1049e80029002000c801900009017800ee805700d6
:1049f8005800900003000100500498000000e000f7
:104a08008c0032006808900009004000600c980093
:104a1800090555004240a900eeff3c0078019000ce
:104a28000200e0000c003400c80190008c007800ff
:104a38005800900003000100500498008080eb00ab
:104a48000000e0007c003200e80890007800900048
:104a580000804000600c9800880c90000900e0007d
:104a68001100340009057800e28f54000100360077
:104a78002a002000c80190000a017800ec80570045
:104a88005800900003000100500498000000e00066
:104a980068003200680890000a004000600c980026
:104aa8008a845400edff3700180990000200e000e6
:104ab8000c003400c8019000e800900058009000f5
:104ac80003000100500498008080eb000000e00023
:104ad80059003200e8089000180890000080400053
:104ae800600c9800a80c90000900e0001100340048
:104af80009057800e28f5400010036002a002000e2
:104b0800c80190000a017800ec8057005800900016
:104b180003000100500498000000e0004500320046
:104b2800680890000a004000600c98008a845400cd
:104b3800edff3700380990000200e0000e00340055
:104b4800e80090001808900080804000c80190009c
:104b58005800900003000100500498008080eb008a
:104b68000000e00034003200e808900038089000a7
:104b780000804000600c9800c80c90000900e0001c
:104b88001100340009057800e28f54000100360056
:104b98002a002000c80190000a017800ec80570024
:104ba8005800900003000100500498000000e00045
:104bb80020003200680890000a004000600c98004d
:104bc8008a845400edff3700081090008000eb0045
:104bd8000028a300180032000b00e0001600340083
:104be8008b04780009057800e28f54000100360034
:104bf8002a002000c80190000a017800ee805700c2
:104c08005800900003000100500498000000e000e4
:104c180008003200680890000a004000600c980004
:104c28008a8454004240a900eeff3c008000eb005b
:104c3800010037008080eb00010078004f06780003
:104c48004f05be004f04be000080fa0000000600b9
:084c58000108780000000600cd
:020000040000fa
:104c60006207000065070000670700006a07000090
:104c70006c0700006f070000710700007407000058
:104c800076070000790700007b0700007e07000020
:104c900080070000830700008507000088070000e8
:104ca0008a0700008d0700008f07000092070000b0
:104cb0009407000097070000990700009c07000078
:104cc0009e070000a1070000a3070000a607000040
:104cd000a8070000ab070000ad070000b007000008
:104ce000b2070000b5070000b7070000ba070000d0
:104cf000bc070000bf070000c1070000c407000098
:104d0000c6070000c9070000cb070000ce0700005f
:104d1000d0070000d3070000d5070000d807000027
:104d2000da070000dd070000df070000e2070000ef
:104d3000e4070000e7070000e9070000ec070000b7
:104d4000ee070000f1070000f3070000f60700007f
:104d5000f8070000fb070000fd0700000008000046
:104d60000208000005080000070800000a0800000b
:104d70000c0800000f0800001108000014080000d3
:104d800016080000190800001b0800001e0800009b
:104d90002008000023080000250800002808000063
:104da0002a0800002d0800002f080000320800002b
:104db0003408000037080000390800003c080000f3
:104dc0003e080000410800004308000046080000bb
:104dd000480800004a0800004d0800004f08000085
:104de000520800005408000057080000590800004d
:104df0005c080000090800000b0800000e08000015
:104e0000110800001408000016080000190800002e
:104e10001c0800001e0800002108000024080000f3
:104e200026080000290800002c0800002e080000b9
:104e3000310800003408000036080000390800007e
:104e40003c0800003e080000410800004408000043
:104e500047080000490800004c0800004f08000007
:104e600051080000540800005708000059080000cd
:104e70005c0800005f080000610800006408000092
:104e800067080000690800006c0800006f08000057
:104e90007208000074080000770800007a0800001b
:104ea0007c0800007f0800008208000084080000e1
:104eb000870800008a0800008c0800008f080000a6
:104ec0009208000094080000970800009a0800006b
:104ed0009c0800009f080000a2080000a508000030
:104ee000a7080000aa080000ad080000af080000f5
:104ef000b2080000b5080000b7080000ba080000ba
:104f0000bd080000bf080000c2080000c50800007e
:104f1000c7080000ca080000cd080000cf08000044
:104f2000d2080000d4080000d8080000db08000008
:104f3000de080000e1080000e4080000e8080000c6
:104f4000ec080000f2080000f90800000309000066
:104f50000d0900001e090000360900005909000073
:104f60007e090000a3090000c2090000da09000060
:104f7000ec090000fc0900000a0a0000170a000002
:104f8000210a0000280a000041080000440800002f
:104f900046080000490800004c0800004e080000c8
:104fa000510800005408000057080000590800008c
:104fb0005c0800005f080000610800006408000051
:104fc00067080000690800006c0800006f08000016
:104fd00071080000740800007708000079080000dc
:104fe0007c0800007f0800008108000084080000a1
:104ff000870800008a0800008c0800008f08000065
:105000009208000094080000970800009a08000029
:105010009c0800009f080000a2080000a4080000ef
:10502000a7080000aa080000ac080000af080000b4
:10503000b2080000b5080000b7080000ba08000078
:10504000bd080000bf080000c2080000c50800003d
:10505000c7080000ca080000cd080000cf08000003
:10506000d2080000d5080000d7080000da080000c8
:10507000dd080000df080000e2080000e50800008d
:10508000e8080000ea080000ed080000f008000051
:10509000f2080000f5080000f8080000fa08000017
:1050a000fd080000000900000209000005090000d9
:1050b00007090000090900000c0900000e090000a2
:1050c0001009000014090000180900001f09000061
:1050d0002609000032090000420900005a090000b8
:1050e0007e090000a7090000c7090000e1090000cf
:1050f000f6090000080a0000190a0000260a00004c
:10510000300a0000390a0000410a0000490a000084
:10511000510a0000590a00005f0a000076080000ea
:10512000780800007b0800007e080000800800006e
:105130008308000086080000880800008b08000033
:105140008e080000900800009308000096080000f8
:10515000980800009b0800009e080000a1080000bd
:10516000a3080000a6080000a9080000ab08000082
:10517000ae080000b1080000b3080000b608000047
:10518000b9080000bb080000be080000c10800000c
:10519000c3080000c6080000c9080000cb080000d2
:1051a000ce080000d1080000d4080000d608000096
:1051b000d9080000dc080000de080000e10800005b
:1051c000e4080000e6080000e9080000ec08000020
:1051d000ee080000f1080000f4080000f6080000e6
:1051e000f9080000fc080000fe08000001090000aa
:1051f0000409000007090000090900000c0900006b
:105200000f0900001109000014090000170900002f
:10521000190900001c0900001f09000021090000f5
:105220002409000027090000290900002c090000ba
:105230002f0900003209000034090000370900007e
:10524000390900003b0900003d0900004009000049
:1052500044090000480900004d09000055090000fc
:10526000600900006f09000089090000a40900001e
:10527000be090000d6090000ec090000000a000089
:10528000160a00002a0a0000370a0000410a00003e
:105290004b0a0000550a00005f0a0000660a000081
:1052a0006e0a0000730a0000780a00007d0a000000
:1052b0009b0800009e080000a0080000a308000052
:1052c000a6080000a8080000ab080000ae08000017
:1052d000b1080000b3080000b6080000b9080000db
:1052e000bb080000be080000c1080000c3080000a1
:1052f000c6080000c9080000cb080000ce08000066
:10530000d1080000d3080000d6080000d90800002a
:10531000db080000de080000e1080000e4080000ef
:10532000e6080000e9080000ec080000ee080000b4
:10533000f1080000f4080000f6080000f908000079
:10534000fc080000fe08000001090000040900003c
:1053500006090000090900000c0900000f090000ff
:1053600011090000140900001709000019090000c4
:105370001c0900001f090000210900002409000089
:1053800027090000290900002c0900002f0900004e
:105390003109000034090000370900003909000014
:1053a0003c0900003f0900004209000043090000d9
:1053b0004509000047090000490900004b090000a9
:1053c0004d0900004f090000510900005309000079
:1053d00055090000570900005b0900006009000042
:1053e000680900006f0900007909000088090000c1
:1053f00097090000ab090000ca090000e809000095
:10540000050a00001f0a0000350a0000460a0000d5
:10541000540a00005f0a0000690a0000710a0000d7
:105420007b0a0000840a00008c0a0000930a000036
:10543000990a00009e0a0000a20a0000a50a0000c6
:10544000a80a0000b7080000ba080000bd08000064
:10545000bf080000c2080000c5080000c70800001f
:10546000ca080000cd080000cf080000d2080000e4
:10547000d5080000d7080000da080000dd080000a9
:10548000df080000e2080000e5080000e70800006f
:10549000ea080000ed080000f0080000f208000033
:1054a000f5080000f8080000fa080000fd080000f8
:1054b00000090000020900000509000008090000b9
:1054c0000a0900000d09000010090000120900007f
:1054d00015090000180900001b0900001d09000043
:1054e0002009000023090000250900002809000008
:1054f0002b0900002d0900003009000033090000cd
:1055000035090000380900003b0900003d09000092
:105510004009000043090000450900004809000057
:105520004b0900004e09000050090000530900001b
:1055300056090000580900005b0900005d090000e1
:1055400060090000630900006509000067090000a8
:10555000690900006b0900006e0900007109000074
:105560007309000076090000780900007a0900003c
:105570007e0900008809000097090000a6090000c4
:10558000ba090000d3090000f70900001c0a000056
:105590003e0a00005b0a0000720a0000800a000058
:1055a0008b0a0000960a00009d0a0000a40a000071
:1055b000aa0a0000b00a0000b80a0000bf0a0000f2
:1055c000c60a0000cb0a0000ce0a0000d10a000083
:1055d000d30a0000d40a0000cc080000ce08000066
:1055e000d1080000d4080000d7080000d908000046
:1055f000dc080000df080000e1080000e40800000b
:10560000e7080000e9080000ec080000ef080000cf
:10561000f1080000f4080000f7080000f908000095
:10562000fc080000ff080000010900000409000058
:10563000070900000a0900000c0900000f0900001a
:105640001209000014090000170900001a090000df
:105650001c0900001f0900002209000024090000a5
:10566000270900002a0900002c0900002f0900006a
:105670003209000035090000370900003a0900002e
:105680003d0900003f0900004209000045090000f3
:10569000470900004a0900004d0900004f090000b9
:1056a0005209000055090000570900005a0900007e
:1056b0005d0900005f090000620900006509000043
:1056c000680900006b0900006e0900007109000004
:1056d00073090000750900007709000079090000ce
:1056e0007b0900007d0900007f090000810900009e
:1056f00083090000860900008c090000920900005f
:1057000097090000a1090000ad090000ba090000d6
:10571000d3090000ec090000050a0000300a00006f
:10572000550a0000780a0000940a0000ab0a000045
:10573000ba0a0000c50a0000d00a0000d70a00001b
:10574000dd0a0000e30a0000e50a0000ea0a0000a2
:10575000ee0a0000f00a0000f20a0000f40a00005d
:10576000f70a0000f90a0000fa0a0000f508000034
:10577000f8080000fa080000fd0800000009000019
:105780000209000005090000080900000b090000db
:105790000d090000100900001309000015090000a0
:1057a000180900001b0900001d0900002009000065
:1057b0002309000025090000280900002b0900002a
:1057c0002d090000300900003309000035090000f0
:1057d000380900003b0900003e09000040090000b4
:1057e0004309000046090000480900004b09000079
:1057f0004e0900005009000053090000560900003e
:10580000580900005b0900005e0900006009000003
:105810006309000066090000690900006b090000c7
:105820006e0900007109000073090000760900008c
:10583000780900007a0900007c0900007e09000058
:105840008009000082090000840900008609000028
:10585000880900008a0900008c0900008e090000f8
:1058600090090000920900009309000095090000ca
:10587000970900009c090000a1090000a60900008a
:10588000ab090000b0090000ba090000c40900001b
:10589000d5090000e2090000f1090000070a000034
:1058a000170a0000320a00005a0a0000780a0000b5
:1058b0008b0a0000a50a0000be0a0000d10a000001
:1058c000e00a0000ea0a0000f10a0000f80a0000fd
:1058d000fc0a0000000b0000040b0000090b000094
:1058e000100b0000140b0000180b00001a0b000036
:1058f0001a0b00001c0b00001e0b00001f0b000009
:105900000d0d00000a0000000d0d00000a0d000042
:105910000a4f00004b0d00000a0000000d0a0000b5
:105920000d0a00004f4b00000d0a0000002500008a
:10593000733d000031000000257300003d31000080
:105940002c31000000250000733d000030000000f5
:10595000257300003d3100002c3900003330000079
:1059600038000000257300003d3300003030000097
:105970000043000057410000555400004f43000011
:105980004f4e00004e3d0000300000004357000025
:105990004a410000505f000043550000523d0000a6
:1059a00022410000635400005f5400004849000099
:1059b0004b5f00004e4b0000434d0000524300007f
:1059c000222c000022740000686900006b72000045
:1059d000616c00006c610000687300006872000078
:1059e000656100006822000000250000733d000092
:1059f00022250000732200002c22000025730000e5
:105a0000220000004c6f0000636100006c22000067
:105a100000250000733d00002225000073250000d2
:105a2000732c000022250000732500007300000085
:105a3000257300003d3100002c310000323700009a
:105a400000250000733d00002225000073220000a5
:105a500000250000733d0000312c000022320000c0
:105a6000303900002e320000343400002e300000a7
:105a70002e33000022000000257300003d3100009d
:105a80002c220000382e0000382e0000382e000096
:105a90003822000000250000733d0000312c00007a
:105aa00022320000303800002e360000372e000071
:105ab00032320000302e000032320000302200006e
:105ac00000250000733d0000312c00002231000051
:105ad000393500002e340000362e00003339000026
:105ae0002e3300003922000000250000733d000025
:105af000312c0000223100002e3100002e31000038
:105b00002e31000022000000257300003f0000003d
:105b1000257300003d250000752c00002575000050
:105b200000250000733d0000257500002c220000b8
:105b300054430000502200002c2200002573000076
:105b4000222c000025750000004300004950000091
:105b5000434c00004f530000453d000025750000f8
:105b6000004300004950000053540000415f000012
:105b700043550000523f0000004700004d52000016
:105b8000004300004950000053540000414d000004
:105b9000414300005f430000555200003f000000f9
:105ba0000d0a00002b490000504400002c000000aa
:105bb00045520000524f0000520d00000a00000044
:105bc0004f4b00000d0a0000002b0000434900006d
:105bd00050530000544100005f4300005552000044
:105be0003a0000006e650000746d000061730000f3
:105bf0006b3a000022000000697000003a220000a9
:105c000000670000617400006577000061790000a2
:105c10003a220000004400004e53000020460000dd
:105c2000616900006c0d00000a0d00000a00000010
:105c30005354000041540000555300003a00000046
:105c40002b43000049500000535400004154000011
:105c5000555300003a0000000d0a00005265000094
:105c600063760000202500006420000062790000b7
:105c700074650000730d00000a0000000d0a0000aa
:105c8000534500004e440000204f00004b0d000023
:105c90000a0000000d0a0000627500007379000020
:105ca000207300002e2e00002e0d00000a000000c0
:105cb0000d0a0000534500004e440000204600003d
:105cc000414900004c0d00000a0000000d0a0000d0
:105cd0004f4b00000d0a00003e200000006c000049
:105ce000696e00006b20000069730000206e0000e8
:105cf0006f74000020760000616c00006964000091
:105d00000d0a0000004e00006f200000415000000e
:105d10000d0a0000002b0000435700004a4100001c
:105d2000505f000043550000523a0000220000007e
:105d30002b430000574a0000415000003a00000089
:105d40000d0a00000d0a000046410000494c000009
:105d50000d0a0000005700004946000049200000dd
:105d6000474f000054200000495000000d0a000079
:105d7000005700004946000049200000434f000042
:105d80004e4e00004543000054450000440d000005
:105d90000a0000002b430000574c00004150000057
:105da0003a28000000410000635400005f540000e6
:105db000484900004b5f00004e4b0000434d00007f
:105dc00052430000003100002e3400002e3000004d
:105dd0002e300000003100002e3500002e30000073
:105de0002e300000003100002e3600002e30000062
:105df0002e300000003000002e350000302e000054
:105e0000302e0000300000002b43000049500000fd
:105e100053540000414d0000414300005f43000027
:105e2000555200003a000000415400002076000066
:105e300065720000736900006f6e00003a00000098
:105e40005749000046490000204400004953000023
:105e5000434f00004e4e000045430000540d00002b
:105e60000a0000002b490000504400002c000000f4
:105e70002c4300004c4f000053450000440d00002f
:105e80000a0000002c4300004f4e00004e45000069
:105e90004354000020460000616900006c6500006a
:105ea000640d00000a0000002c4300004f4e00006b
:105eb0004e450000435400002046000041490000c8
:105ec0004c0d00000a0000002c4300004f4e000063
:105ed0004e450000435400000d0a00000030000051
:105ee0002e3000002e3000002e3000000025000073
:105ef000730000005253000054000000435700009c
:105f00004d4f0000444500005f4300005552000023
:105f100000430000495000004d55000058000000ab
:105f20004349000050530000455200005645000010
:105f3000520000004349000050530000544f00003d
:105f400000430000574a0000415000005f4300003a
:105f50005552000000430000574c00004150000023
:105f60000043000057510000415000000043000072
:105f700049500000534500004e440000004300001b
:105f80004950000053540000415400005553000094
:105f900000430000495000005354000041520000eb
:105fa00054000000435700004448000043500000e4
:105fb0005f430000555200000043000049500000bc
:105fc000444900004e4600004f00000043490000d5
:105fd000504d00004f4400004500000043570000b2
:105fe0004c410000504f000050540000004300009e
:105ff000574800004f530000544e0000414d000030
:106000004500000043490000504400004e5300008a
:106010005f430000555200000072000065610000ff
:10602000647900000d0a000000000000000000007c
:106030002110000042200000633000008440000076
:10604000a5500000c6600000e77000000881000055
:10605000299100004aa100006bb100008cc1000032
:10606000add10000cee10000eff1000031120000e0
:10607000100200007332000052220000b5520000ee
:1060800094420000f7720000d662000039930000cd
:10609000188300007bb300005aa30000bdd30000aa
:1060a0009cc30000fff30000dee300006224000058
:1060b000433400002004000001140000e6640000e6
:1060c000c7740000a4440000855400006aa50000c5
:1060d0004bb500002885000009950000eee50000a2
:1060e000cff50000acc500008dd500005336000090
:1060f000722600001116000030060000d77600005e
:10610000f666000095560000b44600005bb700003c
:106110007aa700001997000038870000dff7000019
:10612000fee700009dd70000bcc70000c448000087
:10613000e558000086680000a778000040080000cd
:10614000611800000228000023380000ccc90000bc
:10615000edd900008ee90000aff900004889000089
:10616000699900000aa900002bb90000f55a000047
:10617000d44a0000b77a0000966a0000711a000045
:10618000500a0000333a0000122a0000fddb000034
:10619000dccb0000bffb00009eeb0000799b000001
:1061a000588b00003bbb00001aab0000a66c00003f
:1061b000877c0000e44c0000c55c0000222c00003d
:1061c000033c0000600c0000411c0000aeed00002c
:1061d0008ffd0000eccd0000cddd00002aad0000f9
:1061e0000bbd0000688d0000499d0000977e0000f7
:1061f000b66e0000d55e0000f44e0000133e0000b5
:10620000322e0000511e0000700e00009fff0000a3
:10621000beef0000dddf0000fccf00001bbf000070
:106220003aaf0000599f0000788f0000889100006d
:10623000a9810000cab10000eba100000cd1000050
:106240002dc100004ef100006fe100008010000041
:10625000a1000000c2300000e32000000450000054
:10626000254000004670000067600000b983000010
:1062700098930000fba30000dab300003dc30000c8
:106280001cd300007fe300005ef30000b1020000b9
:1062900090120000f3220000d232000035420000cc
:1062a000145200007762000056720000eab5000048
:1062b000cba50000a8950000898500006ef50000c0
:1062c0004fe500002cd500000dc50000e2340000b1
:1062d000c3240000a01400008104000066740000c4
:1062e000476400002454000005440000dba70000c0
:1062f000fab7000099870000b89700005fe7000038
:106300007ef700001dc700003cd70000d326000028
:10631000f236000091060000b0160000576600003b
:106320007676000015460000345600004cd9000077
:106330006dc900000ef900002fe90000c8990000a7
:10634000e98900008ab90000aba9000044580000a8
:10635000654800000678000027680000c0180000ab
