:020000040000fa
:08000000e20904000000000009
:020000040000fa
:10000800000c0000040c0000080c00000c0c0000a0
:10001800100c0000140c0000180c00001c0c000050
:10002800200c0000240c0000280c00002c0c000000
:10003800300c0000340c0000380c00003c0c0000b0
:10004800400c0000440c0000480c00004c0c000060
:10005800500c0000540c0000580c00005c0c000010
:10006800600c0000640c0000680c00006c0c0000c0
:10007800700c0000740c0000780c00007c0c000070
:10008800800c0000840c0000880c00008c0c000020
:10009800900c0000940c0000980c00009c0c0000d0
:1000a800a00c0000a40c0000a80c0000ac0c000080
:1000b800b00c0000b40c0000b80c0000bc0c000030
:1000c800c00c0000c40c0000c80c0000cc0c0000e0
:1000d800d00c0000d40c0000d80c0000dc0c000090
:1000e800e00c0000e40c0000e80c0000ec0c000040
:1000f800f00c0000f40c0000f80c0000fc0c0000f0
:10010800000d0000040d0000080d00000c0d00009b
:10011800100d0000140d0000180d00001c0d00004b
:10012800200d0000240d0000280d00002c0d0000fb
:10013800300d0000340d0000380d00003c0d0000ab
:10014800400d0000440d0000480d00004c0d00005b
:10015800500d0000540d0000580d00005c0d00000b
:10016800600d0000640d0000680d00006c0d0000bb
:10017800700d0000740d0000780d00007c0d00006b
:10018800800d0000840d0000880d00008c0d00001b
:10019800900d0000940d0000980d00009c0d0000cb
:1001a800a00d0000a40d0000a80d0000ac0d00007b
:1001b800b00d0000b40d0000b80d0000bc0d00002b
:1001c800c00d0000c40d0000c80d0000cc0d0000db
:1001d800d00d0000d40d0000d80d0000dc0d00008b
:1001e800e00d0000e40d0000e80d0000ec0d00003b
:0801f800f00d0000f40d000001
:020000040000fa
:10020800000e0000040e0000080e00000c0e000096
:10021800100e0000140e0000180e00001c0e000046
:10022800200e0000240e0000280e00002c0e0000f6
:10023800300e0000340e0000380e00003c0e0000a6
:10024800400e0000440e0000480e00004c0e000056
:10025800500e0000540e0000580e00005c0e000006
:10026800600e0000640e0000680e00006c0e0000b6
:10027800700e0000740e0000780e00007c0e000066
:10028800800e0000840e0000880e00008c0e000016
:10029800900e0000940e0000980e00009c0e0000c6
:1002a800a00e0000a40e0000a80e0000ac0e000076
:1002b800b00e0000b40e0000b80e0000bc0e000026
:1002c800c00e0000c40e0000c80e0000cc0e0000d6
:1002d800d00e0000d40e0000d80e0000dc0e000086
:1002e800e00e0000e40e0000e80e0000ec0e000036
:1002f800f00e0000f40e0000f80e0000fc0e0000e6
:10030800000f0000040f0000080f00000c0f000091
:10031800100f0000140f0000180f00001c0f000041
:10032800200f0000240f0000280f00002c0f0000f1
:10033800300f0000340f0000380f00003c0f0000a1
:10034800400f0000440f0000480f00004c0f000051
:10035800500f0000540f0000580f00005c0f000001
:10036800600f0000640f0000680f00006c0f0000b1
:10037800700f0000740f0000780f00007c0f000061
:10038800800f0000840f0000880f00008c0f000011
:10039800900f0000940f0000980f00009c0f0000c1
:1003a800a00f0000a40f0000a80f0000ac0f000071
:1003b800b00f0000b40f0000b80f0000bc0f000021
:1003c800c00f0000c40f0000c80f0000cc0f0000d1
:1003d800d00f0000d40f0000d80f0000dc0f000081
:1003e800e00f0000e40f0000e80f0000ec0f000031
:0803f800f00f0000f40f0000fb
:020000040000fa
:100400000a00fa0020079800310798004207980078
:100410000000eb00000f78001f0037002e00900056
:100420001e004000104078000080fb004800dd0006
:10043000ce00900000806800400798000040eb006c
:1004400020479800100037004e0090000000e000a8
:1004500007003d004e009000000040008000780042
:100460001002210000806800400798000300370058
:100470004e00900000004000400798002e40900081
:100480000040e800204798002e409000e74f5000c1
:10049000edff36001e0fe8003e0090009e00780041
:1004a000808f5000ddff39004e0090000080fa0080
:1004b000000006000400fa001007980080c0b30096
:1004c000004f78000040eb00104798009e0090001d
:1004d00000082000008060004700de000040780037
:1004e000614060000080fb00610060004800dd00aa
:1004f000111780000180a100010070001017880012
:100500001e0090000000400010079800e2c2a90001
:1005100000000000000000000000000000000000db
:100520001e409000004040001047980001178000d6
:1005300000082000008060000000e000030032009e
:100540001e4090000040e80010479800e2c2a8005a
:10055000000000000000000000000000000000009b
:100560001e4fe9001e4078000004e000d7ff3a006b
:10057000e302a8001e4090000080fa000000060080
:100580000000fa00d7e2a90060002000c9ff0700c0
:10059000d7e2a8000080fa00000006000400fa007c
:1005a000204798000040eb00004f7800d7e2a900f8
:1005b0002e4090000080fb00beff0700f00f2000df
:1005c000bcff0700004f7800d7e2a8001e4078006b
:1005d0000080fa00000006000000fa00d7e2a9003f
:1005e00060062000b3ff0700d7e2a800000000006b
:1005f0000000000000000000d7e2a90090092000e0
:10060000acff0700d7e2a8000000000000000000d7
:10061000000000000080fa00000006001000fa0050
:1006200060079800710798000040eb00004f7800c9
:10063000050037001e80fb000000470080c0eb0073
:10064000114098001e4fe8001e407800e94f50000e
:10065000f8ff36006e019000fe0190000080eb0074
:100660008080eb00800f5100818f59004f003200d5
:100670006e019000fe019000f0ff2700f1032000c2
:10068000800f5100818f5900210036006e019000cb
:10069000fe019000f0ff2d00f1032000800f5100bb
:1006a000818f590003003600f0c7b300104798004f
:1006b0003e0037006e019000fe019000f0ff2b001d
:1006c000f1032000800f5100818f59000300360094
:1006d000f0cdb30010479800340037006e01900051
:1006e000fe019000f0ff2900f1032000800f51006f
:1006f000818f59000300360070cfb3001047980077
:100700002a003700d0cfb3001047980027003700e9
:100710006e019000fe019000f0ff27000100200014
:10072000800f5100818f590020003e006e01900023
:10073000fe019000f0ff250001002000800f510015
:10074000818f590003003600f0c7b300204798009e
:10075000160037006e019000fe019000f0ff2300ac
:1007600001002000800f5100818f590003003600e6
:10077000f0cdb300204798000c0037006e019000c8
:10078000fe019000f0ff210001002000800f5100c9
:10079000818f59000300360070cfb30020479800c6
:1007a00002003700d0cfb3002047980074ff070045
:1007b000d7e2a900d7c2a800200420003dff07000f
:1007c0000040eb00004f7800060037001e80fb0061
:1007d00000004700104090000080fb0035ff07003c
:1007e0001e4fe8001e407800e94f5000f7ff36002a
:1007f000d7c2a900d7e2a8000000000050c0b30093
:1008000066ff07008080fb00100820000080600069
:100810000000e000f9ff3a000080fa000000060046
:100820000a00fa00881f78003007980041079800f6
:100830003e0090006101b8004818dd00c810de00dd
:10084000810070004810dd00100798002107980013
:100850001e009000ae00900070ff070048ff0700e8
:10086000d7e2a900b000200012ff07001e00900090
:10087000ae0090004008de00004078000080fb00e1
:100880000cff07001e009000ae0090004809dd003c
:100890004800de0000007100c808de00004078005b
:1008a0000080fb0003ff07001e009000004078005e
:1008b0000080fb00fffe0700f00f2000fdfe070098
:1008c0000000eb00000f7800070037001e007800e2
:1008d000ce00900000844000f00f2000f5fe0700dd
:1008e000004c78001e0fe800f00f20009e007800fa
:1008f000808f5000f5ff3400d7e2a8000080eb00a5
:100900008080eb0045ff07004f0478000080fa006c
:10091000000006000400fa000080eb006019880067
:10092000dee2a800df02a900dec2a900d3e2a9002e
:10093000d3c2a900c642a900ca42a80026ff0700e8
:100940006000b800008fbe00050037000000000006
:1009500012002000030020001e0f41005e97490096
:10096000e0e72300010020001e01be00800f5100bf
:10097000818f5900f5ff36000080fa000000060064
:100980000800fa0010079800210798003207980025
:100990000000eb00000f7800090037001e0078000f
:1009a0009e009000008040009e0078002e01900084
:1009b0008100410091407800014878001e0fe80056
:1009c0009e0078003e009000808f5000f3ff3900b9
:1009d0000080fa00000006000c00fa0020079800d2
:1009e0003207980043079800510798003e00900096
:1009f000ce0090004008de000040780032e0b700f2
:100a00006027ef000040eb00004f78001f00370028
:100a1000be0090001e80fb000000400000804000ef
:100a20001000ba00100798008e81e8001e80fb00bd
:100a30006300b90000007800ae0090000080400024
:100a40002200200083007800cdff0700be00900048
:100a50001e80fb0000004000008040001080ba00b3
:100a6000100798001e80fb006300b90000007800aa
:100a70000080e800ae009000008040009e009000e2
:100a800081407800014878001e4fe8009e80fb00fe
:100a90005e009000808f5000ddff35000080fa007e
:100aa00000000600ce00fa0040a7980052a7980068
:100ab00063a7980001003700000000001000240028
:100ac000003b88005ea09000eea090004008de0091
:100ad0000040780032e0b7006000b800008fbe0030
:100ae000210037001e0078006300b9000000780084
:100af000cea09000808040006600470022002000c9
:100b00009fff0700be0090005ea190001e007800cd
:100b100000004000000041000108bb001e007800fa
:100b20006300b900000078000080e800cea09000cb
:100b300000804000104078000080fb0030079800e3
:100b4000be0090005ea190001e00780000004000f2
:100b5000000041000188bb001200200003002000bb
:100b60001e0f41005e974900f003200001002000a5
:100b70001e01be00800f5100818f5900d9ff360041
:100b800050052000303b8800a00a2000303b880040
:100b900061e7a8000000000000000000013b8000a9
:100ba00000002200008060000000e000020032002f
:100bb00000000000c1ff370068004700010420006a
:100bc0005ea19000eea1900083ff070010c0b3006b
:100bd000404798006000b800008fbe000f0037004b
:100be000680047001e004000904078001e0078001a
:100bf0004ea19000000041001040780080cf5000ce
:100c0000020032000040eb00404798001200200034
:100c1000030020001e0f41005e974900f00b2000ea
:100c2000010020001e01be00800f5100818f59007d
:100c3000ebff36004e4090000004e0009eff3200c3
:100c4000000000000080fa00000006000400fa0026
:100c5000008fbe00010037000000000020042400c7
:100c6000003b88001e00be004008de000040780007
:100c700032e0b7001e0078008000eb000108bb00e6
:100c800050052000303b8800a00a2000303b88003f
:100c900061e7a8000000000000000000013b8000a8
:100ca00000002200008060000000e000eaff3a003f
:100cb0000080fa0000000600c400fa0000802a004c
:100cc00021002000008fbe0050cab30040479800aa
:100cd00050cab30050479800a0c5b30060479800c1
:100ce00030c2b3007047980010c0b300004f9800a6
:100cf000a0c5b300104f980070c6b300204f9800f5
:100d000050c4b300304f9800a0c5b300404f9800c6
:100d1000b0cab300504f980090c8b300604f98001d
:100d2000a0c5b300704f9800f0ceb30000579800f4
:100d3000d0ccb3001057980050cab3002057980089
:100d40001e00be00c1ff0700640047001e01be0078
:100d500054ff07000080fa00000006000c09fa00aa
:100d60000000eb00000f78000000eb003007980057
:100d70006c00470080007800a03e2000a8fe07001d
:100d8000ce48900050cab30080cf500036003a00e1
:100d9000de48900050cab30080cf500032003a00c5
:100da000ee489000a0c5b30080cf50002e003a005e
:100db000fe48900030c2b30080cf50002a003a00b5
:100dc0000e509000e14f500027003a009e509000d6
:100dd000a0c5b30080cf500023003a00ae50900071
:100de00070c6b30080cf50001f003a00be50900084
:100df00050c4b30080cf50001b003a00ce5090008a
:100e0000a0c5b30080cf500017003a00de5090001c
:100e1000b0cab30080cf500013003a00ee509000eb
:100e200090c8b30080cf50000f003a00fe509000f1
:100e3000a0c5b30080cf50000b003a000e589000c0
:100e4000f14f400008003a009e589000d0ccb3000b
:100e500080cf500004003a00ae58900050cab30052
:100e600080cf50000200320010c0b3005a0037009b
:100e7000c06020000000470080007800d03e2000c5
:100e800067fe0700c0602000000047000010b000af
:100e900080007800e03e200061fe0700c060200076
:100ea000000047000020b00080007800f03e2000e5
:100eb0005bfe070020012000100798003c0037006f
:100ec0009e009000210798000c003700ae009000b3
:100ed0001e009000008050004800dd00ec0047003c
:100ee000808040002e009000720050004cfe0700f1
:100ef0002e0090000000e800200798001e009000df
:100f0000e60040002e009000808f5000efff3c0074
:100f10006c0047000001eb000160200038fd070075
:100f2000400798001e00780000004000c1602000cb
:100f300081004700614078008080fb001e0078003f
:100f4000000040000000e800c260200002014700ed
:100f5000624078000080fb004800dd000100700066
:100f600050079800ce0090005e009000808f5000e7
:100f7000060032009e009000c03f2000808f50008d
:100f80000200320030c0b300130037006c0047008d
:100f90003e0190000160200019fd07003007980015
:100fa0001e0fe8001e009000660040001007980029
:100fb0009e00900010402000808f5000c0ff340041
:100fc0003e0090000000e0000200320020c0b300ac
:100fd000010037000040eb000080fa00000006002e
:100fe0001609fa000000eb00000f980060002000d6
:100ff00001002000600798007107980060612000e0
:101000000000470080007800d03e200004fe07006a
:1010100060612000000047000010b00080007800f0
:10102000e03e2000fefd0700606120000000470058
:101030000020b00080007800f03e2000f8fd07009e
:101040003000200001002000008fbe000e0037009d
:101050001e01be004a18dd00c610de0081007000cf
:101060004a10dd0020079800310798002e009000fc
:10107000be009000f5fe07001200200003002000d3
:101080001e0f41005e974900a00a200001002000c9
:101090001e01be00800f5100818f5900ecff360009
:1010a00000000000000000002001200001002000de
:1010b000008fbe0074003700000000001e02be005a
:1010c0004407980055079800120037004e00900022
:1010d000de0090003e015000ae8158000200be00cc
:1010e000000078004800dd00f600470080804000e6
:1010f0004e00900072005000c9fd07004e009000a5
:10110000de00900061004000e08048004007980049
:101110005107980064002000050020003e014200b5
:10112000ae814a004e009000de009000800f51001a
:10113000818f5900e5ff3e00760047000001eb007b
:1011400001602000aefc0700100f98000e08900010
:10115000000040006161200081004700614078008c
:101160008080fb000e089000000040000000e800b6
:101170006261200002014700624078000080fb00ad
:101180004800dd0001007000200f98009e089000cc
:101190002e089000808f500006003200c03f2000d3
:1011a000010020001e01be00800f5100818f5900f8
:1011b000c1ff3a000e0890000000e800000f980000
:1011c0006e019000fe0190004918dd00c710de009e
:1011d000810070004910dd00200798003107980059
:1011e0006e009000fe00900062004000e080480029
:1011f00060079800710798006000b80040079800e9
:101200005107980015003700ce009000000c200018
:101210000088b90000007800f60047000080400018
:101220002e019000be0190001efe07002e009000cf
:10123000be0090000008b0000180b00020079800b8
:10124000310798004e009000de00900061004000e1
:10125000e080480040079800510798004e01900038
:10126000de0190007000200001002000800f51007e
:10127000818f5900e4ff3600620020000300200047
:101280001e0f41005e974900104020000100200021
:101290001e01be00800f5100818f590087ff36006c
:1012a0000080fa00000006001400fa0000802a0006
:1012b00021002000008fbe00640047005100200084
:1012c0001e01be00c4fd0700ce40900050cab3000e
:1012d00080cf500038003a00de40900050cab30082
:1012e00080cf500034003a00ee409000a0c5b3001b
:1012f00080cf500030003a00fe40900030c2b30072
:1013000080cf50002c003a000e489000e14f500072
:1013100029003a009e489000a0c5b30080cf50003d
:1013200025003a00ae48900070c6b30080cf500050
:1013300021003a00be48900050c4b30080cf500056
:101340001d003a00ce489000a0c5b30080cf5000e9
:1013500019003a00de489000b0cab30080cf5000b8
:1013600015003a00ee48900090c8b30080cf5000be
:1013700011003a00fe489000a0c5b30080cf500095
:101380000d003a000e509000f14f40000a003a0064
:101390009e509000d0ccb30080cf500006003a00a1
:1013a000ae50900050cab30080cf500002003a0007
:1013b0000000eb0001003700100020000080fa0060
:1013c000000006000000fa0040a7a9006f62230099
:1013d00000bf27000001880000000000313a8000b3
:1013e00000e02f0080806000b00920000100700044
:1013f000303a8800213a800000fe2f000080600013
:101400007000b300203a8800213a8000f0f32f00ea
:1014100000806000203a880000000000113a80003f
:1014200000022000008060000000e000fbff3200ae
:101430008420ef008620ef008820ef008a20ef0054
:101440008c20ef0098ff07000000e00004003a0045
:1014500000120200000000000000eb000d00370049
:1014600011028000000e20000100700010028800b0
:1014700028fd070039fe07000004e00002003200ea
:101480000dfe070001003700d5fe07000000fe003a
:0c1490000000eb000080fa0000000600e5
:020000040000fa
:10180000d212040000000000d61204000000000004
:10181000dc12040000000000e212040000000000de
:10182000e812040000000000ee12040000000000b6
:10183000d212040000000000d212040000000000d8
:10184000d212040000000000d212040000000000c8
:10185000d21204000000000036ca0400010000009b
:10186000d212040000000000d212040000000000a8
:10187000d212040000000000d21204000000000098
:10188000d212040000000000d21204000000000088
:10189000d2120400000000007e4904000000000095
:1018a0004c49040000000000d212040000000000b7
:1018b000d212040000000000d21204000000000058
:1018c000d212040000000000501d040001000000be
:1018d000d212040000000000d21204000000000038
:1018e00010b2040000000000d2120400000000004a
:1018f000d212040000000000d21204000000000018
:10190000d212040000000000d21204000000000007
:10191000d2120400000000001e3904000100000083
:101920004a11040000000000d21204000000000070
:101930003c280400010000000a2804000100000007
:10194000d212040000000000d212040000000000c7
:10195000d212040000000000d212040000000000b7
:10196000d212040000000000d212040000000000a7
:10197000d212040000000000d21204000000000097
:10198000d212040000000000d21204000000000087
:10199000d212040000000000d21204000000000077
:1019a000d212040000000000d21204000000000067
:1019b000d212040000000000bcb9040000000000c6
:1019c0008cb2040000000000d212040000000000ed
:1019d000d212040000000000d21204000000000037
:1019e000d212040000000000d21204000000000027
:1019f000d212040000000000d21204000000000017
:101a0000d212040000000000d21204000000000006
:101a1000d212040000000000d212040000000000f6
:101a2000d212040000000000d212040000000000e6
:101a3000d212040000000000d212040000000000d6
:101a4000d212040000000000d212040000000000c6
:101a5000d212040000000000d212040000000000b6
:101a6000d212040000000000d212040000000000a6
:101a7000d212040000000000d21204000000000096
:101a8000d212040000000000d21204000000000086
:101a9000d212040000000000d21204000000000076
:101aa000d212040000000000d21204000000000066
:101ab000d212040000000000d21204000000000056
:101ac000d212040000000000d21204000000000046
:101ad000d212040000000000d21204000000000036
:101ae000d212040000000000d21204000000000026
:101af000d212040000000000d21204000000000016
:101b0000d212040000000000d21204000000000005
:101b1000d212040000000000d212040000000000f5
:101b2000d212040000000000d212040000000000e5
:101b3000d212040000000000d212040000000000d5
:101b4000d212040000000000d212040000000000c5
:101b5000d212040000000000d212040000000000b5
:101b6000d212040000000000d212040000000000a5
:101b7000d212040000000000d21204000000000095
:101b8000d212040000000000d21204000000000085
:101b9000d212040000000000d21204000000000075
:101ba000d212040000000000d21204000000000065
:101bb000d212040000000000d21204000000000055
:101bc000d212040000000000d21204000000000045
:101bd000d212040000000000d21204000000000035
:101be000d212040000000000d21204000000000025
:020000040000fa
:101c0000d212040000000000d21204000000000004
:101c1000d212040000000000d212040000000000f4
:101c2000d212040000000000d212040000000000e4
:101c3000d212040000000000d212040000000000d4
:101c4000d212040000000000d212040000000000c4
:101c5000d212040000000000d212040000000000b4
:101c6000d212040000000000d212040000000000a4
:101c7000d212040000000000d21204000000000094
:101c8000d212040000000000d21204000000000084
:101c9000d212040000000000d21204000000000074
:101ca000d212040000000000d21204000000000064
:101cb000d212040000000000d21204000000000054
:101cc000d212040000000000d21204000000000044
:101cd000d212040000000000d21204000000000034
:101ce000d212040000000000d21204000000000024
:101cf000d212040000000000d21204000000000014
:101d0000d212040000000000d21204000000000003
:101d1000d212040000000000d212040000000000f3
:101d2000d212040000000000d212040000000000e3
:101d3000d212040000000000d212040000000000d3
:101d4000d212040000000000d212040000000000c3
:101d5000d212040000000000d212040000000000b3
:101d6000d212040000000000d212040000000000a3
:101d7000d212040000000000d21204000000000093
:101d8000d212040000000000d21204000000000083
:101d9000d212040000000000d21204000000000073
:101da000d212040000000000d21204000000000063
:101db000d212040000000000d21204000000000053
:101dc000d212040000000000d21204000000000043
:101dd000d212040000000000d21204000000000033
:101de000d212040000000000d21204000000000023
:101df000d212040000000000d21204000000000013
:101e0000d212040000000000d21204000000000002
:101e1000d212040000000000d212040000000000f2
:101e2000d212040000000000d212040000000000e2
:101e3000d212040000000000d212040000000000d2
:101e4000d212040000000000d212040000000000c2
:101e5000d212040000000000d212040000000000b2
:101e6000d212040000000000d212040000000000a2
:101e7000d212040000000000d21204000000000092
:101e8000d212040000000000d21204000000000082
:101e9000d212040000000000d21204000000000072
:101ea000d212040000000000d21204000000000062
:101eb000d212040000000000d21204000000000052
:101ec000d212040000000000d21204000000000042
:101ed000d212040000000000d21204000000000032
:101ee000d212040000000000d21204000000000022
:101ef000d212040000000000d21204000000000012
:101f0000d212040000000000d21204000000000001
:101f1000d212040000000000d212040000000000f1
:101f2000d212040000000000d212040000000000e1
:101f3000d212040000000000d212040000000000d1
:101f4000d212040000000000d212040000000000c1
:101f5000d212040000000000d212040000000000b1
:101f6000d212040000000000d212040000000000a1
:101f7000d212040000000000d21204000000000091
:101f8000d212040000000000d21204000000000081
:101f9000d212040000000000d21204000000000071
:101fa000d212040000000000d21204000000000061
:101fb000d212040000000000d21204000000000051
:101fc000d212040000000000d21204000000000041
:101fd000d212040000000000d21204000000000031
:101fe000d212040000000000d21204000000000021
:020000040000fa
:102000000800fa00004f7800120798002307980094
:102010006147980000032000000988006e4090008e
:102020000080fb00e10f500003003200e20f50007f
:1020300083003200880037001e009000ae00900040
:10204000a20f200003002000f6180200000000008c
:10205000e00f5000e08f58000b003a0020a127004d
:10206000e00888001e009000ae009000a20f200043
:1020700003002000d61802000000000000007800d5
:1020800070de8900740037006e4090008080fb0095
:102090004006200000017800110009008280d8006d
:1020a0008000fd00004078000004e0000b003a00d2
:1020b000400d2300e00888001e009000ae00900054
:1020c0004206200003002000d61802000000000095
:1020d0000000780070de89005f0037006e409000dd
:1020e0008080fb002003200000017800110009001f
:1020f0008280d8008000fd00004078000004e000ed
:102100000b003a00a0862100e00888001e00900025
:10211000ae0090002203200003002000d618020029
:10212000000000000000780070de89004a003700df
:102130006e4090008080fb0040012000000178008c
:10214000110009008280d8008000fd000040780066
:102150000004e0000b003a00409c2000e0088800ea
:102160001e009000ae0090004201200003002000fd
:10217000d6180200000000000000780070de890020
:10218000350037006e4090008080fb00a0002000ea
:1021900000017800110009008280d8008000fd0055
:1021a000004078000004e0000b003a00204e2000c0
:1021b000e00888001e009000ae009000a200200001
:1021c00003002000d6180200000000000000780084
:1021d00070de8900200037006e4090008080fb0098
:1021e0005000200000017800110009008280d80012
:1021f0008000fd00004078000004e0000b003a0081
:1022000010272000e00888001e009000ae0090001b
:102210005200200003002000d61802000000000039
:102220000000780070de89000b003700d007200026
:10223000e00888001e00900070de8900060037006c
:1022400000552f00e00888001e00900000004000ac
:1022500070de89000000000070de810060de890011
:102260001821ef009105800080ff2f0000806000a2
:102270000010a000900588008780a9009780a80022
:10228000a0bc23001e48780021e1a8000080fa00cd
:102290000000060000a0fe003600f800849fbe008b
:1022a000869fbe000000fa0060de81000000e900a9
:1022b00060de890060de81000000e0000c003a0072
:1022c00070de810060de8900a0bc23001040780031
:1022d0000080fb00e10f500003003a007ee50200a1
:1022e00000000000020037000800070000000000a6
:1022f0008780a9000080fa004f03be004f02be0095
:102300003600f9000080fe00004006000000fa00e0
:1023100021e1a9009780a9008780a900a0bc230023
:102320008040eb00014878000080fa0000000600c1
:020000040000fa
:102330000000fa0090ba230080c0eb00014878004a
:1023400080ba230080c0eb0001487800b0ba2300b7
:102350008040eb0001487800c0ba23008040eb00c9
:1023600001487800a0ba230080c0eb000148780043
:10237000d0ba23008040eb0001487800e0ba230087
:1023800080c0eb0001487800f0ba23008040eb00e9
:10239000014878000000eb0080dd89000080fa0031
:0423a0000000060033
:020000040000fa
:1023a400f03fb1000180b10006003500ee030900e2
:1023b40000000000403fb1000180b100fbff3d0080
:1023c4001000b000203fb00002003500008009007a
:0823d4000000000000000600fb
:020000040000fa
:1023dc000000fa00ba2b0200010000008cc50200bc
:1023ec00000000000000eb000080fa000000060076
:020000040000fa
:102400000000fa000a120200000000000080fa003a
:0424100000000600c2
:020000040000fa
:102414004fff23000eff27000e018800000000007c
:10242400000020000000e000020032000001200053
:102434002002880014000700970007000000e00055
:1024440003003a0080f6210011002000020037004a
:102454000000200001002000810f70000100320004
:1024640014000700000020000000e0000200320019
:102474000000020000000000ee1102000000000055
:102484000040da000000fe004440a900a0802000c3
:102494000000e0000300320000002000a0018800da
:1024a4004440a800000006008a1f78008b1f7800b3
:1024b4000000060091018800800478000000eb0011
:1024c4001a003700e284440032a0b4009905ba002f
:1024d400e284440032a0b4009906ba00e2844400c5
:1024e40032a0b4000006eb00476fde00fd07b20027
:1024f400636ce10003003a00ebff07000000eb000f
:102504000a003700606ce10004003a00005deb0053
:102514008b05e900fdff3e00040037006168e1001f
:10252400010032000086eb000b00070019c7ba0057
:102534001905ba000e04e00003003a000a00e000a6
:10254400e0ff3a0000000600fe07b2009e0188008a
:102554008a047800f5ff3700395dba008b05e9007d
:102564000c003200295dba008b05e9000800320036
:102574000c00e00003003a00e284440032a0b400fe
:10258400f5ff370019ddba008b05e900faff3a00c0
:102594008904e800e184440032a0b400000006008d
:1025a4000000fa00ffff37000000fa008020a900b5
:1025b400ffff37000000fa008060a900ffff37002a
:1025c4000000fa008040a900ffff37000000fa0075
:1025d4008080a900ffff37000000fa0080a0a90056
:1025e400ffff37000a00fa00e20f50001f003e0010
:1025f40090df8100e10f50000600320080232000ac
:102604004523200023232000042320000000e000b1
:1026140004003a00802220004522200023222000ca
:1026240004222000060028009403630002003a00fc
:1026340007087800140a730013a8a30001003a00e5
:1026440013a0a00002007800050037001388a3003f
:10265400feff32003102fb00840a78000000e9002a
:102664000000e000f9ff3a000800370033002000c2
:10267400b3bf9f00c0bf9f00d1bf9f00e2bf9f00b8
:102684006a805700f41307006fb9970002007800be
:102694000080fa0000000600000005003200f80087
:1026a400910188008002780062004000e0804800c8
:1026b4003549ba003204e0000410a70010003200cb
:1026c4008301e9000e0032002549ba003204e0001b
:1026d4000410a7000a0032008301e9000800320058
:1026e4000408a300eeff320015c9ba003204e0006a
:1026f4000410a700020032008301e900e8ff3a0059
:102704003200f9000000060003f0a200889fbe001a
:102714008a9fbe008c1f78001d010700240133002e
:102724006450e1004f0032006420e10052003200a6
:1027340003826c0007003b000905d0000306d000ab
:10274400820f54000c065d000200390002003200c2
:1027540089017800030678008582550004003d0055
:102764000003fd008103fd008502ea008b85420021
:10277400840f720002003b0060001000e08018002b
:102784006011b8000005eb007a28e1000a00390066
:1027940006007800c75ddd00f707b200878075008a
:1027a4002d003700828171000a0178006105600004
:1027b4008180d1000080d3008502e900f9ff3b004d
:1027c400060440008784480002003b0060041400b3
:1027d400e0841c000988a300070032008a8171008c
:1027e40082817100610164008904d1000884d300ee
:1027f4008b05e800170037000978a30013003a009e
:102804000b00e000130034008b05e90008044400c9
:1028140089844c000a4474000978a3000d003a002e
:102824000b00e000070034008b05e90008044400b5
:1028340089844c0001003a000b0020000978a300b1
:10284400f7ff32000001eb000200370082817100c3
:102854000a017800930007000cf0a70001f0a00023
:10286400dc0037006420e10002003a00838f6c0032
:10287400dc0033000801be000200be00d5003700b2
:10288400889fbe008a9fbe008c1f7800c00007008e
:10289400c700330003866c006450e1002e00320050
:1028a4006420e100330032006150e1002f00320067
:1028b4006120e1003100320085855500eb07b0004e
:1028c4000900200008042000050037000804440023
:1028d40089844c000a0031000603430087834b00bf
:1028e4000001530081815b00f8ff33000203be0046
:1028f4000800a0000804440089844c00f6ff390055
:10290400c639dd008301730001003200130020008a
:102914008904d1000884d3000998a300050032007b
:102924000800a7000300a0008904d1000884d30094
:102934008b05e8008904d1000884d3000001eb0072
:102944000281d2005700070001f0a1000cf0a7009b
:1029540001f0a0009f0037006420e100a1003200d4
:102964000801be000200be00f7ff37006120e1004d
:102974009c0032006000b800f3ff37000000200024
:1029840001f82700f0ff370014002000af023700e1
:10299400f4ff2f00ad0237000001be0067000700fe
:1029a4000470a70003f0a1006509b100160032000d
:1029b4000d0035006828e10006003500f0ff2f0007
:1029c400f1ff27000300e00013003b000100280092
:1029d4000000050000004000818048008502e900f5
:1029e400fcff3a0008003700f88f420002003c0068
:1029f4008000eb00000005008100d1000080d300be
:102a04008502e800fcff3a000300e00002003b00fe
:102a140060001000e0801800000006000001be0005
:102a2400460007000470a70003f0a10003f8a30008
:102a340013003a006509b1001000320009003500a6
:102a44006928e100020035000100280000000500ab
:102a540000004000818048008502e900fcff3a0044
:102a640000000600f88f4200050035008100d10007
:102a74000080d3008502e800fcff3a000000060055
:102a84008000eb00000005004f89de008201780021
:102a9400890237006011b800970237000400200053
:102aa4006a02370081002000618055000b003d0060
:102ab4000b00200061fe2f000100e1001d00340026
:102ac40082817100610164008904d1000884d3000b
:102ad4000000e800faff3a00710020006100640081
:102ae4000300700002006000090032006104440029
:102af400e0844c000988a500050032008b05e8003d
:102b04006808e10002003a008904d1000884d30077
:102b1400f20f20000258e10005003d00c75ddd0012
:102b2400f907b200898075000800780000000600eb
:102b34000bf827008b00780000000500c70ade00b0
:102b4400f107b200f50fb20008003200e1cf4200f5
:102b5400020032000170a00024000500810f700003
:102b6400010032000408050044000500810f7000d4
:102b740002003a00140005008502e900000040004c
:102b840081c04800fcff3b000170a0002400050048
:102b94000004be00e9ff07000003be000405be00f8
:102ba4000200be00e5ff0700844f75000000060028
:102bb4000200be006450e100050036006420e1001c
:102bc400020036000968a30001003a000800be00b4
:102bd4000160a0004f0678004f05be004f04be0000
:102be40000000600f0ff2f00f1ff2700f9ff370077
:102bf400889fbe008a9fbe008c9fbe007d01070097
:102c0400850478000005be006420e10049003e0010
:102c14006220e10003003200090035000bf8a30034
:102c2400440032000bf8a300080032001002200018
:102c340000408800f0ff2f00f1ff27003d0037001f
:102c440001f82f00000020003a0037003d00070083
:102c5400adfe07000006be000a00be00324f200091
:102c640053f323004aff0700060034000c00be00a3
:102c740034000700a4fe07000006be000a00be00e0
:102c8400020037008904e9000c00be002d00070093
:102c94002e0007002b0007009cfe07000001be0069
:102ca4000c00be00f6fe07000005be000001be00d9
:102cb400260007000006be00a2f32300430d2c00eb
:102cc40092fe0700809fbe000c00be00d2e32700e6
:102cd400d3f02b001d0007004f01be00e8fe0700e3
:102ce4000006be000a01be00180007000a01be006b
:102cf40086fe07000006be006148b90062ff0700b7
:102d04000005be0032082800e3952b000f000700e1
:102d14000c01be007dfe07000006be000a00be00d6
:102d24000200280013f32300080007000c01be0072
:102d340076fe07004f06be004f05be004f04be00de
:102d44000000060003f0230002000500889fbe0077
:102d54008a9fbe008c1f78008dff070094ff33000c
:102d640003866c006450e100240032006420e1001a
:102d7400270032006150e100220032006120e100ae
:102d8400210032008b854200eb07b1000134b8000a
:102d9400003ab8000804420089844a00013ab800a5
:102da4000030b8008880400009014a000400330064
:102db4000000400081804800020149008b05e900c1
:102dc400c909dd00830170000100320013002000f6
:102dd400c814de004814dd004709de001200b2000a
:102de400c808de00088470002eff070001f0a1006f
:102df4000cf0a70001f0a00076ff37006120e1008d
:102e040078ff32000801be000200be00f7ff370061
:102e14006150e100fcff3a0072ff37000c00fa0039
:102e2400889fbe008a9fbe008c9fbe0058ff07008b
:102e34000206be00840578000200be0002002000e5
:102e44005b01070005003a008b02b300120020006a
:102e54005701070001003a00f8856d000c01be001f
:102e6400c60007000800be009b0032000b08a30048
:102e74009e003a000df0a7000be0a00009f0a700a7
:102e84000bf0a00009f0a1000801be00bb00070080
:102e94000bf0a6009500320001003c000bd0a0000e
:102ea4008acf7500b20033006000b8006250e100c0
:102eb40099003900a1003e000b28a300a2003a00ab
:102ec4000bf8a300060032000b58a300a700320041
:102ed4000801be00a90007000800be0094003200eb
:102ee4000800be00c30007000004be00050578000a
:102ef4000bf0a7000b30a6000bf0a1005b079800b5
:102f0400324f200053f323009ffe070005003d00cd
:102f14000800be0012002000a60107000004be0045
:102f24000a05e9004a0798006150b900d6fe070077
:102f3400008fbe000c01be0084ff070096fe070050
:102f4400300798000100e00002003d00600010001e
:102f5400e0801800f2ff2700820f5000e08f580035
:102f640064003e000c00be008bfe070020079800a2
:102f7400f2072000820f5000e08f580005003c004b
:102f840012f82f00f3ff2f00820f5000838f580098
:102f940009003d000a00e0000300320001003c008b
:102fa4000201ea00020578006000b80020079800da
:102fb4003a079800190037003e0090006100b900fc
:102fc400b1fe0700809fbe000c00be004109dd0079
:102fd4004811de007208b100f50007000005be00cc
:102fe4001e01be0059ff07004f01be00c6fd0700c9
:102ff400809fbe000c00be000a01be00c2fd070097
:103004001e01be0051ff07004f01be00bffd0700b7
:103014008221270013f323004cff07000005be00a4
:103024002e0090006100b90097fe070001f0a20095
:103034000c01be00b5fd07000006be000800be007e
:10304400ebfe07000c01be0040ff07000a01be00b2
:10305400aefd0700809fbe004a0007002e059000c9
:103064000af0a7000a05ea00050037000800be00c0
:103074000801be0035ff07000004be000c00be00be
:103084000801be000a00a70030ff07000006be00ca
:103094000a05d100f5ff3a005e01900002e0a600a7
:1030a400030037000001be0036000700f4fd0700ee
:1030b4000004be004f00be005b0007000801be0014
:1030c40022ff07003e0190003a010700de05900050
:1030d4000bf0a70001f0a2004f06be004f05be0092
:1030e4004f04be000080fa0000000600250007001f
:1030f400f9ff3700270007006000b8000bd0a700d5
:103104000bc0a0000be0a7000bc0a2000bc0a700df
:1031140001f82700f0ff37000df8a3000200320089
:103124001e000700190007000bf8a300eaff320095
:103134000b30a70001f0a200e7ff37000df8a30051
:10314400f9ff3a00f7ff37000801be000b00070043
:10315400e6ff320001003c000df0a2006000b80060
:103164000df0a70009000700dbff37000b00070084
:10317400f1ff2700f0ff2f00d7ff37000100070001
:1031840001fe370001f823000000050001f82700c4
:10319400000005002002200001003700100220007a
:1031a40000408800000006006022b80006022000eb
:1031b4000000d0008180d2000482d2008582d20037
:1031c4000000a0000202520083825a000300310072
:1031d4000202420083824a000000a1000603e900c3
:1031e400f3ff3a0000000600efff07000400be00f2
:1031f400000006000003be0050fe07006220e1004c
:10320400020032000600be0005000500e507b1001b
:10321400f107b20004f023008480700007f0a700d7
:1032240001f0a00024000500889fbe008a9fbe0014
:103234008c9fbe000004be0040fe07000800be00d4
:103244006420e10048003e0055003200722127004e
:10325400132b2400cefd070047003c000800be00ed
:10326400c2ec2800e32c2c00c7fd07004700350002
:103274000800be0001f0a100020020000338230072
:10328400c1fd0700430035000800be00b2a32a00b8
:1032940083fb2300adfe07000200200003f023009f
:1032a40001f0a70003f0a00018fd0700bafd070015
:1032b4000005be00f4fd070001f0a2000006be00f8
:1032c4000200280013f32300a0fe07000801be003b
:1032d4000efd0700809fbe000c00be0032082800cf
:1032e400e3952b0099fe07004f01be0007fd070080
:1032f4000006be000001be0094fe0700809fbe00d1
:103304004241250083b8230090fe070002002000fc
:1033140003e82300fdfc07000c01be008bfe070040
:103324000006be004f00be00f2f92b00c3d42300f8
:1033340086fe07000200200003f02300f3fc0700d0
:103344000c01be00f0fc07000001be000c00be0032
:103354004bfd07000200200003f02300ebfc0700f4
:1033640061014500930007004f06be004f05be00f3
:103374004f04be000000060001f8270000002000f2
:103384002202200002408800f7ff37006000b800e6
:10339400fbff370001f8230000002000f2ff370094
:1033a40009f8a300f0ff32006000b800eeff370018
:1033b400889fbe008a9fbe000003be00dffd070099
:1033c4008505780082815200020020006220e1001d
:1033d40004003a00f307b100040035007718e10057
:1033e400040035000600be00140037006000b80079
:1033f4000f003700f50f2000faff2f008502d100df
:103404000a85d3008301e900fcff3b00818462004c
:1034140000046500890f7400f2ff32008582ea001f
:103424000a85ea0081846200000465009dfd0700ae
:1034340007f0a70001f0a0000081eb000200e0000b
:103444004f05be004f04be0000000600889fbe006a
:103454008a9fbe00841f7800cdfd07004f007800ce
:1034640011003300f0ff2f00838f6c0006003b0037
:10347400040565000a00a7000800370009f0a6004b
:103484001000200008003700820f5400838f5c0076
:10349400030039001000200001003e00000020005d
:1034a40009f0a7000000ea004f05be004f04be006b
:1034b4000000e00000000600881f78000304780084
:1034c4000300e00007003d0060001000e0801800e9
:1034d40060011900e081190002003b0001f02d0099
:1034e400030037000400070008f0a70001f0a00063
:1034f4004f04780000000600889fbe008a9fbe002b
:1035040000827000040271000482710026003200ff
:103514000004be000200be006011b8006b09200068
:10352400950220000182cf000a0039000541b10054
:103534000082cf00070039000541b1000982cf00a5
:10354400040039000541b1000882cf0001003900b0
:103554000541b10005425200120032000a003b004e
:1035640082817100610164008100d1000080d30078
:103574008984d3000884d3008b05e8000442e80062
:10358400f7ff3a00070037000804440089844c0020
:1035940000004800818048008b05e9000442e900ee
:1035a400f9ff3a003ffd07004f05be004f04be007f
:1035b400000006000003be0060fd07006220e10079
:1035c400020032000600be00000006008502410031
:1035d400e30f20000328e10005003c00a3fe2f00b8
:1035e4000328e10007003d0005002000010037002a
:1035f400f50f200020022000004088006000b80081
:1036040008003700130020008381520005003d00ac
:103614008100d1000080d3008301e800fcff3a0060
:1036240005002000c72add00f107b2008580700084
:1036340007f0a70001f0a00000000600e68747009d
:103644008e1f7800d0bf9f00e1bf9f000e0037009f
:103654005fba970014407800efb997009340780060
:103664000201e900814f5000040032000080fb0099
:103674008180fb0001005000060037006687570078
:10368400041fe800030fe8000200e000f0ff3a0026
:103694000000eb004f0778006f00b1000000060047
:1036a4008001780002003700b15978000201e90076
:1036b4000200e000fcff3a000000060080017800f0
:1036c40002003700815978000201e9000200e0009d
:1036d400fcff3a00000006008000eb0090de890049
:1036e400a1de890011c0b30000bd230001487800a9
:1036f4000000060000bd23001004e00002003a00b0
:1037040010002000f4ff0700d2e62400631c24000c
:1037140090de8100a1de81001012070092032300d5
:1037240003002000000141008181490092de8900ec
:10373400a3de89000300780000f0a1000000060069
:103744000c00fa00889fbe0000047800f0ff2700f8
:10375400d0bf9f008004eb0099bf9f0088bf9f00eb
:10376400a8bf9f00200c2000b0bf9f0078815700a5
:10377400cfb09700708057007a0607000fb8970003
:10378400094878008fb89700088050004f04be00a5
:103794000080fa0000000600800078003104e00098
:1037a400feff3a000080ea000080400000000600ae
:1037b4000a003700b04178000304e000030032003f
:1037c4000201e900b1cf5100040032008381fb0003
:1037d4001480fb0000805100000006000102780004
:1037e4000200e000f3ff3a00000005000c00fa00bc
:1037f400889fbe0000047800f0ff2700d0bf9f0020
:103804008004eb0099bf9f0088bf9f00a8bf9f0062
:10381400200c2000b0bf9f0078815700cfb09700e4
:1038240070805700cf0007000fb897000948780050
:103834008fb89700088050004f04be000080fa0043
:10384400000006000800fa00889fbe008a9fbe00a0
:103854000084fb00d1c6b300814f50003400360011
:103864004b062000110009000b84d8008105780064
:10387400720040004300dd0089762300008044008c
:103884006022b8000600200007fe23005001be009d
:103894004000be000f1107000002be000203be007c
:1038a40084bf9f0095bf9f00a6bf9f00b7bf9f0026
:1038b400aa002000110009008a85d800800578003c
:1038c400e9854500c35ddd008b8544003b02be00f5
:1038d4002b03be000fb897009fb897002fb997002d
:1038e400bfb99700fb1007000002be000203be0030
:1038f40084bf9f0095bf9f00a6bf9f00b7bf9f00d6
:10390400110009000a84d800010478004344dd0052
:10391400888444003902be002903be000fb8970012
:103924009fb897002fb99700bfb997001d003700c3
:10393400ea4f500013003600aa00200011000900cd
:103944000a84d80001057800690440004344dd007e
:1039540089762300088444006022b8000600200011
:1039640007fe23003800be002801be00d91007005e
:103974004355dd008a8444003902be002903be0099
:10398400080037004344dd0080762300080440002b
:103994006022b8000600200007fe23003800be00a5
:1039a4002801be00cb1007004f05be004f04be0027
:1039b4000080fa00000006000800fa00889fbe009c
:1039c4008a9fbe00d1c6b3000004e00023003d007e
:1039d4000040ea000004fb00814f50000a0034005c
:1039e40042062000110009000204d800a9002000aa
:1039f400110009008900d800e9004000c308dd0077
:103a04008a76230021003700ea4f5000100034006a
:103a1400a2002000110009000204d800010178006e
:103a2400690040004300dd008176230000804000ef
:103a34004311dd00828040003102be002103be003c
:103a44005001be004000be00a2100700380037003d
:103a54004344dd0080762300320037000004fb007d
:103a6400814f500023003400420620001100090059
:103a74000204d800a9002000110009008900d80020
:103a8400e9004000c308dd008a6b23008100450083
:103a94003102be002103be008b0920008a85450047
:103aa4003b00be002b01be008a1007000002be00ce
:103ab4000203be0084bf9f0095bf9f00a6bf9f0066
:103ac400b7bf9f00110009000904d8000104780061
:103ad4004344dd00080545003a02be002a03be0047
:103ae4000fb897009fb897002fb99700bfb99700f8
:103af400d5ff3700ea4f500008003400a200200030
:103b0400110009000204d800010178006900400096
:103b14004300dd00816b2300c4ff37004344dd0014
:103b2400806b2300080440003800be002801be005a
:103b34004f05be004f04be000080fa0000000600de
:103b4400d0019000028151004240a90003003400da
:103b540010017800014978000208e80001007800ab
:103b6400000006006f02b000889fbe008a9fbe005e
:103b74008c9fbe008e1f780000067800b1af9f00b6
:103b840092b79f006000b8006011b800d0af9f00ea
:103b9400e1af9f00f2af9f0083b79f008006eb0068
:103ba400c4043700bfa897008100e800b1af9f00ac
:103bb40051c2b300814f500003003a00bfa89700e0
:103bc4000007eb0011003700bc0090000000fb0070
:103bd4000168a300070032000d017800800078001e
:103be4000c007800d6ff07000000e00005003a0052
:103bf400b00437008c007800150e0700e10f400078
:103c0400ac0432008d06e800aa04370001017800f4
:103c140031407800d3c2b300834f50000c0032000f
:103c240007003c00edc15100834f50000a003200f0
:103c3400ebc14100834f50000d003a0008003700eb
:103c440003c3b300834f500009003a000600370055
:103c54000e30a000edff37000e00a000ebff370090
:103c64000e10a000e9ff37000e20a000e7ff370088
:103c74000e18a300010032000e00a1000e38a300ac
:103c8400010032000e20a1008000fb000103b100fe
:103c9400e98f50000c003e00020078008005eb0024
:103ca4006a59b900b005fb000b03b10082854500d9
:103cb400000178009000fb000103b100e98f50007f
:103cc400f7ff3600080037008005eb00a1c2b300ff
:103cd400814f500004003a009fb19700c30578005b
:103ce40093b79f000201e800e0c2b300924f1000b6
:103cf40016003a000ee0a00064405000d24f1000bd
:103d040003003200020078008001eb000800370055
:103d14009fb297004503780095b79f00e6b79f00d0
:103d24000201e8000c0037006a19b90082814000e2
:103d340000017800b000fb000103b100e98f5000de
:103d4400f9ff3600e3b79f00030037000ec0a00060
:103d54008003eb00e7b79f008201780033407800ce
:103d640003017800c1c6b300814f50002b0032001c
:103d7400b3af9f0014003c00e8c05000814f5000d6
:103d84002400320009003c00ecc05000814f500078
:103d94002a003200ebc04000814f50008c003200fa
:103da4000004e00048043200a200370061c6b300fa
:103db400814f50001b003200e3c04000814f50008f
:103dc4009c003a001300370031c7b300814f500004
:103dd4001e00320007003c00e4c05000814f500038
:103de400130032008140e800814f500091003a00f6
:103df4001200370051c7b300814f500092003200c7
:103e0400e3c04000814f50008a003a00e0cf9f0099
:103e14000c003700e0cf9f008d0037000e40a0005b
:103e2400cdff3700e0cf9f000ea0a0008800370030
:103e3400e0cf9f000e60a00085003700e0cf9f0018
:103e44000e50a0000e70a00081003700e0cf9f004c
:103e54009fb097004100780091b79f00000478005c
:103e64000000e00001003a0048aa2300880078001e
:103e74000000eb00010037000000e8006141780019
:103e84000204e000fcff3a00800478006fb1970060
:103e94000200e00003003200890f510001003100ec
:103ea400820478000005eb00898f5500010036007c
:103eb40009855500680767002a003a001100370099
:103ec4003c0090000068a300070032000d01780058
:103ed400010220000c00780019ff07000000e00038
:103ee40006003a00060037008c007800000220002b
:103ef400570d0700e10f4000010032008d06e80075
:103f04000a05e9000a00e000edff3a000085eb0035
:103f1400140037003c0090000068a3000900320040
:103f240008007800b000fb00000478000d01780060
:103f34000c00780002ff07000000e00008003a00cf
:103f440008003700880078003100fb000104780085
:103f54008c0078003e0d0700e10f400001003200a4
:103f64008d06e800090078008004e9000000e00004
:103f7400e8ff3a000e00e000ce03320011003700e3
:103f84003c0090000068a300070032000d01780097
:103f9400010220000c007800e9fe07000000e000a8
:103fa40006003a00060037008c007800000220006a
:103fb400270d0700e10f4000010032008d06e800e4
:103fc4000a05e9000a00e000edff3a00b9033700f2
:103fd4009fb197004302780093b79f00cfa2de0001
:103fe400482bdd004820de0000007300c828de00f6
:103ff400e0cf9f000e48a300080032000004e00058
:1040040006003200e14f400004003200f0cf9f0070
:1040140084d79f002900200002003700f4cf9f00be
:1040240019002000e7fc2f008f8343000704e800f9
:1040340096ff3700e0cf9f00e8fc2f000f044400f8
:104044001900200091ff3700e0cf9f000e0cb30051
:104054000170200081006700700067000100e0002b
:10406400180232000ec8a3000200320061002000d2
:10407400e1b79f000000e000050032001fb0970088
:104084004003be004002be0090b79f000600370008
:104094001fb197004200be0092b79f009b0e07001d
:1040a4000002be000203be00a4b79f00b5b79f0084
:1040b400c6b79f00d7b79f006022b8006033b8002e
:1040c4002fb09700bfb097004fb19700dfb19700b2
:1040d400e00d07000000e0000a003d002fb097004b
:1040e400bfb097004fb19700dfb1970003f0a20073
:1040f400a0b79f00b1b79f00c2b79f00d3b79f007e
:104104003e00b3000000eb0090af9f006022b800b7
:104114006033b8002fb09700bfb097004fb197003d
:10412400dfb197002f0e07000000e00034003200da
:1041340024fd2f000f0242002fb09700bfb097005c
:104144004fb19700dfb19700c20e07001fa8970078
:104154000000e9006302b900a20020001100090078
:104164000202d80090af9f000000e00002003d0072
:104174000000e90090af9f001fac97000840ea00e0
:104184000dfe07002fb29700bfb297004fb3970000
:10419400dfb39700cf0e07000002be000203be008b
:1041a400d4af9f00e5af9f00f6af9f0087b79f0095
:1041b4006022b8000600200007ff2300a50d0700b9
:1041c4000000e00002003d000804e9000b00370095
:1041d4006022b80006002000470224005fa8970070
:1041e400efa897007fa997008fb197009e0d070055
:1041f4000000e000020035000804e80098af9f00ca
:10420400efb29700ec8f52000f003c00054078009d
:104214008cfd07000002be000203be002fb0970011
:10422400bfb097004fb19700dfb197000c0d0700a6
:104234000002be000203be00a4b79f00b5b79f00f2
:10424400c6b79f00d7b79f001fac9700e90f540073
:1042540015003c006022b8006033b8002fb097000e
:10426400bfb097004fb19700dfb19700dd0d070095
:104274000000e000310032002fb09700bfb097007b
:104284004fb19700dfb197003f0e0700e00f5000d9
:10429400e08f5800e00f5900e08f590027003a00e2
:1042a400e10f5400250034000400200005002e0016
:1042b400b6e02200170124005fa89700efa897003a
:1042c4007fa997008fb19700620d07000000e000fe
:1042d40002003d00690454000100370068045400e2
:1042e40098af9f002fd09700b3fd07000002be00d7
:1042f4000203be00d4af9f00e5af9f00f6af9f005e
:1043040087b79f002fb09700bfb097004fb19700b9
:10431400dfb19700590d07001b0e07000004be0013
:104324006000b8006011b800a0b79f00b1b79f004b
:10433400c2b79f00d3b79f00160037002fb0970075
:10434400bfb097004fb19700dfb197000e0e070082
:104354000004be003d0e07000002be000203be00c2
:104364002fb09700bfb097004fb19700dfb197000f
:10437400cd0e07000002be000203be00a4b79f00da
:10438400b5b79f00c6b79f00d7b79f000000eb00ea
:1043940090af9f00c1aa230010c0b30005003700ee
:1043a400e4804000b10f5400a18f5c000300390089
:1043b4000040e800ea4f5000f9ff3a00e0cf9f00c8
:1043c4009fa8970081805500efb297008580500028
:1043d4000005fb000a8550000500e00001003200e2
:1043e4000a05e90063006700010032000a05e900dc
:1043f4000e28a30039003200610167000e18a300e3
:104404000f0032003c0090000068a3000600320058
:10441400b10220000200e000010032008180e800c7
:104424000d0178000d003700b00220000200e0000a
:10443400010032000080e8008c0078000e00370094
:104444000200e000220032003c0090000068a3005b
:10445400070032000d017800010220000c007800f2
:10446400b7fd07000000e00006003a00180037001e
:104474008c00780000022000f50b0700e10f4000db
:10448400130032008d06e800110037003c00900054
:104494000068a300070032000d017800010320002a
:1044a4000c007800a6fd07000000e00006003a00ba
:1044b400060037008c00780000032000e40b07009e
:1044c400e10f4000010032008d06e8000a05e90012
:1044d4000a00e000edff3c00570037000e38a3004f
:1044e40014003a00110037003c0090000068a3005b
:1044f400070032000d017800010220000c00780052
:104504008ffd07000000e00006003a0006003700b7
:104514008c00780000022000cd0b0700e10f400062
:10452400010032008d06e8000a05e9000a00e000f7
:10453400edff3c00610167000e18a3000e0032007d
:104544003c0090000068a30005003200b102200086
:104554000200e000220032008180e80020003700e1
:10456400b00220000200e000010032000080e800f8
:104574008c0078002c0037000200e0002e0032008e
:104584003c0090000068a300030032000d01780095
:1045940001022000130037008c0078000002200084
:1045a400210037003c019000c0aa23008100fb00d9
:1045b4000268a30010003200c208dd008100400040
:1045c4001101be000800be00f7fa0700a200200097
:1045d4000300200004fb070001032000808040004a
:1045e4000d0178000c00780055fd07000000e00084
:1045f40010003a0010003700c208dd0081004000be
:104604001101be000800be00e7fa0700a200200066
:1046140003002000f4fa0700020320000001410017
:104624008c00780002007800890b0700e10f40003d
:10463400010032008d06e8006fc897008040e90051
:10464400e1cf9f000004e000d6ff3a0013003700da
:104654003c0090000068a300070032000d017800c0
:10466400010320000c00780035fd07000000e00085
:1046740006003a00060037008c0078000003200092
:10468400730b0700e10f4000010032008d06e800c3
:104694001fa897000000e90090af9f001fa8970093
:1046a4000000e000eaff3c006fb39700e80f5300fe
:1046b4000300340080c0b300e0cf9f000200370045
:1046c400cfeb9700e7cf9f006fc897008005fb00f2
:1046d400efb097008b8550000004e000100032001a
:1046e4003c0090000068a300070032000d01780030
:1046f400e10220000c00780011fd07000000e0003a
:1047040006003a00060037008c007800e002200022
:104714004f0b0700e10f4000010032008d06e80056
:104724006fc89700a4fc07000002be000203be008d
:104734002fb09700bfb097004fb19700dfb197003b
:10474400640d0700100d07002d0037003c01900098
:10475400c1aa23000000fb000268a300100032007d
:104764004200dd00808040001101be000800be0050
:104774008dfa0700a2002000030020009afa070027
:1047840001032000808040000d0178000c007800b7
:10479400ebfc07000000e00010003a0010003700b6
:1047a4004200dd00808040001101be000800be0010
:1047b4007dfa0700a2002000030020008afa070007
:1047c40002032000000141008c0078000200780000
:1047d4001f0b0700e10f4000010032008d06e800c6
:1047e4006fc997000200fb004200dd00c1aa23004c
:1047f400008040001001be000800be007afa0700e5
:104804000004be00efc897000140e900e0cf9f001c
:104814000104e000cdff3a00110037003c00900095
:104824000068a300070032000d0178000103200096
:104834000c007800c2fc07000000e00006003a000b
:10484400060037008c00780000032000000b0700ee
:10485400e10f4000010032008d06e8008b05e900fd
:104864000b00e000edff3a000e38a3009101320086
:104874000a00e0008f0134003c0090000068a300af
:10488400070032000d017800010220000c007800be
:10489400abfc07000000e00006003a000600370009
:1048a4008c00780000022000e90a0700e10f4000b4
:1048b400010032008d06e8000a05e900eeff3a0027
:1048c4007c0137008e007800010cb20011003a0020
:1048d4000000e000040032009fb197004304be00d2
:1048e40093b79f00040037001fb297004404780078
:1048f40094b79f00cfc4de00e00f5400e08f5c004b
:104904000e003d003e00b30060041400e0841c006f
:104914000a0037000000e000040032009fb2970054
:104924004504be0095b79f00040037001fb39700ed
:104934004604780096b79f008004eb00efb397001d
:104944000700e00006003a000880740000f0a700a9
:104954000000ea000000e9004f00de00e0b79f001d
:104964000e007800000cb200c0af9f0000042000cd
:10497400cfa89700808f50002300320003003c0032
:104984000100e000080032002d003700000820007c
:104994004fa99700800f51000d003200000c200039
:1049a400800f510026003a00c1aa230010c0b300b2
:1049b400e4804000b10f5400a18f5c001f00390057
:1049c4000040e800ea4f5000f9ff3a001b003700ae
:1049d40010c0b3000201200003002000820f540025
:1049e400838f5c0015003900441add00cc11de0011
:1049f400830172004411dd000040e800e84f5000dc
:104a0400f6ff3a000d00370010c0b300820020000a
:104a140003002000820f5400838f5c0007003900dc
:104a2400c31add00cd11de00838172004311dd0065
:104a34000040e800eb4f5000f6ff3a00e0cf9f0043
:104a44006fcb97000600fb00efb39700870f500071
:104a540002003d00e7cf9f0004003700efb097004d
:104a6400808f500001003d00e0b79f000b00e00084
:104a74000300320063006700010032008b05e90087
:104a84000ee8a300060032006fb19700828f550034
:104a94000200340082855500010037008005eb00d8
:104aa400efc997000300fb000002eb00a4b79f00ce
:104ab400808f55000200340000805500a0b79f008d
:104ac4000e28a3003c003200610167000e18a30009
:104ad4000f0032003c0090000068a3000600320082
:104ae400b10220000200e000010032008180e800f1
:104af4000d0178000d003700b00220000200e00034
:104b0400010032000080e8008c0078000e003700bd
:104b14000200e000100032003c0090000068a30096
:104b2400070032000d017800010220000c0078001b
:104b340003fc07000000e00006003a00060037000e
:104b44008c00780000022000410a0700e10f4000b9
:104b5400010032008d06e800afb297000500e000c6
:104b640052003200050578003c0090000068a30064
:104b7400070032000d017800010320000c007800ca
:104b8400effb07000000e00006003a0006003700d3
:104b94008c007800000320002d0a0700e10f40007c
:104ba400010032008d06e8000a05e900eeff3a0034
:104bb400aab79f003d0037002fb397000600e0001e
:104bc400160032000e38a30014003a0006057800df
:104bd4003c0090000068a300070032000d0178003b
:104be400010220000c007800d5fb07000000e00063
:104bf40006003a00060037008c007800000220000e
:104c0400130a0700e10f4000010032008d06e8009e
:104c14000a05e900eeff3a00aab79f0061016700a8
:104c24000e18a3000f0032003c0090000068a3009f
:104c340006003200b10220000200e0000100320050
:104c44008180e8000d0178000d003700b0022000db
:104c54000200e000010032000080e8008c007800cf
:104c64000e0037000200e000100032003c0090000b
:104c74000068a300070032000d0178000102200043
:104c84000c007800aefb07000000e00006003a00cc
:104c9400060037008c00780000022000ec090700b1
:104ca400e10f4000010032008d06e800efb39700e9
:104cb4000702e9006320b90000017800a2af9f0059
:104cc4004222dd00c0aa230000024200040578004d
:104cd400cfad97005c003700efb197008301e90086
:104ce400e3b79f0000042000808f55003700320096
:104cf40003003c000b00e000070032003d003700d9
:104d040000082000808f550020003200000c200095
:104d1400808f550037003a000e48a300100032007f
:104d24001a02be000401be000800be00f4b79f00d2
:104d340085bf9f001cf90700e0cf9f000000fb0027
:104d4400cf80de007fb297008fba97000401be00c7
:104d5400820c07000004540081845c0007003700c3
:104d64001a017800110009000284d800a200200072
:104d7400110009000280d800e1cf9f006fca97009c
:104d84000443b000e4cf9f001a00370030a9230089
:104d94000e58a3000100320020a82300c1aa23005a
:104da400810055000801be008100e90003003300c2
:104db4008301d1000281d300fbff37006f01610042
:104dc40060417900e2cf9f000a0037000800be006e
:104dd400afaa97008502e900030033008100d100e7
:104de4000080d300fbff3700674060000043b00041
:104df400e0cf9f00bc0090006fcb97000600fb0043
:104e04000168a300070032000d01780080007800db
:104e14000c0078004afb07000000e00005003a009f
:104e2400050037008c00780089090700e10f400075
:104e3400010032008d06e800afab9700e383530016
:104e4400a7af9f00640555006fb097000000e00015
:104e5400a1ff3a000e38a30016003200afb097004d
:104e64000100e00013003400010578003c009000cc
:104e74000068a300070032000d0178000102200041
:104e84000c0078002efb07000000e00006003a004a
:104e9400060037008c007800000220006c0907002f
:104ea400e10f4000010032008d06e8000a05e90028
:104eb400eeff3a003fa9970012407800e0cf9f0030
:104ec4000004e00037fb3a000d0078004f0778003b
:104ed4004f06be004f05be004f04be006f02b10076
:104ee40000000600889fbe008a9fbe000084fb006d
:104ef400d1c6b300814f5000200036004b0620007d
:104f0400110009000b84d80081057800720040006c
:104f14004200dd00eaa42300000045000200200056
:104f240003f023001000be0088f707000002be0053
:104f3400a9002000110009008985d80080057800a7
:104f4400e9854500c25ddd008b0545001b01be00ff
:104f54000400be007df707000002be001100090036
:104f64000984d800010478004244dd0008054500a6
:104f74001a01be000400be0018003700ea4f5000ba
:104f840010003600aa002000110009000a84d8008d
:104f940001057800690440004244dd00e9a42300cf
:104fa400088444000200200003f023001800be001f
:104fb40066f707004255dd008a8444001901be00eb
:104fc400060037004244dd00e0a42300080440004a
:104fd4000200200003f023001800be005bf7070066
:104fe4004f05be004f04be0000000600889fbe00af
:104ff4008a1f7800d1c6b3000004e00025003d00fc
:105004000040ea000004fb00814f50000e00340011
:1050140042062000110009000204d800a900200063
:10502400110009008900d800e9004000c208dd0031
:10503400eaa42300810045001101be00d0d4810000
:10504400e1d4810023003700ea4f50000e00340001
:10505400a2002000110009000204d8000101780018
:10506400690040004200dd00e1a42300008040000c
:105074004211dd00828040001101be001000be001c
:1050840032f707002b0037004244dd00e0a4230080
:10509400260037000004fb00814f50001700340045
:1050a40042062000110009000204d800a9002000d3
:1050b400110009008900d800e9004000c208dd00a1
:1050c400aaa12300810045001101be0030d3810054
:1050d40041d381001df707000002be001100090042
:1050e4000904d800010478004244dd0008054500a5
:1050f4001a01be000400be00e1ff3700ea4f500071
:1051040008003400a2002000110009000204d800a5
:1051140001017800690040004200dd00a1a12300e4
:10512400d2ff37004244dd00a0a123000804400060
:105134001800be004f0578004f04be0000000600b2
:10514400d0019000028151004240a90003003400c4
:1051540010017800014978000208e8000100780095
:1051640000000600af02b000889fbe008a9fbe0008
:105174008c9fbe008e1f780000077800a1af9f00af
:10518400f2af9f006055b8000000eb00c0b79f006d
:10519400a3083700afa897008100e800a1af9f00e3
:1051a40051c2b300814f500003003a00afa99700e9
:1051b4000000eb0013003700be0090000000fb006d
:1051c4000168a300070032004fb197008000780007
:1051d4000e007800daff07000000e00005003a0046
:1051e4008f0837008e00780099080700e10f40000f
:1051f4008b0832004fb197000201e800c2b79f004c
:10520400870837008300780033417800b4c2b300c4
:10521400844f51001300320007003c006b425200df
:10522400844f51000d00320063424200844f51000c
:1052340012003a000d003700d4c2b300844f51006d
:105244000400320063424200844f51000b003a00d4
:10525400080037000030a000eaff37000000a0007b
:10526400e8ff37000010a000e6ff370000b0a00000
:10527400e4ff37000020a000e2ff37000018a3007d
:10528400010032000000a1000038a3000100320038
:105294000020a1008201fb000303b100e98f51004b
:1052a4000e003e00010178008001eb0093b79f00df
:1052b4006a1ab900b201fb000303b1008481410002
:1052c400820078001202fb000403b100e90f5200cf
:1052d400f7ff360093b79f000a0037000002eb0087
:1052e40094b79f00a3c2b300834f510005003a0056
:1052f400ffaa970045017800f5af9f0092b79f0081
:105304008100e800e2c2b300914f110019003a0095
:1053140000e0a000a0b79f00a0c2b300d14f1000ce
:1053240004003200010078008001eb0083b79f0085
:10533400090037007faa9700c4027800f4af9f00e9
:1053440085b79f008100e800afb197000e003700d9
:105354006a1ab90084014100800078003001fb0022
:105364000203b100e90f5100f9ff360083b79f0033
:10537400f5ff370000c0a000a0b79f000000eb00bd
:1053840080b79f00f0ff370031407800a1af9f0045
:1053940072c6b300824f50003500320018003c0042
:1053a400a3b79f0031c6b300814f5000d000320034
:1053b4000e003c00fcc05000814f500042003200ff
:1053c40006003c000004e0001a08320081c0e90035
:1053d400814f5000e0003a003300370081c5b3002c
:1053e400814f5000dc003a004400370051c6b3003e
:1053f400814f50002100320026003c00210037007c
:1054040002c7b300824f50003b0032000b003c0047
:1054140064415100824f50001c003200a3b79f002a
:10542400f1c6b300814f50002e003200e6c0500098
:10543400814f5000c8003a0012003700a3b79f0004
:1054440051c7b300814f5000c8003200e3c0400090
:10545400814f500004003200e5c05000814f5000dd
:10546400bd003a002d003700a0cf9f002700370071
:10547400a3b79f00a0cf9f0017003700a0cf9f00c5
:105484000d003700a0cf9f00bc0037000340a000f0
:10549400bdff3700a0cf9f00afb1970003a0a000cd
:1054a400a3b79f00b5003700a0cf9f002fb297008d
:1054b4000450a000a4b79f00afb297000580a000dd
:1054c400a5b79f00ad003700a0cf9f002fb0970075
:1054d4000050a000a0b79f00afb097000190a000bb
:1054e400a5003700a0cf9f002fb197000260a00055
:1054f400a2b79f00a1003700a3b79f00a0cf9f00d1
:10550400afb197000350a000a3b79f002fb297003c
:105514000470a000a4b79f0098003700a0cf9f009c
:10552400ffaa970045007800f5af9f0000067800b9
:105534000000e00001003a006caf23008c0078000a
:105544000000eb00010037000000e8006141780032
:105554000204e000fcff3a00800678000fb09700d8
:105564000000e000030032008d0f50000100310004
:10557400800678000004eb009fb097008d8f5000e8
:10558400010036000d8450002fb19700e80461003b
:1055940035003a00acb79f00bdb79f000a06be00b5
:1055a400cfb59700110037003e0090000068a300bb
:1055b400070032000b017800010220000e00780081
:1055c400dffe07000000e00006003a000600370096
:1055d4008e007800000220009d070700e10f4000c4
:1055e400010032008b05e8000804e9000800e0002f
:1055f400edff3a00cbb79f000c05be002fb6970015
:10560400bfb697000084eb00aab79f00bbb79f000a
:10561400170037003e0090000068a3000900320024
:105624000c007800b000fb00000678000b01780045
:105634000e007800c2fe07000000e00008003a00f7
:105644000c0037008c0078003100fb000106780064
:105654008e0078007e070700e10f4000050032004d
:105664008b05e80003003700aab79f00bbb79f0073
:10567400cfb597000d0078008006e9000000e00037
:10568400e4ff3a00cbb79f002fb59700bfb5970052
:105694000900e00062073200cfb497001100370020
:1056a4003e0090000068a300070032000901780062
:1056b400010220000e007800a1fe07000000e000b7
:1056c40006003a00060037008e0078000002200031
:1056d4005f070700e10f4000010032008904e80081
:1056e4000804e9000800e000edff3a004b0737002a
:1056f400ffa9970043007800f3af9f00cf80de003e
:10570400c809de00480add004801de00020172001b
:10571400a2cf9f00afb297000548a3000800320053
:105724000204e00006003200e14f410004003200b0
:10573400b2cf9f00c0cf9f002d0020000200370091
:10574400b0cf9f001d002000a0fc2f000f004000e0
:105754000006e80081ff3700a0cf9f00acfc2f00bb
:105764000f0646001d0020007cff3700a0cf9f00dd
:10577400afb09700010cb300a1b79f0001702000e7
:105784002fb1970081006100700061000100e0000a
:10579400e004320002c8a3000200320063002000cb
:1057a40083b79f000000e000070032007faa970043
:1057b4004401be004400be00f4af9f00bc090700d2
:1057c4000004be0003003700ffaa97004504be0092
:1057d400f5af9f006011b8000800be006af407002e
:1057e4000000e00004003d0009f0a2002fb0970083
:1057f4003000b300a0b79f000000eb00f0a79f00ab
:105804006011b8000800be00a4f407000000e00026
:1058140024003200e2fc2f000f0141000800be000a
:10582400290907007fa097000000e9006302b9007e
:10583400a2002000110009000202d800f0a79f0076
:105844000000e00002003d000000e900f0a79f0016
:105854007fa697000c40ea00e4fd07000801be00a3
:105864003af507000005be000200200003f82300fb
:1058740045f407000000e00002003d000c06e900ca
:105884000700370002002000031224000a00be00b3
:105894003ff407000000e000020035000c06e800b9
:1058a400fca79f007fa697002fb197000288a30052
:1058b40007003a000298a300ae023200e40f46004b
:1058c400030035008fb19700830f56006502350041
:1058d4000fb297000400e00005003200afb2970059
:1058e4000598a300020032000402e90084b79f0077
:1058f4000fb09700e80f50000300360080c0b300db
:10590400a0cf9f00020037008fe09700a1cf9f0037
:105914006011b8000800be0060f407000000e00059
:1059240033003200afce97000d405600affd0700a4
:105934000001be000800be00d1f307000004be0051
:1059440036f4070053f407000001be000800be004f
:105954006df307000200200003f023000cf407009d
:105964000000e000050035000200200003f02300e1
:105974000800be0065f307000004be000800be0076
:1059840026f407000d01fb008201e800c219dd00c6
:10599400e4af230083014200b30f5000a38f5800eb
:1059a40007003900d2cc2c00c3dc23000800be0061
:1059b400e6f407000004be000c06e8000b00370004
:1059c4004211dd0002014200b20f5000a28f5800c4
:1059d4000700310002002000031224000800be006a
:1059e400daf407000004be000c06e900fca79f00df
:1059f40001a020002fb19700810061000020200049
:105a0400808f500026003a008fb19700ea8f510032
:105a140002003400a400200084b79f000800be00e8
:105a2400fef30700070037008fb297008502e900f4
:105a340085b79f00a2002000030020000c00be00d8
:105a4400d9f507000006be00e00f5000e08f5800b3
:105a540006003200a200200003002000e2f5070047
:105a6400e00f5000e08f5800efff32002fc897007e
:105a74008000fb000fb19700810f510008003d002a
:105a84000240500059fd07000001be000800be009e
:105a94007bf307000004be008fe19700a3cf9f00b3
:105aa4001fb29700650052008fb2970005005000a6
:105ab40090b79f000500e00003003a002fb0970064
:105ac40000b8a300030032009fb097008100e900f2
:105ad40091b79f002fb1970063006100030032006b
:105ae4009fb197008301e90093b79f002fb29700fd
:105af4000428a300530032003e00900061016200bc
:105b04000418a300180032000068a3000a00320041
:105b1400b10220000200e000010032008180e800b0
:105b24004fb197000e00780085fd07000000e000eb
:105b340009003a003a003700b00220000200e000f9
:105b4400010032000080e8008e0078004006070063
:105b5400e10f400032003200cfb297008502e80026
:105b6400050678002f0037000200e0002c00320008
:105b74000068a300070032004fb197000102200023
:105b84000e0078006efd07000000e00006003a00f9
:105b9400230037008e007800000220002c06070046
:105ba400e10f40001e0032004fb097000000e800f3
:105bb400000678001b0037003e0090000068a30038
:105bc4000b0032000c017800010320000e00780065
:105bd400f4b79f0085bf9f0059fd07007fb297006f
:105be4008fba97000000e0000a003a000a0037006c
:105bf4008e00780000032000f4b79f0085bf9f004b
:105c0400130607007fb297008fba9700e10f400098
:105c1400010032000c06e8008904e90003003700a3
:105c24004fb697000802be009fb497000900e00039
:105c3400e1ff3c0099b79f00ccb79f000404be006d
:105c44004f003700afb097000138a3001c003a00a2
:105c54004fb69700d8af9f00e9af9f009fb497005d
:105c6400110037003e0090000068a30007003200d6
:105c74000c017800010220000e00780030fd0700be
:105c84000000e00006003a00060037008e007800ad
:105c940000022000ee050700e10f40000100320081
:105ca4000c06e8008904e9000900e000edff3c006f
:105cb40099b79f00ccb79f005fac9700efac9700fb
:105cc4003e009000afb19700618161000318a3000a
:105cd400180032000068a3000a003200b10220005c
:105ce4000200e000010032008180e8004fb197001b
:105cf4000e00780012fd07000000e00009003a00e1
:105d04001f003700b00220000200e0000100320052
:105d14000080e8008e007800cd050700e10f400008
:105d2400170032004fb297000402e800c4b79f0086
:105d3400130037000200e000110032000068a300e5
:105d4400070032004fb19700010220000e007800d6
:105d5400fbfc07000000e00006003a0008003700e2
:105d64008e00780000022000b9050700e10f400012
:105d740003003200cfb297008502e800c5b79f0048
:105d84000800be0025f307000006be003e01900097
:105d9400e0af2300afc997008300fb000268a300b3
:105da4000d003200c208dd00010040001001be00f9
:105db4000c00be00fcf407000103200080804000ba
:105dc4004fb197000e007800ddfc07000000e000f2
:105dd4000d003a000f003700c208dd00010040004a
:105de4001001be000c00be00eff407000203200007
:105df400000141008e00780002007800940507003d
:105e0400e10f4000030032004fb297000402e800a3
