:020000040000fa
:08000000740704000000000079
:020000040000fa
:10000800000c0000040c0000080c00000c0c0000a0
:10001800100c0000140c0000180c00001c0c000050
:10002800200c0000240c0000280c00002c0c000000
:10003800300c0000340c0000380c00003c0c0000b0
:10004800400c0000440c0000480c00004c0c000060
:10005800500c0000540c0000580c00005c0c000010
:10006800600c0000640c0000680c00006c0c0000c0
:10007800700c0000740c0000780c00007c0c000070
:10008800800c0000840c0000880c00008c0c000020
:10009800900c0000940c0000980c00009c0c0000d0
:1000a800a00c0000a40c0000a80c0000ac0c000080
:1000b800b00c0000b40c0000b80c0000bc0c000030
:1000c800c00c0000c40c0000c80c0000cc0c0000e0
:1000d800d00c0000d40c0000d80c0000dc0c000090
:1000e800e00c0000e40c0000e80c0000ec0c000040
:1000f800f00c0000f40c0000f80c0000fc0c0000f0
:10010800000d0000040d0000080d00000c0d00009b
:10011800100d0000140d0000180d00001c0d00004b
:10012800200d0000240d0000280d00002c0d0000fb
:10013800300d0000340d0000380d00003c0d0000ab
:10014800400d0000440d0000480d00004c0d00005b
:10015800500d0000540d0000580d00005c0d00000b
:10016800600d0000640d0000680d00006c0d0000bb
:10017800700d0000740d0000780d00007c0d00006b
:10018800800d0000840d0000880d00008c0d00001b
:10019800900d0000940d0000980d00009c0d0000cb
:1001a800a00d0000a40d0000a80d0000ac0d00007b
:1001b800b00d0000b40d0000b80d0000bc0d00002b
:1001c800c00d0000c40d0000c80d0000cc0d0000db
:1001d800d00d0000d40d0000d80d0000dc0d00008b
:1001e800e00d0000e40d0000e80d0000ec0d00003b
:0801f800f00d0000f40d000001
:020000040000fa
:10020800000e0000040e0000080e00000c0e000096
:10021800100e0000140e0000180e00001c0e000046
:10022800200e0000240e0000280e00002c0e0000f6
:10023800300e0000340e0000380e00003c0e0000a6
:10024800400e0000440e0000480e00004c0e000056
:10025800500e0000540e0000580e00005c0e000006
:10026800600e0000640e0000680e00006c0e0000b6
:10027800700e0000740e0000780e00007c0e000066
:10028800800e0000840e0000880e00008c0e000016
:10029800900e0000940e0000980e00009c0e0000c6
:1002a800a00e0000a40e0000a80e0000ac0e000076
:1002b800b00e0000b40e0000b80e0000bc0e000026
:1002c800c00e0000c40e0000c80e0000cc0e0000d6
:1002d800d00e0000d40e0000d80e0000dc0e000086
:1002e800e00e0000e40e0000e80e0000ec0e000036
:1002f800f00e0000f40e0000f80e0000fc0e0000e6
:10030800000f0000040f0000080f00000c0f000091
:10031800100f0000140f0000180f00001c0f000041
:10032800200f0000240f0000280f00002c0f0000f1
:10033800300f0000340f0000380f00003c0f0000a1
:10034800400f0000440f0000480f00004c0f000051
:10035800500f0000540f0000580f00005c0f000001
:10036800600f0000640f0000680f00006c0f0000b1
:10037800700f0000740f0000780f00007c0f000061
:10038800800f0000840f0000880f00008c0f000011
:10039800900f0000940f0000980f00009c0f0000c1
:1003a800a00f0000a40f0000a80f0000ac0f000071
:1003b800b00f0000b40f0000b80f0000bc0f000021
:1003c800c00f0000c40f0000c80f0000cc0f0000d1
:1003d800d00f0000d40f0000d80f0000dc0f000081
:1003e800e00f0000e40f0000e80f0000ec0f000031
:0803f800f00f0000f40f0000fb
:020000040000fa
:10040000800078000040eb0082c0b3000102780059
:100410000408b2004722de00610262004822dd00cb
:10042000131780000380a100830172001317880056
:1004300081804000e2c2a90000000000000000002e
:10044000000000000000000000404000e0e2ab00bf
:10045000010032000040e800e2c2a80000000000f5
:100460000000000000000000000000000241e90060
:10047000e6ff3a00e302a80000000600d7e2a90068
:1004800060002000deff0700d7e2a80000000600a1
:10049000d7e2a90060062000d9ff0700d7e2a80034
:1004a000000000000000000000000000d7e2a900ea
:1004b00090092000d2ff0700d7e2a800000000004a
:1004c0000000000000000000000006002ca3ef0068
:1004d000dee2a800df02a900dec2a900d3e2a90083
:1004e000d3c2a900c642a900ca42a800e8ff07007b
:1004f000f0e7230001002000000000006100500030
:10050000e0805800fcff3a000000060022042400ae
:10051000023b88004009de00030020002403200085
:10052000024a78000001eb000208bb0050052000e1
:10053000303b8800a00a2000303b880061e7a8001b
:1005400000000000000000000000000000000000ab
:10055000000006000001eb00315878000201e800bd
:10056000e20f5100fcff3a00000006000600fa000e
:10057000889fbe008a9fbe008c1f78000004780010
:10058000010678004018de000100200032e0b700cc
:100590006027ef008044eb00100037008a0545001b
:1005a000828545001b00ba0080bf9f006350b900e0
:1005b00000054400f08057000a00780092bf9f00b9
:1005c000a3bf9f00e3ff07009b85ba002b4598005f
:1005d0008944e800afb997001fb997000985fb006f
:1005e0008c0f5500edff35004f0678004f05be001b
:1005f0004f04be000080fa00000006001000fa0060
:100600005100200002802a00230020007080570043
:10061000d6ff07008ff097001000200052cab300e9
:1006200082cf500035003a001ff19700814f5100f2
:1006300032003a002ff19700a1c5b300814f51005d
:100640002e003a0031c2b300bff1970081cf5100b4
:100650002a003a00cff09700e1cf500027003a007f
:10066000dff0970082cf500024003a0072c6b3003a
:10067000eff1970082cf510020003a0052c4b3003e
:10068000fff1970082cf51001c003a000ff997004c
:10069000814f510019003a00b1cab3001ff9970009
:1006a000814f510015003a0091c8b3002ff997000f
:1006b000814f510011003a00a1c5b3003ff99700e6
:1006c000814f51000d003a00cff89700f1cf400064
:1006d0000a003a00d1ccb3005ff99700814f510076
:1006e00006003a0050cab300eff8970000c0680057
:1006f0000080fb000000ea004f00de000080fa00ee
:1007000000000600c600fa00889fbe008a9fbe0057
:1007100011002400013b8800401ade000500200083
:1007200021032000844878000004780088047800c1
:100730006055b8008900780020f32f000f004000ba
:10074000a2bf9f00b3bf9f0082ff07000a004500c1
:100750002fb99700bfb99700020040009f1897007b
:100760000108bb00a94090008180fb00911f9f0001
:100770000188bb0061054500e0854d00e38444002d
:1007800006042000860f5500e08f5d00e9ff3a0067
:1007900050052000303b8800a00a2000303b880034
:1007a00061e7a80000000000000000000000000059
:1007b000000000000104200040f32f000f00400063
:1007c0006aff070030f32f000f004000ed80570054
:1007d00050417800b84f5100010032000000fe0087
:1007e000810f5000faff3a004f05be004f04be00d3
:1007f0000080fa0000000600c000fa0051cab300f1
:1008000081c79e0091c79e00a0c5b300a0c79e00ef
:1008100032c2b300b2c79e0012c0b300c2c79e006e
:10082000d0c79e0072c6b300e2c79e0052c4b30098
:10083000f2c79e0080cf9e00b2cab30092cf9e0046
:1008400092c8b300a2cf9e00b0cf9e00f0ceb300fe
:10085000c0cf9e00d0ccb300d0cf9e00e1cf9e0091
:1008600000802a002100200028ff070002802a00c3
:100870002300200000f42f000f004000a1ff07001c
:100880000080fa00000006000001eb00b081fb00d0
:10089000c819dd008380680083c0b3000182400076
:1008a0000100e00003003d001102210081006a0008
:1008b00001003700840078008341e900f7ff3a0027
:1008c0000201e80003602000830f5100efff3a00af
:1008d0000100780000000600d7e2a90050002000c7
:1008e000c7fe0700f00f2000c5fe0700d7e2a800f2
:1008f000000006000a00fa00889fbe006f845700bf
:10090000e58457000801780000e9eb00890f5100e9
:10091000fdff3a00e10f4000e08f48003500320053
:10092000f2ff2700f3032000820f5000838f58004e
:1009300018003600f2ff2d00f3032000820f500054
:10094000838f580002003600f0c7b3000f00370055
:10095000f2ff2b00f3032000820f5000838f58001a
:1009600002003600f0cdb30008003700f2ff290086
:10097000f3032000820f5000838f580002003600de
:1009800070cfb30001003700d0cfb300a0f79f00b5
:1009900018003700f2ff2700820f5000e08f580048
:1009a00014003e00f2ff2500820f5000e08f580037
:1009b00002003600f0c7b3000d003700f2ff23003d
:1009c000820f5000e08f580002003600f0cdb300d7
:1009d00007003700f2ff2100820f5000e08f58001f
:1009e0000200360070cfb30001003700d0cfb30053
:1009f000b0f79f00a1fe0700d7e2a900d7c2a80068
:100a0000200420007efe07005880fb007cfe0700cb
:100a1000890f5400fcff3a00d7c2a900d7e2a80012
:100a2000adff07000008a300fdff3a004f04be0021
:100a30000080fa0000000600889fbe008a1f780030
:100a4000010578008000eb00480cdd00c804de00e2
:100a5000890474004804dd000800be00a5ff0700fb
:100a600086fe0700d7e2a900b000200064fe070060
:100a70000980fb0062fe07004849dd004840de00b7
:100a800000007100c848de000080fb005cfe07002b
:100a90000880fb005afe0700f00f200058fe0700f8
:100aa0000004eb00f00f200055fe0700005d780009
:100ab0000804e80000102000800f5400f9ff3a00fd
:100ac000d7e2a8000080eb008080eb0089ff0700e0
:100ad0004f0578004f04be0000000600cf3fb00075
:100ae000cf3fb000af10b000889fbe008a9fbe000d
:100af0008e1f7800609f2f000084470088007800d8
:100b0000a03e2000ccff07009840780010c0b30042
:100b100052cab30082cf500070003a0018419000d2
:100b2000814f51006d003a0028419000a1c5b300eb
:100b3000814f510069003a00b841900031c2b300c2
:100b400081cf510065003a00c840900080cf50002e
:100b500062003a00d840900082cf50005f003a0017
:100b6000e841900072c6b30082cf51005b003a00aa
:100b7000f841900052c4b30082cf510057003a00b0
:100b800008499000814f510054003a0018499000e4
:100b9000b1cab300814f510050003a00629f2f004c
:100ba00082804700a149900092c8b30082cf5100d3
:100bb0004a003a00b1499000a2c5b30082cf51006b
:100bc00046003a0041499000f14f410043003a008d
:100bd000d1499000d2ccb30082cf51003f003a00ff
:100be0006149900051cab300814f51003b003a0067
:100bf000616f2f008f804000d03e20008eff0700e5
:100c0000607f2f0080804700e03e20008aff0700c1
:100c1000628f2f0082804700f03e200086ff070091
:100c20006e6f2f000f0747000005eb002801200022
:100c300021003700609f2f000f0040008b00400014
:100c4000728054007cff07008904e8000b10b0009c
:100c500065004400890f5000f6ff3d008000eb0066
:100c6000609f2f000f00400007ff07009e4090008c
:100c7000c808dd001e81fb0081007100810f50005b
:100c800003003200c03f2000800f540012003a00e1
:100c90008a007800629f2f0002804700fafe07005a
:100ca00000057800660444000e87e800204020001c
:100cb000800f540003003200880478008005eb00a8
:100cc000e3ff37000040eb000a00e00003003200c1
:100cd00020c0b3000100370030c0b3004f077800d8
:100ce0004f05be004f04be00ef1fb100ef1fb10063
:100cf000ef1fb100ef1fb100af10b1000000060000
:100d0000cf3fb000cf3fb0002f11b000889fbe0092
:100d10008a9fbe008c9fbe008e1f7800a16e2f00a0
:100d20008f804000d03e200043ff0700a07e2f00b0
:100d300080804700e03e20003fff0700a08e2f008c
:100d400080804700f03e20003bff070008c02000e5
:100d5000090020000800be00ecfd07000040200054
:100d600001002000080440008984480000c02a00d7
:100d700021002000800f5400818f5c00f5ff3a00b5
:100d80000000000000000000ae6e2f000f074700bb
:100d9000280120000900200080012000010020001f
:100da000d0b79f00e1b79f006a0020000b00200031
:100db0000b0037000800560089805e00c800dd0087
:100dc000a09e2f000f0040008100400072005600de
:100dd00019ff070061064600e0864e00010037005b
:100de0000806be005fb09700efb09700800f560076
:100df000818f5e00efff39008000eb00a09e2f0086
:100e00000f004000a0fe07009e409000c808dd00d3
:100e10001e81fb0081007100810f50000400320030
:100e2000c13f2000810f5400e08f5c00ecff3a00ce
:100e3000495add00c752de00850272004952dd00ca
:100e40000006eb00a19e2f008f80400001004600ad
:100e50000401be00f4b79f0085bf9f0029fe070074
:100e60007fb297008fba97000408b0000580b000e9
:100e70000c0cb00000602000800f5600f1ff3a001b
:100e80005fb09700efb0970066004000e080480038
:100e9000d0b79f00e1b79f000e87e80066044400ca
:100ea000e0844c0041152000810f5500e08f5d006b
:100eb0000300320062054500e0854d00c8ff3700a1
:100ec0004f0778004f06be004f05be004f04be001e
:100ed000ef1fb100ef1fb100ef1fb100ef1fb10016
:100ee0002f11b1000000060040a7a9006f62230087
:100ef00000bf2700000188000000000000e02f0074
:100f00004607b600b009b300303a880000fe2f0053
:100f10004407b6007000b300203a8800f0f32f00b9
:100f20004427b60042a7ab00feff32008420ef004a
:100f30008620ef008820ef008a20ef008c20ef0051
:100f4000aefd07000000e00003003a0000120200be
:100f5000000000000a003700000e20004220b70009
:100f60005afd0700ddfe07000004e0000200320029
:100f700021fe07000100370061ff07000000fe00ae
:040f80000000050068
:020000040000fa
:10180000fe130400000000000014040000000000ab
:10181000041404000000000008140400000000008c
:101820000c1404000000000010140400000000006c
:10183000fe13040000000000fe130400000000007e
:10184000fe13040000000000fe130400000000006e
:10185000fe130400000000008619040000000000d0
:101860004a19040000000000fe13040000000000fc
:10187000fe13040000000000fe130400000000003e
:10188000fe13040000000000fe130400000000002e
:10189000fe13040000000000741a040000000000a1
:1018a000501a040000000000fe13040000000000b5
:1018b0005a19040000000000fe130400000000009c
:1018c000fe130400000000001414040000000000d7
:1018d000fe13040000000000fe13040000000000de
:1018e000fe13040000000000fe13040000000000ce
:1018f000fe13040000000000fe13040000000000be
:10190000ec12040000000000fe13040000000000c0
:10191000fe130400000000006a190400000000002b
:10192000a819040000000000fe13040000000000dd
:10193000021a040000000000de190400000000008c
:10194000fe13040000000000fe130400000000006d
:10195000fe13040000000000061804000000000050
:10196000fe13040000000000fe130400000000004d
:10197000fe13040000000000fe130400000000003d
:10198000fe13040000000000fe130400000000002d
:10199000fe13040000000000fe130400000000001d
:1019a000fe13040000000000fe130400000000000d
:1019b000fe130400000000002617040000000000d1
:1019c000fe13040000000000fe13040000000000ed
:1019d0005c15040000000000fe130400000000007d
:1019e000fe13040000000000fe13040000000000cd
:1019f000fe13040000000000fe13040000000000bd
:101a0000fe13040000000000fe13040000000000ac
:101a1000fe13040000000000fe130400000000009c
:101a2000fe13040000000000fe130400000000008c
:101a3000fe13040000000000fe130400000000007c
:101a4000fe13040000000000fe130400000000006c
:101a5000fe13040000000000fe130400000000005c
:101a6000fe13040000000000fe130400000000004c
:101a7000fe13040000000000fe130400000000003c
:101a8000fe13040000000000fe130400000000002c
:101a9000fe13040000000000fe130400000000001c
:101aa000fe13040000000000fe130400000000000c
:101ab000fe13040000000000fe13040000000000fc
:101ac000fe13040000000000fe13040000000000ec
:101ad000fe13040000000000fe13040000000000dc
:101ae000fe13040000000000fe13040000000000cc
:101af000fe13040000000000fe13040000000000bc
:101b0000fe13040000000000fe13040000000000ab
:101b1000fe13040000000000fe130400000000009b
:101b2000fe13040000000000fe130400000000008b
:101b3000fe13040000000000fe130400000000007b
:101b4000fe13040000000000fe130400000000006b
:101b5000fe13040000000000fe130400000000005b
:101b6000fe13040000000000fe130400000000004b
:101b7000fe13040000000000fe130400000000003b
:101b8000fe13040000000000fe130400000000002b
:101b9000fe13040000000000fe130400000000001b
:101ba000fe13040000000000fe130400000000000b
:101bb000fe13040000000000fe13040000000000fb
:101bc000fe13040000000000fe13040000000000eb
:101bd000fe13040000000000fe13040000000000db
:101be000fe13040000000000fe13040000000000cb
:020000040000fa
:101c0000fe13040000000000fe13040000000000aa
:101c1000fe13040000000000fe130400000000009a
:101c2000fe13040000000000fe130400000000008a
:101c3000fe13040000000000fe130400000000007a
:101c4000fe13040000000000fe130400000000006a
:101c5000fe13040000000000fe130400000000005a
:101c6000fe13040000000000fe130400000000004a
:101c7000fe13040000000000fe130400000000003a
:101c8000fe13040000000000fe130400000000002a
:101c9000fe13040000000000fe130400000000001a
:101ca000fe13040000000000fe130400000000000a
:101cb000fe13040000000000fe13040000000000fa
:101cc000fe13040000000000fe13040000000000ea
:101cd000fe13040000000000fe13040000000000da
:101ce000fe13040000000000fe13040000000000ca
:101cf000fe13040000000000fe13040000000000ba
:101d0000fe13040000000000fe13040000000000a9
:101d1000fe13040000000000fe1304000000000099
:101d2000fe13040000000000fe1304000000000089
:101d3000fe13040000000000fe1304000000000079
:101d4000fe13040000000000fe1304000000000069
:101d5000fe13040000000000fe1304000000000059
:101d6000fe13040000000000fe1304000000000049
:101d7000fe13040000000000fe1304000000000039
:101d8000fe13040000000000fe1304000000000029
:101d9000fe13040000000000fe1304000000000019
:101da000fe13040000000000fe1304000000000009
:101db000fe13040000000000fe13040000000000f9
:101dc000fe13040000000000fe13040000000000e9
:101dd000fe13040000000000fe13040000000000d9
:101de000fe13040000000000fe13040000000000c9
:101df000fe13040000000000fe13040000000000b9
:101e0000fe13040000000000fe13040000000000a8
:101e1000fe13040000000000fe1304000000000098
:101e2000fe13040000000000fe1304000000000088
:101e3000fe13040000000000fe1304000000000078
:101e4000fe13040000000000fe1304000000000068
:101e5000fe13040000000000fe1304000000000058
:101e6000fe13040000000000fe1304000000000048
:101e7000fe13040000000000fe1304000000000038
:101e8000fe13040000000000fe1304000000000028
:101e9000fe13040000000000fe1304000000000018
:101ea000fe13040000000000fe1304000000000008
:101eb000fe13040000000000fe13040000000000f8
:101ec000fe13040000000000fe13040000000000e8
:101ed000fe13040000000000fe13040000000000d8
:101ee000fe13040000000000fe13040000000000c8
:101ef000fe13040000000000fe13040000000000b8
:101f0000fe13040000000000fe13040000000000a7
:101f1000fe13040000000000fe1304000000000097
:101f2000fe13040000000000fe1304000000000087
:101f3000fe13040000000000fe1304000000000077
:101f4000fe13040000000000fe1304000000000067
:101f5000fe13040000000000fe1304000000000057
:101f6000fe13040000000000fe1304000000000047
:101f7000fe13040000000000fe1304000000000037
:101f8000fe13040000000000fe1304000000000027
:101f9000fe13040000000000fe1304000000000017
:101fa000fe13040000000000fe1304000000000007
:101fb000fe13040000000000fe13040000000000f7
:101fc000fe13040000000000fe13040000000000e7
:101fd000fe13040000000000fe13040000000000d7
:101fe000fe13040000000000fe13040000000000c7
:020000040000fa
:10200000cf02b000889fbe008a9fbe008c9fbe009a
:102010008e1f780002077800e3af9f00d4af9f00c7
:10202000c5af9f00b6af9f00a7af9f0082fc2f00f7
:102030000281470063922e000b000900335978009b
:1020400008282a0039742c00faff2f00fbff2f000c
:10205000080440008984480060054d00e0854d007b
:1020600004182500150020006033b8000800be00e9
:102070000a01be00f42102000000000090b79f009a
:10208000a1b79f00b2b79f00c3b79f0004182500f7
:10209000150020006033b8000800be000a01be0031
:1020a00054220200000000000004be00e00f5000b7
:1020b000e08f580010003d0000182500110020009e
:1020c00008044000898448001fb09700afb0970013
:1020d0003fb19700cfb1970061005000e0805800f9
:1020e00060015900e081590090b79f00a1b79f009f
:1020f000b2b79f00c3b79f0014ab23002500200098
:102100006033b8001fb09700afb097003fb19700a1
:10211000cfb1970054220200000000000005be006d
:102120006011b80092b79f00a3b79f00e00f550061
:10213000e08f5d0008003d0010ab2300210020006f
:102140000a0540008b8548000082eb008082eb008e
:1021500094b79f00a5b79f00c2ea280003002000a3
:102160000a00be008e1c0200000000000006be0037
:10217000e40f5000e08f580002003a003c002000bd
:102180000d00200042152700f3ff2f000c00be00b9
:10219000a0200200000000000005450081854d00e0
:1021a000525b2000030020000a00be008e1c0200cb
:1021b000000000000002be00f90f5000e08f580040
:1021c00002003a008401200005002000b2a42f0084
:1021d000f3ff2f000400be00f4b79f0085bf9f00ef
:1021e000a0200200000000000003450081834d0094
:1021f000f6af9f0087b79f00d21620000300200093
:102200000600be008e1c0200000000000005be009b
:102210007fb297008fba9700e40f5000e08f58000c
:1022200002003a003a0020000b00200032e92f00a3
:10223000f3ff2f000a00be00f4b79f0085bf9f0088
:10224000a0200200000000007fa997008fb1970036
:102250000003410081834900920120000300200017
:102260000c00be00d6b79f00e7b79f00a020020079
:10227000000000000006be0042062000030020000f
:102280001fb09700afb09700a02002000000000030
:102290000c0040008d8048007fb297008fba9700f5
:1022a0000000420081804a00420edd00ce06de00c2
:1022b0008d0676004206dd0072fc2f000f01410002
:1022c0006000b8005fb39700efb3970004003700d9
:1022d0000403530085835b0061004000e0804800f8
:1022e0005202fb00cfa2de00860f5200878f5a00f9
:1022f000f7ff3400027d2000030020000c014100a4
:102300008d8149000201450083814d006302400038
:10231000e0824800ec0f5200e08f5a0004003400c5
:1023200069025000e082580061014100e0814900eb
:10233000020f7800efa99700840978005faa970040
:10234000060ae80002e12000030020000800be00a9
:102350008e1c020000000000bfaa9700800a7800cf
:10236000c2032000030020000800be008e1c0200f3
:1023700000000000c2032000030020002e1e020007
:10238000000000002fab9700000b7800c203200074
:10239000030020000800be002e1e02000000000006
:1023a0000001be008fa09700820878001e0178000f
:1023b000efab970097007800dfa997001300780033
:1023c0008a180200020000004faa9700000a780055
:1023d0004f0778004f06be004f05be004f04be00f9
:0823e000cf02b100000006006d
:020000040000fa
:1023e8009080fb00c808dd00104090000080fb00d2
:0823f8000080700000000600e7
:020000040000fa
:082400000412040000000000ba
:020000040000fa
:10240800ef0124000ebf27000e0188000000000025
:10241800000020000000e00002003200000120005f
:102428002002880014000700910407000000e00063
:1024380003003a0040f12400110020000200370098
:102448000000200001002000810f70000100320010
:1024580014000700000020000000e0000200320025
:102468000000020000000000542e020002000000dc
:102478000040da000000fe004440a900e0de210030
:102488000000e0000300320000002000a0018800e6
:102498004440a800000006008a1f78008b1f7800bf
:1024a8000000060091018800800478000000eb001d
:1024b8001a003700e284440032a0b4009905ba003b
:1024c800e284440032a0b4009906ba00e2844400d1
:1024d80032a0b4000006eb00476fde00fd07b20033
:1024e800636ce10003003a00ebff07000000eb001b
:1024f8000a003700606ce10004003a00005deb0060
:102508008b05e900fdff3e00040037006168e1002b
:10251800010032000086eb000b00070019c7ba0063
:102528001905ba000e04e00003003a000a00e000b2
:10253800e0ff3a0000000600fe07b2009e01880096
:102548008a047800f5ff3700395dba008b05e90089
:102558000c003200295dba008b05e9000800320042
:102568000c00e00003003a00e284440032a0b4000a
:10257800f5ff370019ddba008b05e900faff3a00cc
:102588008904e800e184440032a0b4000000060099
:10259800b82a040002000000d02a0400020000004b
:1025a800882a040002000000a02a0400020000009b
:1025b8002a29040002000000462904000200000045
:1025c800602c0400000000000a3104000000000034
:1025d8003600f800809fbe00829fbe00849fbe0028
:1025e800869fbe00889fbe008a9fbe000400fa0036
:1025f80068a323001880fb000000400081a323008b
:10260800b2f08300823078001880fb0000004000a0
:1026180081a4230084f0830084307800a0f0830034
:102628008000eb00801d020000000000c0d289007d
:10263800d1d2890090f08300e0d28900184ce800dc
:1026480018417800674c610082f0830011c0b30024
:10265800f0f92000800f510001003e008040eb009f
:10266800e0a523001004e0000b0032000104e000a4
:102678000b003a000000eb000001400083a4230097
:1026880084f08300843179000000e800e80f5000ee
:10269800f9ff3a000c0037000104e0000a0032009c
:1026a8001004e00008003a000000eb0000014000c0
:1026b80083a32300b4f08300843179000000e8008c
:1026c800e80f5000f9ff3a00e0a523000148780020
:1026d8000004eb000ad381001bd381008804440066
:1026e80080a3230060807c0002d3810013d3810083
:1026f8008000eb00e2bf9f00f3bf9f00801d020037
:10270800000000006fb99700ffb997003e1b020058
:1027180000000000221e2e0013f623004c1e0200ab
:10272800000000000001be000a00be00401b0200bd
:102738000000000000d3890011d389002ad381004a
:102748003bd3810080a4230060807c0022d38100d9
:1027580033d381008000eb00e2bf9f00f3bf9f00ee
:10276800801d0200000000006fb99700ffb99700b4
:102778003e1b020000000000221e2e0013f623005c
:102788004c1e0200000000000001be000a00be004e
:10279800401b02000000000020d3890031d38900cb
:1027a8000804e800e80f5400caff3a0011c0b3005b
:1027b80080a623000148780090a62300e1c3b30057
:1027c80090cf100001003c001048e8008700a900e5
:1027d8000080fa004f05be004f04be004f03be0044
:1027e8004f02be004f01be004f00be003600f90088
:1027f80000400600ffff37008020a900ffff3700d8
:102808008060a900ffff37008040a900ffff370064
:102818008080a900ffff370080a0a900ffff3700d4
:102828003600f800809fbe00829fbe00849fbe00d5
:10283800869fbe00881f7800f0b8230031c0b3001f
:1028480090cf10009200320008b923001004e00075
:10285800570032001804e0005700320010c0b300df
:10286800984f100007003a000802e2005c003500ab
:10287800862e02000200000090dc81004800de0085
:102888005e00370018c0e900e14f50000d003e001f
:102898000802e2001a00350021c0b30098cf1000ea
:1028a80005003a0090dc8100f00fb200101088009b
:1028b80030c0b3006f0037000622a80040c0b30044
:1028c8006c00370040c0b300984f100007003a0072
:1028d800e0b82300104078000004a0000080fb004e
:1028e8001010880050c0b3006200370051c0b30018
:1028f80098cf100005003a000802e2001b003d00d6
:1029080000cceb009620a9006100370060c0b3003e
:10291800984f100012003a00a1dc8100b0dc810061
:1029280002108000827078000000e800b0dc8900a6
:10293800b1dc8100c0dc8100808f500004003a00c7
:1029480006a2a8000682a80080c0b300490037008c
:1029580006a2a9000682a80070c0b300450037008f
:1029680071c0b30098cf100003003a000662a800b7
:1029780060c0b3003f00370080c0b300984f10001c
:1029880003003a000642a80090c0b300390037009f
:1029980091c0b30098cf10003d003a009620a900de
:1029a80001cfb30000b92300014878003800370090
:1029b8001804e00005003a00e0b823001080fb008e
:1029c8001010880010c0b3002a00370010c0b300f0
:1029d800984f10000c003a000802e20003003d0086
:1029e8000622a800004ceb0029003700862e0200c2
:1029f80002000000d0dc81001080fb00101088006d
:102a080020c0b3001b00370021c0b30098cf1000ce
:102a180013003a00e0c0b3000802e20005003500e8
:102a2800b1dc8100c0dc8100808f500004003a00d6
:102a380030c0b300004c78000642a80014003700ec
:102a4800d1dc8100b0dc8100e14078008180fb00ae
:102a5800111088000000e800b0dc89000c00370085
:102a680030c0b300984f100004003a009620a90027
:102a780000cfb300004c780005003700e1c0b30078
:102a880098cf100002003a009620a90000cceb0075
:102a98008620a9004f0478004f03be004f02be00f5
:102aa8004f01be004f00be003600f900004006008e
:102ab8003600f800809fbe00829fbe00849fbe0043
:102ac800869fbe00881f7800e0b7230031c0b3009e
:102ad80090cf1000d3003200f8b723001004e000b4
:102ae800760032001804e00004003a004003200099
:102af8009010880010c0b300c200370010c0b300a7
:102b0800984f100007003a001802e2001400350040
:102b180000b823001080fb009010880020c0b3008c
:102b2800b800370021c0b30098cf100007003a0062
:102b38001802e2000a00350010dc81004800de00bf
:102b48009010880030c0b300ae00370030c0b3002a
:102b5800984f10000c003a001802e20003003d00f4
:102b68001622a800004ceb00ae003700862e0200ab
:102b78000200000010dc81000080fb00901088003b
:102b880040c0b3009f0037009840780064c05000f0
:102b9800e14f50000d003e001802e200170035001a
:102ba80040c0b300984f100005003a0040b8230019
:102bb8001080fb009010880050c0b30091003700cf
:102bc8001622a80060c0b3008e00370061c0b300b1
:102bd80098cf100004003a0050032000901088009d
:102be80070c0b3008700370070c0b300984f100062
:102bf80008003a001802e20003003d0000cceb0098
:102c08009a40a900870037001662a80080c0b30068
:102c18007c00370081c0b30098cf100013003a0041
:102c280031dc810040dc81008210800082707800f5
:102c38000000e80040dc890042dc810051dc8100b2
:102c4800f0b72300810f510004003a0016a2a80033
:102c58001682a800a1c0b3001600370016a2a9006a
:102c68001682a80091c0b30012003700f0b7230005
:102c780091c0b30090cf100003003a001662a8007c
:102c880081c0b3000b003700a1c0b30090cf100083
:102c980003003a001642a800b1c0b300050037008f
:102ca800b1c0b30090cf10005e003a009a40a9006e
:102cb80001cfb300014878005a00370000c1b300c3
:102cc800984f100004003a0040032000901088003c
:102cd800744050004b00370000c2b300984f1000fa
:102ce80007003a001802e2001e00350000b8230071
:102cf8001080fb009010880000c3b300410037002b
:102d080000c3b300984f100007003a001802e20011
:102d18001400350010dc81004800de0090108800a7
:102d280000c4b3003700370000c4b300984f100048
:102d380007003a001802e2000a00350010dc8100a2
:102d48000080fb009010880000c5b3002d003700fc
:102d580000c5b300984f10000c003a001802e200ba
:102d680003003d001622a80000c1b300250037006b
:102d7800862e02000200000040b823001080fb00ed
:102d88009010880000c6b3001e00370000c6b300cc
:102d9800984f100016003a001802e20003003d00a8
:102da80000c8b300004c78000700370041dc810000
:102db80050dc8100808f500005003a0001c7b30045
:102dc800f0b72300014878001642a8001500370024
:102dd80061dc810040dc8100e14078008180fb00fb
:102de800911088000000e80040dc89000d003700e1
:102df80000c7b300984f100004003a009a40a90099
:102e080000cfb300004c78000600370000c8b300bc
:102e1800984f100003003a009a40a900f0b7230029
:102e280000c8eb008a40a9004f0478004f03be0099
:102e38004f02be004f01be004f00be003600f90031
:102e48000040060000a0fe003600f800849fbe0087
:102e5800869fbe00889fbe008a1f7800089e2200b9
:102e68001804e0005f003200a62e020002000000f5
:102e78000004e0005b003a00004c780010cfb3007b
:102e8800a6050200020000000028a300330032005b
:102e9800184f810020c7b300a605020002000000f9
:102ea8000080fb00c9de22000804440080347c0056
:102eb8001a4f810030c7b300a605020002000000c7
:102ec8000080fb0088df22000a05450000347d00f1
:102ed80040c7b300a605020002000000114f8100a0
:102ee80081804000698178004211dd0082b4780059
:102ef800114f810081804000688178004211dd0017
:102f080002b47800114f8100818040006981780007
:102f18000080fb00e301600081844400828c410052
:102f2800114f810081804000688178004200de00f6
:102f38006300600001044400020c40000041eb0003
:102f480041c0b30010cfb300d60e0200020000004b
:102f5800fac10200010000001f003700306f810035
:102f6800f00fb20000004000629e2200620078006c
:102f7800e10f40001800320080de22001048e8000f
:102f880051c0b30090cf100013003600316f81009c
:102f98008100e800316f8900316f8100f10fb200c4
:102fa800316f8900316f81008180400063be22004b
:102fb800818041008088eb00316f81008180400072
:102fc800010141000089eb000048eb0011c0b3008b
:102fd800509e22000148780011c0b300009e2200d4
:102fe8000148780089e0a9004f0578004f04be0029
:102ff8004f03be004f02be003600f9000080fe00fd
:10300800004006003600f800809fbe00829fbe0088
:10301800849fbe00869fbe00889fbe008a9fbe0018
:103028003400f80000002000a0018800492080003a
:10303800f943b2000984fb004444dd0000c02700c6
:1030480000044400caff2300180565008005eb0052
:10305800c055dd000a00200018019000f0ff200094
:10306800000161008001eb004618dd00ca10de0097
:10307800810070004610dd000a0570008b85700025
:10308800280090004a00de008000eb000005750073
:10309800818575000a00be006a2602000200000051
:1030a8000000fb004240a9000b003400c2032000ce
:1030b8000281b900410320008280400082e02200a2
:1030c80062c1780051c5b300814f510002003a0037
:1030d8000000000000000000418881000100e000bd
:1030e80023003d00e10f40004a003a007e2702001d
:1030f800020000000080fb008000eb0008003700a1
:10310800c20320000289b90084e0220002014200c3
:10311800b20f1500a28f1d003e0032008100e800aa
:10312800808f5000f6ff3500eb0f500039003c004f
:1031380081e02200c20320000281b9000200780069
:10314800008140000a89be002002b0000100400052
:103158006604440038187800281078002801900088
:10316800b801900022009800330098002900370029
:10317800eb0f500023003e00c10320000180b9007e
:10318800430320008081410081e0220061c2790070
:1031980052c5b300824f52001e00320024022000a4
:1031a800000242000102420066044400381a780016
:1031b8002812780028039000b8039000260298008f
:1031c80037029800e1c17900e1cf410005003200e3
:1031d8002102b000008040008040eb0011409800c0
:1031e8000c0037006303200080814100e1c07900b2
:1031f8000104e00005003a00c1e322008270780073
:1032080004003700e10f400002003a00000000000f
:10321800000000000980fb00efcf540006003e00cc
:10322800110020000008dd000080ea002004b6003c
:1032380000218800060037007000500011002000af
:103248000008dd000080ea002204b6001021880092
:103258002004e20004003a002204e20002003a00de
:103268000a24a9008860a9003400f9004f05be00af
:103278004f04be004f03be004f02be004f01be0008
:103288004f00be003600f900004006003400f80088
:10329800881f780008002000a80188004f047800e3
:1032a8008480a9003400f900004006003400f800ca
:1032b800881f780008002000a80188004f047800c3
:1032c80085c0a9003400f9000040060000a0fe00f7
:1032d80000e081000000e90000e0890000e08100d2
:1032e8000000e00004003a00e1bf230080487800b5
:1032f8009760a9001fe1a9008760a9000080fe006f
:1033080000400600809fbe00829fbe0011c0b3002f
:1033180020be23000148780022df810033df8100ce
:10332800f0ff2f00010020000200400083804800c9
:1033380020df890031df89008460a9004f01be00c9
:103348004f00be000040060000a0fe003600f80056
:10335800849fbe00869fbe0050df81000000e90008
:1033680050df890050df81000000e0000b003a00c8
:1033780060df810050df890080be230011c0b300e8
:1033880090cf100003003a00f42b02000200000066
:10339800020037000a2e0200020000008780a90000
:1033a8004f03be004f02be003600f9000080fe0049
:1033b80000400600809fbe00e14e8100b04e8100b3
:1033c800808f500003003500409d22000048eb002c
:1033d80007003700e04e8100f14e8100e14078009f
:1033e8008180fb00a11188000000e800e04e890000
:1033f80087e0a9004f00be0000400600809fbe0085
:10340800829fbe00a09d22001034a000c24e810001
:10341800f1432000810f510007003e00c14e81009a
:10342800b3118000e258220003f178003242ab0069
:1034380003003a00030037001004a0001200370010
:103448001014a0003222ab0002003200a09d22001e
:103458001024a000c04e81000000e800c04e890082
:10346800c04e8100e40f500007003600c14e8100b5
:10347800e05822001080e800808f500002003a00d7
:10348800a09d22001044a00087c0a9004f01be00e3
:103498004f00be0000400600809fbe00a14480008f
:1034a80090448000808f500003003500208b21005d
:1034b8000048eb000700370041448000a04480002a
:1034c800e14078008100fb00211188000000e8003d
:1034d800a04488008580a9004f00be000040060077
:1034e800809fbe00829fbe00f030230021c0b30041
:1034f80090cf100022003a00a08b21001034a000c9
:1035080072448000f1bf2000810f510007003e0087
:1035180071448000331180008289200003f1780013
:103528002242ab0003003a00030037001004a00059
:103538004b0037001014a0002222ab00020032001a
:10354800a08b21001024a000704480000000e80037
:103558007044880070448000e40f5000400036003a
:1035680071448000808920001080e800808f50001e
:103578003b003a00a08b21001044a000380037001f
:103588006144800050448000808f500004003a005d
:10359800808920005044880050448000604488009e
:1035a8006044800031118000014878007099210042
:1035b8001004e0001c0032006144800011417800d2
:1035c800a1cc8000d34f2e00e3c07800814f51007a
:1035d80011003a00a1cc80008100e800a1cc88004d
:1035e800614480008100e80061448800a1cc80002b
:1035f800e78f500017003a00818920005144880065
:1036080051448000614488000048eb0011c0b300b9
:10361800609921000a0037000000eb00a0cc880068
:10362800808920000a003700614480007049210029
:10363800808f500004003a0011c0b300308b210085
:103648000148780003003700604480000000e8006b
:103658006044880011c0b300008920000148780048
:103668008560a9004f01be004f00be000040060063
:103678000000050003f0a200889fbe008a9fbe00dc
:103688008c1f78005b010700620133006450e10081
:103698004f0032006420e1005200320003826c00c7
:1036a80007003b000905d0000306d000820f540034
:1036b8000c065d0002003900020032008901780022
:1036c800030678008582550004003d000003fd00d4
:1036d8008103fd008502ea008b854200840f720099
:1036e80002003b0060001000e08018006011b80084
:1036f8000005eb007a28e1000a003900060078008e
:10370800c75ddd00f707b200878075002d00370020
:10371800828171000a017800610560008180d10012
:103728000080d3008502e900f9ff3b000604400051
:103738008784480002003b0060041400e0841c00f9
:103748000988a300070032008a8171008281710014
:10375800610164008904d1000884d3008b05e80066
:10376800170037000978a30013003a000b00e000a7
:10377800130034008b05e9000804440089844c00d8
:103788000a4474000978a3000d003a000b00e00019
:10379800070034008b05e9000804440089844c00c4
:1037a80001003a000b0020000978a300f7ff32005f
:1037b8000001eb0002003700828171000a017800e5
:1037c800d10007000cf0a70001f0a0001a01370093
:1037d8006420e10002003a00838f6c001a01330074
:1037e8000801be000200be00130137000001eb0013
:1037f80057000700040032000200200003f82300ed
:1038080001f0a6009cff070000000600889fbe008c
:103818008a9fbe008c1f7800f6000700fd00330069
:1038280003866c006450e1002e0032006420e10041
:10383800330032006150e1002f0032006120e100c6
:103848003100320085855500eb07b00009002000e3
:1038580008042000050037000804440089844c004f
:103868000a0031000603430087834b000001530020
:1038780081815b00f8ff33000203be000800a0004e
:103888000804440089844c00f6ff3900c639dd007d
:103898008301730001003200130020008904d10065
:1038a8000884d3000998a300050032000800a70087
:1038b8000300a0008904d1000884d3008b05e80028
:1038c8008904d1000884d3000001eb000281d200f2
:1038d8008d00070001f0a1000cf0a70001f0a00086
:1038e800d50037006420e100d70032000801be008f
:1038f8000200be00f7ff37006120e100d20032006d
:103908006000b800f3ff37000000200001f827002e
:10391800f0ff3700839f68000100e00002003d00cf
:1039280060001000e08018000300e00002003d0085
:1039380060011100e0811900ec0107004f00e00070
:1039480002003b0060001000e08018000000060044
:10395800889fbe008a9fbe000003be00900007003b
:103968008505780082815200020020006220e10073
:1039780004003a00f307b100040035007718e100ad
:10398800040035000600be00140037006000b800cf
:103998000f003700f50f2000faff2f008502d10035
:1039a8000a85d3008301e900fcff3b0081846200a3
:1039b80000046500890f7400f2ff32008582ea0076
:1039c8000a85ea0081846200000465004e00070051
:1039d80007f0a70001f0a0000081eb000200e00062
:1039e8004f05be004f04be00000006001400200072
:1039f80048033700f4ff2f00460337000001be00dc
:103a0800670007000470a70003f0a1006509b10072
:103a1800160032000d0035006828e1000600350068
:103a2800f0ff2f00f1ff27000300e00013003b0028
:103a380001002800000005000000400081804800c7
:103a48008502e900fcff3a0008003700f88f4200c1
:103a580002003c008000eb00000005008100d1005e
:103a68000080d3008502e800fcff3a000300e00074
:103a780002003b0060001000e08018000000060013
:103a88000001be00460007000470a70003f0a10073
:103a980003f8a30013003a006509b10010003200d2
:103aa800090035006928e1000200350001002800fe
:103ab8000000050000004000818048008502e90000
:103ac800fcff3a0000000600f88f420005003500b0
:103ad8008100d1000080d3008502e800fcff3a0095
:103ae800000006008000eb00000005004f89de00a2
:103af80082017800220337006011b80030033700d4
:103b08000400200003033700810020006180550075
:103b18000b003d000b00200061fe2f000100e100ba
:103b28001d00340082817100610164008904d100a4
:103b38000884d3000000e800faff3a007100200072
:103b48006100640003007000020060000900320098
:103b580061044400e0844c000988a5000500320097
:103b68008b05e8006808e10002003a008904d100ea
:103b78000884d300f20f20000258e10005003d0040
:103b8800c75ddd00f907b20089807500080078007c
:103b9800000006000bf827008b00780000000500e5
:103ba800c70ade00f107b200f50fb20008003200c4
:103bb800e1cf4200020032000170a000240005009d
:103bc800810f700001003200040805004400050060
:103bd800810f700002003a00140005008502e90018
:103be8000000400081c04800fcff3b000170a000bd
:103bf800240005000004be00e9ff07000003be0022
:103c08000405be000200be00e5ff0700844f7500f2
:103c1800000006000200be006450e1000500360006
:103c28006420e100020036000968a30001003a00a0
:103c38000800be000160a0004f0678004f05be00d6
:103c48004f04be0000000600f0ff2f00f1ff270020
:103c5800f9ff3700811f78000100e00002003d00f5
:103c680060001000e08018000300e00002003d0042
:103c780060011100e08119002c0107004f00e000ed
:103c880002003b0060001000e08018000000060001
:103c9800889fbe008a9fbe008c1f7800d5ff070052
:103ca800dcff330003866c006450e100240032001e
:103cb8006420e100270032006150e1002200320058
:103cc8006120e100210032008b854200eb07b10042
:103cd8000134b800003ab8000804420089844a0058
:103ce800013ab8000030b8008880400009014a0055
:103cf80004003300000040008180480002014900b0
:103d08008b05e900c909dd0083017000010032005c
:103d180013002000c814de004814dd004709de0047
:103d28001200b200c808de000884700076ff0700a1
:103d380001f0a1000cf0a70001f0a000beff3700c1
:103d48006120e100c0ff32000801be000200be0091
:103d5800f7ff37006150e100fcff3a00baff370077
:103d68000c00fa00889fbe008a9fbe008c9fbe0090
:103d7800a0ff07000206be00840578000200be000e
:103d880002002000f2fe070005003a008b02b30093
:103d980012002000eefe070001003a00f8856d00d1
:103da8000c01be00c60007000800be009b003200e0
:103db8000b08a3009e003a000df0a7000be0a0003e
:103dc80009f0a7000bf0a00009f0a1000801be004f
:103dd800bb0007000bf0a6009500320001003c0074
:103de8000bd0a0008acf7500b20033006000b80085
:103df8006250e10099003900a1003e000b28a300a1
:103e0800a2003a000bf8a300060032000b58a300ea
:103e1800a70032000801be00a90007000800be0084
:103e2800940032000800be00cb0107000004be0069
:103e3800050578000bf0a7000b30a6000bf0a100d9
:103e48005b079800324f200053f32300e7fe07007a
:103e580005003d000800be00120020008702070090
:103e68000004be000a05e9004a0798006150b9003d
:103e78001eff0700008fbe000c01be0084ff070074
:103e8800defe0700300798000100e00002003d0058
:103e980060001000e0801800f2ff2700820f500039
:103ea800e08f580064003e000c00be00d3fe0700ff
:103eb80020079800f2072000820f5000e08f58007a
:103ec80005003c0012f82f00f3ff2f00820f50006e
:103ed800838f580009003d000a00e000030032000b
:103ee80001003c000201ea00020578006000b80009
:103ef800200798003a079800190037003e00900004
:103f08006100b900f9fe0700809fbe000c00be00ea
:103f18004109dd004811de007208b1008cfe07007f
:103f28000005be001e01be0059ff07004f01be007c
:103f3800d0fd0700809fbe000c00be000a01be0035
:103f4800ccfd07001e01be0051ff07004f01be0057
:103f5800c9fd07008221270013f323004cff070047
:103f68000005be002e0090006100b900dffe0700ca
:103f780001f0a2000c01be00bffd07000006be0054
:103f88000800be005f0207000c01be0040ff0700ea
:103f98000a01be00b8fd0700809fbe004a00070066
:103fa8002e0590000af0a7000a05ea000500370070
:103fb8000800be000801be0035ff07000004be006f
:103fc8000c00be000801be000a00a70030ff070071
:103fd8000006be000a05d100f5ff3a005e01900018
:103fe80002e0a600030037000001be00360007000b
:103ff80006fe07000004be004f00be006301070074
:104008000801be0022ff07003e0190001b020700c6
:10401800de0590000bf0a70001f0a2004f06be00dd
:104028004f05be004f04be000080fa0000000600e5
:1040380025000700f9ff3700270007006000b800d7
:104048000bd0a7000bc0a0000be0a7000bc0a2007c
:104058000bc0a70001f82700f0ff37000df8a300f8
:10406800020032001e000700190007000bf8a30029
:10407800eaff32000b30a70001f0a200e7ff37008b
:104088000df8a300f9ff3a00f7ff37000801be005a
:104098000b000700e6ff320001003c000df0a20013
:1040a8006000b8000df0a70009000700dbff37002b
:1040b8000b000700f1ff2700f0ff2f00d7ff3700a4
:1040c8000100070049fe370001f823000000050041
:1040d80001f8270000000500200220000100370039
:1040e8001002200000408800000006006022b8008e
:1040f800060220000000d0008180d2000482d20095
:104108008582d2000000a0000202520083825a0079
:10411800030031000202420083824a000000a1002d
:104128000603e900f3ff3a0000000600efff07006e
:104138000400be0000000600020ab900001bb90016
:104148000200b80081004200810043000000060020
:10415800889fbe008a9fbe0030044200b0844a0097
:1041680030054b0090854b006000b1000898be00f8
:104178000a90be000440e10005c8e10006d0e10055
:1041880007d8e10002003100680040001008e8008c
:104198004f05be004f04be0000000600889fbe0009
:1041a8008a9fbe003004be002005be0004185400db
:1041b80005985c0006185d0007985d001100200056
:1041c8000440e10005c8e10006d0e10007d8e1009d
:1041d800010039008000eb00108810004f05be0078
:1041e8004f04be00000006001200fa00889fbe00bf
:1041f8008a9fbe008c9fbe00e0b79f00f1b79f006a
:1042080082bf9f0093bf9f000605be000404be0046
:104218000000eb00d0b79f00c0b79f00b0b79f0069
:10422800a0b79f0090b79f000006eb005fb1970012
:10423800cfb09700820141003fb097000200e00034
:1042480004003d00370007007e805700c0ff0700cc
:1042580003003700330007007e805700cfff0700b8
:10426800dfb697000d00e0000c0035006fb2970034
:10427800ffb297000fbb97009fbb9700100020006c
:10428800010020006011b8000002720081827200f3
:1042980002037300838373001b0007000c06e80009
:1042a80001042000810f5600e0ff3a000d00e000f5
:1042b80004003d000802be000a03be007e805700cd
:1042c800a3ff07005fa897000000e00005003a0080
:1042d8001fb29700afb297003fb39700cfb39700d4
:1042e800090007006fb09700ffb097000fb997005b
:1042f8009fb997004f06be004f05be004f04be0091
:104308000080fa0000000600010007000000060017
:10431800a4b79f00b5b79f00c6b79f00d7b79f0047
:10432800000006004f09de0082817100b3b79f00cc
:104338004f01de008180400082807000a1b79f009d
:104348008fb097004f09de000000400002007000a7
:1043580090b79f007fa897004f01de008180400042
:104368008280700081b79f000d0007004f3ade0081
:104378000000400004007000f0af9f000800070034
:104388000402420085824a0006034b0087834b00e3
:10439800dfff07000802be000a03be000000060097
:1043a8002fb29700bfb297004fb39700dfb39700c3
:1043b80000000600881f780018002000881f780079
:1043c80089ff07008f87e9004f0478000000060086
:1043d800801feb0084ff07008f87e90000000600bc
:1043e800889fbe008a9fbe00e00f5000e08f5800f3
:1043f800e00f5900e08f59000c003d006044b80000
:104408006055b8000000540081805c0002015d0026
:1044180083815d00180020001500070008003d009a
:10442800180007000004eb00050037000004eb004b
:104438000f00070002003d001200070018002000ce
:10444800dcff07000800e000060032006022b80028
:104458006033b8000000520081805a0002015b00fe
:1044680083815b004f05be004f04be0000000600bc
:10447800e00f5200e08f5a00e00f5b00e08f5b0016
:10448800000006006044b8006055b80004025400fb
:1044980085825c0006035d0087835d0000000600de
:1044a800889fbe008a9fbe008c1f7800e00f5000d6
:1044b800e08f5800e00f5900e08f59000d003d00d3
:1044c8006044b8006055b8000000540081805c006a
:1044d80002015d0083815d001c0020000820e100ce
:1044e80009a8e1000ab0e1000bb8e1000d003d00a9
:1044f800080037000006eb00e00f5200e08f5a007a
:10450800e00f5b00e08f5b0006003d006044b800f0
:104518006055b8000402540085825c0006035d0003
:1045280087835d00aaff07000c00e0000600320048
:104538006022b8006033b8000000520081805a0041
:1045480002015b0083815b004f0678004f05be00c7
:104558004f04be00000006000003be0090fd0700e7
:104568006220e100020032000600be0005000500de
:10457800e507b100f107b20004f023008480700061
:1045880007f0a70001f0a00024000500889fbe00e6
:104598008a9fbe008c9fbe000004be0080fd0700fd
:1045a8000800be006420e10048003e0055003200cb
:1045b80072212700132b24000efd070047003c0042
:1045c8000800be00c2ec2800e32c2c0007fd070001
:1045d800470035000800be0001f0a10002002000dd
:1045e8000338230001fd0700430035000800be0022
:1045f800b2a32a0083fb2300a5fd070002002000c8
:1046080003f0230001f0a70003f0a0001afc070044
:10461800fafc07000005be0034fd070001f0a20007
:104628000006be000200280013f3230098fd0700cf
:104638000801be0010fc0700809fbe000c00be00f1
:1046480032082800e3952b0091fd07004f01be00ba
:1046580009fc07000006be000001be008cfd070033
:10466800809fbe004241250083b8230088fd0700d3
:104678000200200003e82300fffb07000c01be0036
:1046880083fd07000006be004f00be00f2f92b00b4
:10469800c3d423007efd07000200200003f023009e
:1046a800f5fb07000c01be00f2fb07000001be008d
:1046b8000c00be0055fc07000200200003f0230098
:1046c800edfb0700610145006c0007004f06be00c6
:1046d8004f05be004f04be000000060001f8270089
:1046e800000020002202200002408800f7ff370067
:1046f8006000b800fbff370001f82300000020002d
:10470800f2ff370009f8a300f0ff32006000b8009c
:10471800eeff3700889fbe008a9fbe00841f780086
:1047280034fd07004f00780011003300f0ff2f0020
:10473800838f6c0006003b00040565000a00a70093
:104748000800370009f0a600100020000800370014
:10475800820f5400838f5c00030039001000200092
:1047680001003e000000200009f0a7000000ea0058
:104778004f05be004f04be000000e0000000060028
:10478800881f7800030478000300e00007003d005c
:1047980060001000e080180060011900e081190035
:1047a80002003b0001f02d00030037000400070061
:1047b80008f0a70001f0a0004f04780000000600f0
:1047c800889fbe008a9fbe000082700004027100ac
:1047d80004827100260032000004be000200be0000
:1047e8006011b8006b092000950220000182cf00fb
:1047f8000a0039000541b1000082cf0007003900e6
:104808000541b1000982cf00040039000541b1001b
:104818000882cf00010039000541b100054252006d
:10482800120032000a003b008281710061016400bd
:104838008100d1000080d3008984d3000884d3008c
:104848008b05e8000442e800f7ff3a00070037004c
:104858000804440089844c00000048008180480016
:104868008b05e9000442e900f9ff3a00a6fc0700bd
:104878004f05be004f04be00000006000003be0046
:10488800c7fc07006220e100020032000600be00fb
:104898000000060085024100e30f20000328e10024
:1048a80005003c00a3fe2f000328e10007003d009f
:1048b8000500200001003700f50f2000200220002d
:1048c800004088006000b80008003700130020008e
:1048d8008381520005003d008100d1000080d30093
:1048e8008301e800fcff3a0005002000c72add002c
:1048f800f107b2008580700007f0a70001f0a00062
:1049080000000600889fbe008a9fbe008c9fbe00e4
:1049180011ff0700850478000005be006420e1004f
:1049280049003e006220e100030032000900350022
:104938000bf8a300440032000bf8a3000800320073
:104948001002200000408800f0ff2f00f1ff270030
:104958003d00370001f82f00000020003a00370022
:104968003d00070043fb07000006be000a00be002a
:10497800324f200053f323001efc070006003400ca
:104988000c00be00340007003afb07000006be001a
:104998000a00be00020037008904e9000c00be00ce
:1049a8002d000700bafc07002b00070032fb0700a8
:1049b8000001be000c00be0094fb07000005be000d
:1049c8000001be00b2fc07000006be00a2f32300ef
:1049d800430d2c0028fb0700809fbe000c00be0082
:1049e800d2e32700d3f02b00a9fc07004f01be003b
:1049f80086fb07000006be000a01be00a4fc0700f3
:104a08000a01be001cfb07000006be006148b90091
:104a180036fc07000005be0032082800e3952b008d
:104a28009bfc07000c01be0013fb07000006be003c
:104a38000a00be000200280013f3230094fc0700bc
:104a48000c01be000cfb07004f06be004f05be0060
:104a58004f04be000000060003f02300020005001a
:104a68000900370030427800b1417800834f520086
:104a78000400320010002000060031000080eb0026
:104a8800000006000201e9000200e000f5ff3a001c
:104a98000000eb00000006008001780002003700eb
:104aa800b15978000201e9000200e000fcff3a0079
:104ab8000000060080017800020037008159780064
:104ac8000201e9000200e000fcff3a0000000600d5
:104ad8000001fa00889fbe008a9fbe008c1f7800e4
:104ae8000004be0002057800f0032000808f51000a
:104af8000d003e00090278000a017800880078005d
:104b08000000eb0005003700b1427800325c780005
:104b1800345d7800855c78000000e800830f500061
:104b2800f9ff3a001e003700030678008c0578006c
:104b380000102000800f5600010036008005780024
:104b48000b0178008800780060ef2f000f0040000c
:104b5800d1ff07000b0178008a0078000800780070
:104b6800cdff07000b017800890078000a00780063
:104b7800c9ff07000b01780061ef2f008f8040000c
:104b880009007800c4ff07000b0656000b04440018
:104b98008b8444000b0545000c00e000e3ff3a005d
:104ba8004f0678004f05be004f04be000080fa0093
:104bb800000006000001fa00889fbe008a9fbe0020
:104bc8000005be00f0032000800f510009003e00e0
:104bd8000000eb00040037009a4078001b5d780065
:104be800815d78000000e800820f5000faff3a006b
:104bf80018003700820478000904780000102000ab
:104c0800808f540001003600000478000801780005
:104c18008a00780080ef2f000f0040009eff0700f9
:104c2800080178000a00be009bff07000801780011
:104c380081ef2f008f8040000b00780096ff07005f
:104c48008884540008054500888545000900e0006f
:104c5800e9ff3a004f05be004f04be000080fa008d
:104c680000000600889fbe008a9fbe008c1f780047
:104c780080047800010478000205be00040678006c
:104c88000800be000c0001000000e00004003d0028
:104c98000b0178008800780009007800c5ff07003c
:104ca800880078000a0078000c0001000000e0008d
:104cb80004003d000b0178008a00780008007800a5
:104cc800bcff07000800be000c0001000000e00067
:104cd80004003d000b017800880078000900780086
:104ce800b4ff07004f0678004f05be004f04be0012
:104cf80000000600889fbe008a9fbe008c9fbe00f1
:104d08008e1f7800800278000105780082057800ff
:104d18000304780004067800858055008602200088
:104d2800069bb900868f5000230036001100090049
:104d38008380d8008000fd00c308de008100e80001
:104d4800038bb90086047800098742000981440072
:104d5800028142008e00780005007800c1ff07003c
:104d68008906ea00090145000d0045000c0278009b
:104d7800880178008a007800baff07008d86450010
:104d8800e0ff2f0000c8b900008045000c02780041
:104d9800880178000b0178008d007800b1ff0700ca
:104da8000c027800880178000d0178008a007800ec
:104db8000e007800030037000b0178008a007800a5
:104dc80005007800a7ff07004f0778004f06be00d0
:104dd8004f05be004f04be0000000600e4874700f0
:104de800889fbe008a9fbe008c9fbe008e1f7800e1
:104df8000004be000205be0084bf9f000906e8004b
:104e08000c06460009d8b900000744000cd8b900c0
:104e18008006440009007800150037008a0f560004
:104e2800060032008b8056000d0078000fb99700fd
:104e3800020001000000e00002003d000c06e9004d
:104e48008b8656000b0178008d0078000e007800e4
:104e580058ff07008c00e800818040000b89b900ea
:104e68000c0078000d0778008206440001067800df
:104e78008a0f5600e9ff3600100037000006e900e7
:104e88000c06d1000be0b900000544008a00780048
:104e98000e0078000fb99700020001000000e00042
:104ea800080034000b0178008e0078000a007800b2
:104eb80040ff07000c0078000a077800808f540034
:104ec800eeff39004f0778004f06be004f05be00c1
:104ed8004f04be004f00b100000006000001fa00b8
:104ee800889fbe008a9fbe008c9fbe000005780088
:104ef80001067800820578008a0656008b864600ef
:104f08008b04780015003700090478000010200091
:104f1800808f540001003600000478008880550016
:104f2800810046000801780040ef2f000f00400084
:104f3800d9fe070008815600080045008a0078005d
:104f48003d0907000801780041ef2f008f804000dd
:104f58000a007800d0fe0700888454000900e000a9
:104f6800e9ff3a004f06be004f05be004f04be00e1
:104f78000080fa0000000600ea874700889fbe000c
:104f88008a9fbe008c9fbe008e1f780000057800a7
:104f980081067800e2b79f00030478008405780052
:104fa8009b0037000d00d1000880b90000064500bd
:104fb80008e8b90000014500d2b79f008804460000
:104fc8000800ea00f0b79f008200780000814000e6
:104fd8000b027800880178008c0078000a007800bd
:104fe80044ff0700010037000d0678008c0f5500bc
:104ff800090031007fb19700820646008c007800d6
:105008000d0078000b0001000000e000f6ff320000
:1050180001003700888444005fb09700808f5400f7
:10502800030039000c077800890678001100370062
:105038008c007800090078000b0001000000e000f7
:10504800f4ff3200f7ff37000c00be000b00010030
:105058000000e000060035001c003a000801780056
:105068008d00780009007800d2fe0700888444008b
:1050780088864600dfb09700818f56001300310004
:10508800f1ff37007fb19700820147008c0078005c
:105098000300780083bf9f000b0001008fb99700c1
:1050a8000000e000080035000a003a007fb09700d1
:1050b8000006460008017800830078000c0078009c
:1050c800bcfe07008fb99700030778008e0f5500c4
:1050d800ecff39008a0f570014003a00dfb0970040
:1050e800818f56002b0032008d8f540005003a0046
:1050f800080178008c00780009007800adfe0700f0
:105108000500370088017800090178008c007800d4
:105118000d0078006efe07008886460008064600e7
:10512800888444000a077800d2ff37007fb19700cf
:10513800020747005fb09700808f560010003a00c2
:1051480082844400020646008c0f570006003a008d
:1051580008017800890078000e00780095fe0700a5
:105168000e067800c3ff3700880178000c0178002c
:10517800890078000e00780055fe0700bdff370053
:10518800080178008e0078000d00780089fe07007d
:10519800b7ff3700efb097000100d1000101780098
:1051a800c210de0080804000e1b79f000a0656006a
:1051b800110009000886d800000678008986560084
:1051c800110009008886d800800678008d0f5600e7
:1051d80008003e000b027800880178006fb1970044
:1051e8008c0078000a00780063ff07000905780042
:1051f800070037000b027800880178006fb197002c
:105208008d007800090078005bff07008c067800a5
:10521800efb097000100e000040032000002200017
:10522800808f56005fff3e001e00370000022000fe
:10523800808f56001b0036008d04d1008904e900d8
:105248000b027800880178000d0178008900780049
:105258000a007800e1fe07000900e000f7ff3a00c5
:1052680008e8b900800445008884540008017800e3
:10527800890078000a0078004efe07008d06e900d4
:105288000b027800880178000d0178008000eb009f
:105298000a007800d1fe0700e18f5600f2ff3e00b9
:1052a8001f003700e18f56001d0036008a04780081
:1052b80019003700888444008a00780009007800c3
:1052c8000b0001000000e00004003d000801780028
:1052d800890078000a0078000e0037000906780077
:1052e800010037000e067800080756008e00780087
:1052f800090078000b0001000000e000f9ff35000c
:10530800890f5600040032000801780089007800ef
:105318000c007800f1fe07008d06e900e5ff3a0071
:105328004f0778004f06be004f05be004f04be0071
:10533800af00b10000000600030278008201780087
:1053480001017800820078000bff3700889fbe00bb
:1053580090b181000000e00001003200000001006f
:10536800a0b181000000e00001003200000001004f
:10537800006323001004e00022003a0010e08100de
:1053880021e0810088002000d260260093012000df
:1053980069fb0700f2352f00e3c623000000410037
:1053a800818049000804e900f7ff3a006863230098
:1053b8000908200088844400d26026009301200058
:1053c8005dfb0700f2352f00e3c623000000410013
:1053d8008180490000acbe00890f5400f6ff3a00f6
:1053e80010e0890021e08900b0b58100c1b58100d5
:1053f800b0b18900c1b1890011c0b30000632300b6
:1054080001487800d26026009301200010e0810056
:1054180021e0810048fb0700f2352f00e3c6230096
:10542800000241008182490014e0890025e08900da
:1054380060632300100078007f0160004211dd00e6
:10544800a0632300020140001200be00b0b1890031
:10545800c1b189000489be000100780000f0a100f4
:105468004f04be0000000600889fbe0000047800bc
:1054780090b181000000e00001003200000001004e
:10548800006323000048eb00a0b181000000e000a9
:1054980001003200000001008004eb0018e08900e0
:1054a80029e089004f04be000000060000017800d2
:1054b800b1417800035978000304e000fcff3a008a
:1054c8000000060080007800010178003104e00047
:1054d800fdff3a0000005100000006000c003700f4
:1054e800b0417800b1cf5100060032001000200012
:1054f8009542780094cf52000b0031000080eb00f9
:10550800000006000304e000060032000201e90082
:1055180001027800800278000200e000f0ff3a0003
:10552800000005000000eb0000000600e4874700cb
:10553800889fbe008a9fbe008c1f78008e1f78004f
:105548000005780001077800020678000e00e000e8
:1055580001003a006e8757008a0578008b047800ae
:10556800890578003b4478000800fb000703070022
:105578000000e000f9ff3a00d0c2b300804f5400a9
:105588000300320000c0e900804f540002003a00d6
:105598008904e80001003700004478000c01780015
:1055a8008e00780009007800290007009e8f5400bb
:1055b80001003a000a0f78009e0f550003003a00d8
:1055c800e00f5000e08f58000f003a00b2c2b3005d
:1055d800824f540004003a00e00f5000e08f58005a
:1055e80015003d0008003700d2c2b300824f5400b6
:1055f80011003a000200200003002800820f50002a
:10560800838f58000a0036002002200000408800de
:10561800f0ff2f00f1ff2700d2c2b300824f5400e1
:1056280005003a00000020000100280002003700b1
:1056380060001000e08018004f0778004f067800df
:105648004f05be004f04be004f00b1000000060029
:10565800ee874700889fbe008a9fbe008c9fbe00d1
:105668008e1f7800f0b79f00010678008205780049
:1056780000047800080578000a047800b846780025
:105688000d00fb00c10207000000e000f9ff3a002e
:10569800d0c2b30080cf56000300320000c0e9003a
:1056a80080cf560002003a000a05e80001003700e2
:1056b800804678000b00e00005003500e18f5500ba
:1056c8000300320040022000808f5500060034009d
:1056d8006044b8000c00e000700032007fb0970012
:1056e800000e78006d0037000b00e0000e0032005d
:1056f800f08f55001a003a0000c3b3009a4f10000b
:1057080017003a001a40900081c7b300814f50003b
:105718000300320081c5b300814f500010003a00e9
:105728000a85e8000e003700ab00200000c3b30074
:105738009a4f10000a003a001a40900081c7b3003f
:10574800814f5000040032008b00200081c5b30057
:10575800814f500002003a000a85e8000b01200042
:105768000a007800000278000400780001c3b30042
:10577800b0cf1000fbff3200040778006044b80087
:10578800b4b79f000d003700a18e23008140500060
:10579800c1ef9f006159b9000800be0066fa070012
:1057a8004fea97000401fb00cf91de00c8b79f00c5
:1057b800d9b79f0002044000838448008e02780015
:1057c8003e00fb0085bf9f00780207000b017800b0
:1057d80080007800a08e23000d0707008fba97007d
:1057e8000000e000e8ff3a003fb29700850f55003f
:1057f80005003a006044b8000c00e00027003200c1
:10580800ffb297002400370004825200f090230072
:1058180060c07d000000fb0000025200170033004a
:1058280011003a004fe997000200fb00cf80de002c
:105838000000540081805c00800f5400818f5c0060
:10584800090039006159b90085bf9f0027fa070090
:105858008fba97004fb19700dfb19700820f5000c1
:10586800838f580005003200200220000040880085
:105878000084eb008084eb0005003700d0c2b30041
:1058880080cf560002003a0060041400e0841c0037
:105898000c00e00001003200050e78000800be0090
:1058a8004f0778004f06be004f05be004f04be00ec
:1058b800ef00b10000000600881f7800020478009d
:1058c8000801780074fc0700080040004f047800c5
:1058d800000006000000fa00881f78000004780025
:1058e800ea8157003fb997008800780000c6220077
:1058f800070007000000e000020035008040eb00d0
:10590800017478004f0478000080fa000000060057
:105918006200fa00889fbe008a1f780000057800a0
:1059280081047800020478008300780080f92f0051
:105938000f004000330207009a979f00a9979f0025
:105948000000eb00b09f9f001885fb008a04fb0055
:105958000a05ea004f55de0050022000808f5400ef
:105968000d003200e10f55000b003a000a017800e3
:10597800880078002f9097009f91970003000100fe
:10598800a0979f000000e0008e0032003f9897002b
:105998000000e800b09f9f000a0444005002200065
:1059a800808f5400040032000900e000e6ff3a004e
:1059b8003f989700840037000000eb00909f9f00fd
:1059c800809f9f00f0979f00e0979f00d0979f00cf
:1059d800c0979f000700370061b323000100500003
:1059e80000004000a1b2230061007800df98970012
:1059f80001007000d09f9f00880478000904780097
:105a0800384578008a00fb0060b32300ee010700e8
:105a18000000e000f0ff3a00a1c2b300814f55003a
:105a28000e003a00cf8897000180e900c08f9f00e0
:105a380010007800c09f9f000000e00005003d00b6
:105a48000000ea00c09f9f005f9897000020a00018
:105a5800d09f9f000904e8000f003700c09f9f00f7
:105a68000000eb0005003700f2ff2700820f50000e
:105a7800020032006a01b90002804000090478007f
:105a880088047800b900fb000103b100e98f5000d9
:105a9800f5ff3600c09f9f00e0c2b300984f10008a
:105aa800020032000080eb0019003700a0c2b300ea
:105ab800d84f100007003a00cf8897000180e9000e
:105ac800c08f9f0010007800a09f9f000804e80086
:105ad800100037000000eb00a09f9f0088007800ae
:105ae80005003700f3ff2700830f50000200320043
:105af8006a02b900040041000104780088007800b7
:105b08003101fb000203b100e90f5100f5ff360037
:105b1800a09f9f00984478008900fb0020b22300d2
:105b2800a90107000000e000020032000804e800b4
:105b3800010037008044eb00c97f9f0080c6b30096
:105b480080cf540004003a0098cf14000a003a00ad
:105b58006640500006003700c0c6b30080cf54002e
:105b680005003a0098cf140003003a006540400051
:105b7800c07f9f000804e800e3fb2f008f814100ed
:105b88001841780081f92f008f804000a0f92f007c
:105b98000f004000100007000000e00009003a0074
:105ba800e1fb2f008f804000a0f92f000f0040007c
:105bb800850907000000e000020035000804e8003d
:105bc80061ff37000080eb004f0578004f04be00ee
:105bd8000080fa0000000600889fbe008a1f780037
:105be80000047800824478000305780070c6b3008a
:105bf80080cf540021003c0000c0e90080cf540051
:105c0800d5003d007240500080cf54003c01320066
:105c18000d003c006c40500080cf54004f013c0008
:105c280000c0e90080cf5400cb003d0050c2b30053
:105c380080cf5400460132007c40400080cf5400a1
:105c480046013a00c400370010c6b30080cf5400a4
:105c5800c100320004003c006940500080cf54006d
:105c68003e013a006900370030c6b30080cf5400c7
:105c7800180032000040e8000900370000c7b300f0
:105c880080cf54001001320008003c0000c0e90039
:105c980080cf5400d90032005c003c0065405000c1
:105ca80080cf54002d013a000f00370050c7b300d1
:105cb80080cf5400550032006340400080cf54002c
:105cc800520032006540500080cf540023013a0052
:105cd8000b0137001181e9008208780078009000f4
:105ce800127578002301370028609000c2c6b300ff
:105cf800824f500007003a001101780064005100fb
:105d0800800878001000be004f89de00820178000c
:105d18001400370012c7b300824f500003003a0046
:105d2800110278006800520005003700a2c6b300cf
:105d3800824f500006003a009102780068805200b5
:105d4800800878005001be004000be000500370002
:105d58001180e9008008780010007800cf80de000c
:105d68006109b900009cbe000294be002862900040
:105d780085c6b300854f52000d00320025c6b3001a
:105d8800854f520004003a000000fb00cf80de007f
:105d98006109b9000800370045c7b300854f5200b4
:105da80003003200e6c24200854f520004003a0068
:105db800cf80de006109b900009cbe000294be00dd
:105dc8003802be002803be0078009000d1c2b3009c
:105dd800e00f5200e08f5a00e00f5b00e08f5b009d
:105de80008003500881090000118a3000200320056
:105df800b1c2b300030037000108a300510032000c
:105e080001c2b300017578004c003700286090008b
:105e1800c2c6b300824f500008003a001103780050
:105e280064005300800878001002be006033b80098
:105e38000400be000601be001400370012c7b300fc
:105e4800824f500003003a009102780068805200a7
:105e580005003700a2c6b300824f500006003a0082
:105e68001103780068005300800878005001be00d4
:105e78004000be00050037001180e9008008780066
:105e8800100078008000eb006011b800009cbe0094
:105e98000294be002862900085c6b300854f520068
:105ea8000d00320025c6b300854f520004003a00a9
:105eb8000080fb008000eb006011b800080037008c
:105ec80045c7b300854f520003003200e6c24200c6
:105ed800854f520004003a008000eb006011b800c2
:105ee800009cbe000294be00081090000038a30079
:105ef800140032003800be002801be00e00f500038
:105f0800e08f5800e00f5900e08f59000d00320073
:105f180080c7b30080cf54000300320080c5b300af
:105f280080cf540007003a007800900001c3b30006
:105f3800017578000000e800097578000000e800a5
:105f48007004980078009000000545006a049800e5
:105f5800894078006700370028619000c0c4b3000a
:105f6800804f510006003a00910378006880530082
:105f7800800878005001be004000be0005003700d0
:105f88001101780064005100800878001000be00fc
:105f9800eb0b0700009cbe000294be00b800900006
:105fa800780090000100e00002003d00d1c2b3007b
:105fb80008003700881090000118a3000200320082
:105fc800b1c2b300030037000108a3000400320087
:105fd80001c2b300017578000000e8007004980061
:105fe80078009000000545006a0498008940780010
:105ff800080078002205070060003700286190003b
:10600800c3c6b3001180e900834f5100220032005b
:106018000a003c00e4c15100834f510025003200c2
:1060280083c1e800834f510013003200e8c15100da
:10603800834f51001e003a000a00370043c7b300df
:10604800834f51001b003200e6c14100834f5100cd
:1060580018003200e9c15100834f510014003a0082
:10606800050037008008780010007800485c900030
:106078000848780041003700800878001000780050
:10608800680a9000cfa2de00612bb9000498be0018
:106098000690be00390037008008780010007800ac
:1060a80068099000cf91de000288be0033003700f7
:1060b8001180e9008008780010007800680c9000d2
:1060c800080878002d0037001180e9008008780062
:1060d80010007800cf80de006109b900009cbe0086
:1060e8000294be0078009000000545006a049800fc
:1060f80081c7b30008007800040707001f003700b5
:106108001180e90080087800100578006a0498007a
:10611800d80c90000900e00004003d000a00780057
:10612800e8fc0700800478000700370009017800c0
:106138008000eb000a007800b50407000000e000ca
:10614800010032008a045000190c98000b00370037
:1061580078009000097578000600370078009000f4
:10616800000545000904e00001003a0059c2b300e7
:10617800094d78000000e800700498000000eb006a
:106188004f0578004f04be00000006006900e100da
:10619800040035006d00e100030034000002b10086
:1061a80001003200000005001000050080007800a2
:1061b8001104b100030035009101b10001003c0059
:1061c8000050a000000006000001eb0003003700ab
:1061d8000201e8000404e000070032006103b8008f
:1061e8006112b8008601420066427a00814f52006f
:1061f800f7ff3a00010037008001eb000300780048
:10620800000006000108780000000600881f7800da
:1062180002047800080178001ffa0700080040000f
:106228004f047800000006000000fa00881f78007c
:1062380000047800ea8157003fb997008800780089
:10624800a0102300070007000000e000020035004e
:106258008040eb00017478004f0478000080fa0059
:10626800000006006200fa00889fbe008a1f7800be
:106278000005780081047800020478008300780023
:1062880080f92f000f004000deff07009a979f005b
:10629800a9979f000000eb00b09f9f001885fb00a6
:1062a8008a04fb000a05ea004f55de005002200070
:1062b800808f54000d003200e10f55000b003a00aa
:1062c8000a017800880078002f9097009f91970026
:1062d80003000100a0979f000000e0008e0032003c
:1062e8003f9897000000e800b09f9f000a04440010
:1062f80050022000808f5400040032000900e000a2
:10630800e6ff3a003f989700840037000000eb0052
:10631800909f9f00809f9f00f0979f00e0979f00ad
:10632800d0979f00c0979f000700370001b5230052
